{
  "_format": "hh-sol-artifact-1",
  "contractName": "LendingPoolRouter",
  "sourceName": "contracts/router/LendingPoolRouter.sol",
  "abi": [
    {
      "inputs": [
        {
          "internalType": "address",
          "name": "_factory",
          "type": "address"
        },
        {
          "internalType": "address",
          "name": "_WETH",
          "type": "address"
        }
      ],
      "stateMutability": "nonpayable",
      "type": "constructor"
    },
    {
      "inputs": [],
      "name": "WETH",
      "outputs": [
        {
          "internalType": "address",
          "name": "",
          "type": "address"
        }
      ],
      "stateMutability": "view",
      "type": "function"
    },
    {
      "inputs": [
        {
          "internalType": "uint256",
          "name": "_amount",
          "type": "uint256"
        }
      ],
      "name": "borrowETH",
      "outputs": [],
      "stateMutability": "nonpayable",
      "type": "function"
    },
    {
      "inputs": [
        {
          "internalType": "address",
          "name": "_token",
          "type": "address"
        },
        {
          "internalType": "uint256",
          "name": "_amount",
          "type": "uint256"
        }
      ],
      "name": "borrowToken",
      "outputs": [],
      "stateMutability": "nonpayable",
      "type": "function"
    },
    {
      "inputs": [
        {
          "internalType": "address",
          "name": "_token",
          "type": "address"
        }
      ],
      "name": "createPool",
      "outputs": [],
      "stateMutability": "nonpayable",
      "type": "function"
    },
    {
      "inputs": [
        {
          "internalType": "uint256",
          "name": "_amount",
          "type": "uint256"
        }
      ],
      "name": "depositETH",
      "outputs": [],
      "stateMutability": "payable",
      "type": "function"
    },
    {
      "inputs": [
        {
          "internalType": "address",
          "name": "_token",
          "type": "address"
        },
        {
          "internalType": "uint256",
          "name": "_amount",
          "type": "uint256"
        }
      ],
      "name": "depositToken",
      "outputs": [],
      "stateMutability": "nonpayable",
      "type": "function"
    },
    {
      "inputs": [],
      "name": "factory",
      "outputs": [
        {
          "internalType": "address",
          "name": "",
          "type": "address"
        }
      ],
      "stateMutability": "view",
      "type": "function"
    },
    {
      "inputs": [
        {
          "internalType": "address",
          "name": "_token",
          "type": "address"
        }
      ],
      "name": "getBalance",
      "outputs": [
        {
          "internalType": "uint256",
          "name": "balance",
          "type": "uint256"
        }
      ],
      "stateMutability": "view",
      "type": "function"
    },
    {
      "inputs": [
        {
          "internalType": "address",
          "name": "_token",
          "type": "address"
        },
        {
          "internalType": "address",
          "name": "_user",
          "type": "address"
        }
      ],
      "name": "getBorrowAmount",
      "outputs": [
        {
          "internalType": "uint256",
          "name": "amount",
          "type": "uint256"
        }
      ],
      "stateMutability": "view",
      "type": "function"
    },
    {
      "inputs": [
        {
          "internalType": "address",
          "name": "_token",
          "type": "address"
        },
        {
          "internalType": "address",
          "name": "_user",
          "type": "address"
        }
      ],
      "name": "getLendAmount",
      "outputs": [
        {
          "internalType": "uint256",
          "name": "amount",
          "type": "uint256"
        }
      ],
      "stateMutability": "view",
      "type": "function"
    },
    {
      "inputs": [
        {
          "internalType": "address",
          "name": "_token",
          "type": "address"
        }
      ],
      "name": "getPoolAddress",
      "outputs": [
        {
          "internalType": "address",
          "name": "pool",
          "type": "address"
        }
      ],
      "stateMutability": "view",
      "type": "function"
    },
    {
      "inputs": [
        {
          "internalType": "address",
          "name": "_token",
          "type": "address"
        },
        {
          "internalType": "address",
          "name": "_user",
          "type": "address"
        }
      ],
      "name": "getRepayAmount",
      "outputs": [
        {
          "internalType": "uint256",
          "name": "amount",
          "type": "uint256"
        }
      ],
      "stateMutability": "view",
      "type": "function"
    },
    {
      "inputs": [
        {
          "internalType": "address",
          "name": "_token",
          "type": "address"
        }
      ],
      "name": "getTotalLendAmount",
      "outputs": [
        {
          "internalType": "uint256",
          "name": "amount",
          "type": "uint256"
        }
      ],
      "stateMutability": "view",
      "type": "function"
    },
    {
      "inputs": [
        {
          "internalType": "address",
          "name": "_token",
          "type": "address"
        },
        {
          "internalType": "address",
          "name": "_user",
          "type": "address"
        },
        {
          "internalType": "uint256",
          "name": "withdrawAmount",
          "type": "uint256"
        }
      ],
      "name": "getWithdrawAmount",
      "outputs": [
        {
          "internalType": "uint256",
          "name": "amount",
          "type": "uint256"
        }
      ],
      "stateMutability": "view",
      "type": "function"
    },
    {
      "inputs": [
        {
          "internalType": "uint256",
          "name": "_amount",
          "type": "uint256"
        }
      ],
      "name": "repayETH",
      "outputs": [],
      "stateMutability": "payable",
      "type": "function"
    },
    {
      "inputs": [
        {
          "internalType": "address",
          "name": "_token",
          "type": "address"
        },
        {
          "internalType": "uint256",
          "name": "_amount",
          "type": "uint256"
        }
      ],
      "name": "repayToken",
      "outputs": [],
      "stateMutability": "nonpayable",
      "type": "function"
    },
    {
      "inputs": [
        {
          "internalType": "uint256",
          "name": "_amount",
          "type": "uint256"
        }
      ],
      "name": "withdrawETH",
      "outputs": [],
      "stateMutability": "nonpayable",
      "type": "function"
    },
    {
      "inputs": [
        {
          "internalType": "address",
          "name": "_token",
          "type": "address"
        },
        {
          "internalType": "uint256",
          "name": "_amount",
          "type": "uint256"
        }
      ],
      "name": "withdrawToken",
      "outputs": [],
      "stateMutability": "nonpayable",
      "type": "function"
    }
  ],
  "bytecode": "0x60c06040523480156200001157600080fd5b506040516200195538038062001955833981016040819052620000349162000069565b6001600160a01b039182166080521660a052620000a1565b80516001600160a01b03811681146200006457600080fd5b919050565b600080604083850312156200007d57600080fd5b62000088836200004c565b915062000098602084016200004c565b90509250929050565b60805160a0516118176200013e600039600081816102b3015281816105bc0152818161060f01528181610679015281816106f00152818161094c01528181610974015281816109eb01528181610a8d01528181610b5301528181610bed01528181610c79015281816110a1015281816110f40152818161119d015261122b0152600081816102e7015281816103ab0152610d5801526118176000f3fe6080604052600436106101095760003560e01c80639049f9d211610095578063c45a015511610064578063c45a0155146102d5578063cfd138c314610309578063e597772914610329578063f14210a614610349578063f8b2cb4f1461036957600080fd5b80639049f9d214610241578063987242e9146102615780639e281a9814610281578063ad5c4648146102a157600080fd5b8063338b5dea116100dc578063338b5dea146101ae57806338bad5e5146101ce5780635358fbda146101ee5780635a91b39c146102015780637b2af6251461022157600080fd5b80631228cbee1461010e5780631ad58a211461014b578063214ea218146101795780632247463e1461019b575b600080fd5b34801561011a57600080fd5b5061012e610129366004611630565b610389565b6040516001600160a01b0390911681526020015b60405180910390f35b34801561015757600080fd5b5061016b61016636600461164d565b61041e565b604051908152602001610142565b34801561018557600080fd5b5061019961019436600461168e565b6104a9565b005b6101996101a93660046116ba565b6105b5565b3480156101ba57600080fd5b506101996101c936600461168e565b610796565b3480156101da57600080fd5b5061016b6101e93660046116d3565b61085e565b6101996101fc3660046116ba565b610905565b34801561020d57600080fd5b5061019961021c36600461168e565b610a15565b34801561022d57600080fd5b5061019961023c3660046116ba565b610a86565b34801561024d57600080fd5b5061019961025c366004611630565b610ce7565b34801561026d57600080fd5b5061016b61027c3660046116d3565b610dc5565b34801561028d57600080fd5b5061019961029c36600461168e565b610e27565b3480156102ad57600080fd5b5061012e7f000000000000000000000000000000000000000000000000000000000000000081565b3480156102e157600080fd5b5061012e7f000000000000000000000000000000000000000000000000000000000000000081565b34801561031557600080fd5b5061016b610324366004611630565b610f48565b34801561033557600080fd5b5061016b6103443660046116d3565b610fe5565b34801561035557600080fd5b506101996103643660046116ba565b61109a565b34801561037557600080fd5b5061016b610384366004611630565b611299565b604051630572bf5f60e01b81526001600160a01b0382811660048301526000917f000000000000000000000000000000000000000000000000000000000000000090911690630572bf5f90602401602060405180830381865afa1580156103f4573d6000803e3d6000fd5b505050506040513d601f19601f82011682018060405250810190610418919061170c565b92915050565b60008061042a85610389565b604051634722a53160e01b81526001600160a01b0386811660048301526024820186905291925090821690634722a531906044015b602060405180830381865afa15801561047c573d6000803e3d6000fd5b505050506040513d601f19601f820116820180604052508101906104a09190611729565b95945050505050565b60006104b483610389565b90506001600160a01b0381166104e55760405162461bcd60e51b81526004016104dc90611742565b60405180910390fd5b60006104f18433610fe5565b9050808311156105435760405162461bcd60e51b815260206004820152601b60248201527f416d6f756e74206578636565647320726570617920616d6f756e74000000000060448201526064016104dc565b61054f84333086611304565b604051630450cfaf60e31b8152336004820152602481018490526001600160a01b038316906322867d7890604401600060405180830381600087803b15801561059757600080fd5b505af11580156105ab573d6000803e3d6000fd5b5050505050505050565b60006105e07f0000000000000000000000000000000000000000000000000000000000000000610389565b90506001600160a01b0381166106085760405162461bcd60e51b81526004016104dc90611742565b60006106347f000000000000000000000000000000000000000000000000000000000000000033610fe5565b9050803410156106775760405162461bcd60e51b815260206004820152600e60248201526d125b9d985b1a5908185b5bdd5b9d60921b60448201526064016104dc565b7f00000000000000000000000000000000000000000000000000000000000000006001600160a01b031663d0e30db0346040518263ffffffff1660e01b81526004016000604051808303818588803b1580156106d257600080fd5b505af11580156106e6573d6000803e3d6000fd5b50505050506107167f00000000000000000000000000000000000000000000000000000000000000003383611434565b604051630450cfaf60e31b8152336004820152602481018490526001600160a01b038316906322867d7890604401600060405180830381600087803b15801561075e57600080fd5b505af1158015610772573d6000803e3d6000fd5b5050505080341115610791576107913361078c833461176f565b61154f565b505050565b60006107a183610389565b90506001600160a01b0381166107c6576107ba83610ce7565b6107c383610389565b90505b6001600160a01b0381166107ec5760405162461bcd60e51b81526004016104dc90611742565b6107f883333085611304565b604051636e553f6560e01b8152600481018390523360248201526001600160a01b03821690636e553f65906044015b600060405180830381600087803b15801561084157600080fd5b505af1158015610855573d6000803e3d6000fd5b50505050505050565b60008061086a84610389565b90506001600160a01b0381166108925760405162461bcd60e51b81526004016104dc90611742565b604051638d113a7f60e01b81526001600160a01b038481166004830152821690638d113a7f906024015b602060405180830381865afa1580156108d9573d6000803e3d6000fd5b505050506040513d601f19601f820116820180604052508101906108fd9190611729565b949350505050565b3481146109455760405162461bcd60e51b815260206004820152600e60248201526d125b9d985b1a5908185b5bdd5b9d60921b60448201526064016104dc565b60006109707f0000000000000000000000000000000000000000000000000000000000000000610389565b90507f00000000000000000000000000000000000000000000000000000000000000006001600160a01b031663d0e30db0346040518263ffffffff1660e01b81526004016000604051808303818588803b1580156109cd57600080fd5b505af11580156109e1573d6000803e3d6000fd5b5050505050610a117f00000000000000000000000000000000000000000000000000000000000000008234611434565b5050565b6000610a2083610389565b90506001600160a01b038116610a485760405162461bcd60e51b81526004016104dc90611742565b610a53833384611434565b604051630967fa2960e31b8152600481018390523360248201526001600160a01b03821690634b3fd14890604401610827565b6000610ab17f0000000000000000000000000000000000000000000000000000000000000000610389565b90506001600160a01b038116610ad95760405162461bcd60e51b81526004016104dc90611742565b604051630967fa2960e31b8152600481018390523360248201526001600160a01b03821690634b3fd14890604401600060405180830381600087803b158015610b2157600080fd5b505af1158015610b35573d6000803e3d6000fd5b505060405163095ea7b360e01b8152306004820152602481018590527f00000000000000000000000000000000000000000000000000000000000000006001600160a01b0316925063095ea7b391506044016020604051808303816000875af1158015610ba6573d6000803e3d6000fd5b505050506040513d601f19601f82011682018060405250810190610bca9190611790565b506040516323b872dd60e01b8152306004820152336024820152604481018390527f00000000000000000000000000000000000000000000000000000000000000006001600160a01b0316906323b872dd906064016020604051808303816000875af1158015610c3e573d6000803e3d6000fd5b505050506040513d601f19601f82011682018060405250810190610c629190611790565b50604051632e1a7d4d60e01b8152600481018390527f00000000000000000000000000000000000000000000000000000000000000006001600160a01b031690632e1a7d4d90602401600060405180830381600087803b158015610cc557600080fd5b505af1158015610cd9573d6000803e3d6000fd5b50505050610a11338361154f565b6000610cf282610389565b90506001600160a01b03811615610d395760405162461bcd60e51b815260206004820152600b60248201526a506f6f6c2065786973747360a81b60448201526064016104dc565b604051634824fce960e11b81526001600160a01b0383811660048301527f00000000000000000000000000000000000000000000000000000000000000001690639049f9d2906024016020604051808303816000875af1158015610da1573d6000803e3d6000fd5b505050506040513d601f19601f82011682018060405250810190610791919061170c565b600080610dd184610389565b90506001600160a01b038116610df95760405162461bcd60e51b81526004016104dc90611742565b604051630e3c6d1360e11b81526001600160a01b038481166004830152821690631c78da26906024016108bc565b6000610e3283610389565b90506001600160a01b038116610e5a5760405162461bcd60e51b81526004016104dc90611742565b604051630e3c6d1360e11b81523360048201526000906001600160a01b03831690631c78da2690602401602060405180830381865afa158015610ea1573d6000803e3d6000fd5b505050506040513d601f19601f82011682018060405250810190610ec59190611729565b11610f0a5760405162461bcd60e51b81526020600482015260156024820152744e6f20616d6f756e7420746f20776974686472617760581b60448201526064016104dc565b610f15833384611434565b60405163f3fef3a360e01b8152336004820152602481018390526001600160a01b0382169063f3fef3a390604401610827565b600080610f5483610389565b90506001600160a01b038116610f7c5760405162461bcd60e51b81526004016104dc90611742565b806001600160a01b031663c02ae7546040518163ffffffff1660e01b8152600401602060405180830381865afa158015610fba573d6000803e3d6000fd5b505050506040513d601f19601f82011682018060405250810190610fde9190611729565b9392505050565b600080610ff184610389565b604051638d113a7f60e01b81526001600160a01b038581166004830152919250600091831690638d113a7f90602401602060405180830381865afa15801561103d573d6000803e3d6000fd5b505050506040513d601f19601f820116820180604052508101906110619190611729565b60405163aa1970df60e01b81526001600160a01b038681166004830152602482018390529192509083169063aa1970df9060440161045f565b60006110c57f0000000000000000000000000000000000000000000000000000000000000000610389565b90506001600160a01b0381166110ed5760405162461bcd60e51b81526004016104dc90611742565b600061111a7f0000000000000000000000000000000000000000000000000000000000000000338561041e565b60405163f3fef3a360e01b8152336004820152602481018590529091506001600160a01b0383169063f3fef3a390604401600060405180830381600087803b15801561116557600080fd5b505af1158015611179573d6000803e3d6000fd5b50506040516323b872dd60e01b8152336004820152306024820152604481018490527f00000000000000000000000000000000000000000000000000000000000000006001600160a01b031692506323b872dd91506064016020604051808303816000875af11580156111f0573d6000803e3d6000fd5b505050506040513d601f19601f820116820180604052508101906112149190611790565b50604051632e1a7d4d60e01b8152600481018290527f00000000000000000000000000000000000000000000000000000000000000006001600160a01b031690632e1a7d4d90602401600060405180830381600087803b15801561127757600080fd5b505af115801561128b573d6000803e3d6000fd5b50505050610791338461154f565b6040516370a0823160e01b81523060048201526000906001600160a01b038316906370a0823190602401602060405180830381865afa1580156112e0573d6000803e3d6000fd5b505050506040513d601f19601f820116820180604052508101906104189190611729565b604080516001600160a01b0385811660248301528481166044830152606480830185905283518084039091018152608490920183526020820180516001600160e01b03166323b872dd60e01b179052915160009283929088169161136891906117b2565b6000604051808303816000865af19150503d80600081146113a5576040519150601f19603f3d011682016040523d82523d6000602084013e6113aa565b606091505b50915091508180156113d45750805115806113d45750808060200190518101906113d49190611790565b61142c5760405162461bcd60e51b8152602060048201526024808201527f5472616e7366657248656c7065723a205452414e534645525f46524f4d5f46416044820152631253115160e21b60648201526084016104dc565b505050505050565b604080516001600160a01b038481166024830152604480830185905283518084039091018152606490920183526020820180516001600160e01b031663a9059cbb60e01b179052915160009283929087169161149091906117b2565b6000604051808303816000865af19150503d80600081146114cd576040519150601f19603f3d011682016040523d82523d6000602084013e6114d2565b606091505b50915091508180156114fc5750805115806114fc5750808060200190518101906114fc9190611790565b6115485760405162461bcd60e51b815260206004820152601f60248201527f5472616e7366657248656c7065723a205452414e534645525f4641494c45440060448201526064016104dc565b5050505050565b604080516000808252602082019092526001600160a01b03841690839060405161157991906117b2565b60006040518083038185875af1925050503d80600081146115b6576040519150601f19603f3d011682016040523d82523d6000602084013e6115bb565b606091505b50509050806107915760405162461bcd60e51b815260206004820152602360248201527f5472616e7366657248656c7065723a204554485f5452414e534645525f46414960448201526213115160ea1b60648201526084016104dc565b6001600160a01b038116811461162d57600080fd5b50565b60006020828403121561164257600080fd5b8135610fde81611618565b60008060006060848603121561166257600080fd5b833561166d81611618565b9250602084013561167d81611618565b929592945050506040919091013590565b600080604083850312156116a157600080fd5b82356116ac81611618565b946020939093013593505050565b6000602082840312156116cc57600080fd5b5035919050565b600080604083850312156116e657600080fd5b82356116f181611618565b9150602083013561170181611618565b809150509250929050565b60006020828403121561171e57600080fd5b8151610fde81611618565b60006020828403121561173b57600080fd5b5051919050565b602080825260139082015272141bdbdb08191bd95cc81b9bdd08195e1a5cdd606a1b604082015260600190565b8181038181111561041857634e487b7160e01b600052601160045260246000fd5b6000602082840312156117a257600080fd5b81518015158114610fde57600080fd5b6000825160005b818110156117d357602081860181015185830152016117b9565b50600092019182525091905056fea2646970667358221220db197e01d16b28f91ed5cf3411eafd292e6d973a2224cdcee7031cf21accbca764736f6c63430008130033",
  "linkReferences": {},
  "deployedLinkReferences": {}
}