{
  "_format": "hh-sol-artifact-1",
  "contractName": "LendingPool",
  "sourceName": "contracts/core/LendingPool.sol",
  "abi": [
    {
      "inputs": [
        {
          "internalType": "address",
          "name": "_tokenAddress",
          "type": "address"
        }
      ],
      "stateMutability": "nonpayable",
      "type": "constructor"
    },
    {
      "inputs": [],
      "name": "LendingPool__InvalidAmount",
      "type": "error"
    },
    {
      "inputs": [],
      "name": "LendingPool__InvalidUser",
      "type": "error"
    },
    {
      "inputs": [],
      "name": "LendingPool__InvalidValue",
      "type": "error"
    },
    {
      "anonymous": false,
      "inputs": [
        {
          "indexed": true,
          "internalType": "address",
          "name": "user",
          "type": "address"
        },
        {
          "indexed": false,
          "internalType": "uint256",
          "name": "amount",
          "type": "uint256"
        }
      ],
      "name": "Borrow",
      "type": "event"
    },
    {
      "anonymous": false,
      "inputs": [
        {
          "indexed": true,
          "internalType": "address",
          "name": "user",
          "type": "address"
        },
        {
          "indexed": false,
          "internalType": "uint256",
          "name": "amount",
          "type": "uint256"
        }
      ],
      "name": "Deposit",
      "type": "event"
    },
    {
      "anonymous": false,
      "inputs": [
        {
          "indexed": true,
          "internalType": "address",
          "name": "user",
          "type": "address"
        },
        {
          "indexed": false,
          "internalType": "uint256",
          "name": "amount",
          "type": "uint256"
        }
      ],
      "name": "Repay",
      "type": "event"
    },
    {
      "anonymous": false,
      "inputs": [
        {
          "indexed": true,
          "internalType": "address",
          "name": "user",
          "type": "address"
        },
        {
          "indexed": false,
          "internalType": "uint256",
          "name": "amount",
          "type": "uint256"
        }
      ],
      "name": "Withdraw",
      "type": "event"
    },
    {
      "inputs": [
        {
          "internalType": "uint256",
          "name": "_amount",
          "type": "uint256"
        },
        {
          "internalType": "address",
          "name": "_user",
          "type": "address"
        }
      ],
      "name": "borrow",
      "outputs": [],
      "stateMutability": "nonpayable",
      "type": "function"
    },
    {
      "inputs": [
        {
          "internalType": "address",
          "name": "",
          "type": "address"
        }
      ],
      "name": "borrowAmount",
      "outputs": [
        {
          "internalType": "uint256",
          "name": "amount",
          "type": "uint256"
        },
        {
          "internalType": "uint256",
          "name": "start",
          "type": "uint256"
        }
      ],
      "stateMutability": "view",
      "type": "function"
    },
    {
      "inputs": [
        {
          "internalType": "address",
          "name": "",
          "type": "address"
        }
      ],
      "name": "borrowers",
      "outputs": [
        {
          "internalType": "bool",
          "name": "",
          "type": "bool"
        }
      ],
      "stateMutability": "view",
      "type": "function"
    },
    {
      "inputs": [
        {
          "internalType": "uint256",
          "name": "_amount",
          "type": "uint256"
        },
        {
          "internalType": "address",
          "name": "_user",
          "type": "address"
        }
      ],
      "name": "deposit",
      "outputs": [],
      "stateMutability": "nonpayable",
      "type": "function"
    },
    {
      "inputs": [
        {
          "internalType": "address",
          "name": "",
          "type": "address"
        }
      ],
      "name": "earnedInterest",
      "outputs": [
        {
          "internalType": "uint256",
          "name": "",
          "type": "uint256"
        }
      ],
      "stateMutability": "view",
      "type": "function"
    },
    {
      "inputs": [],
      "name": "getBorrowRate",
      "outputs": [
        {
          "internalType": "uint256",
          "name": "",
          "type": "uint256"
        }
      ],
      "stateMutability": "view",
      "type": "function"
    },
    {
      "inputs": [
        {
          "internalType": "address",
          "name": "_user",
          "type": "address"
        }
      ],
      "name": "getBorrowers",
      "outputs": [
        {
          "internalType": "uint256",
          "name": "",
          "type": "uint256"
        }
      ],
      "stateMutability": "view",
      "type": "function"
    },
    {
      "inputs": [
        {
          "internalType": "address",
          "name": "",
          "type": "address"
        }
      ],
      "name": "lendAmount",
      "outputs": [
        {
          "internalType": "uint256",
          "name": "amount",
          "type": "uint256"
        },
        {
          "internalType": "uint256",
          "name": "start",
          "type": "uint256"
        }
      ],
      "stateMutability": "view",
      "type": "function"
    },
    {
      "inputs": [
        {
          "internalType": "address",
          "name": "",
          "type": "address"
        }
      ],
      "name": "lenders",
      "outputs": [
        {
          "internalType": "bool",
          "name": "",
          "type": "bool"
        }
      ],
      "stateMutability": "view",
      "type": "function"
    },
    {
      "inputs": [
        {
          "internalType": "address",
          "name": "_user",
          "type": "address"
        },
        {
          "internalType": "uint256",
          "name": "_liquidateAmount",
          "type": "uint256"
        }
      ],
      "name": "liquidate",
      "outputs": [],
      "stateMutability": "nonpayable",
      "type": "function"
    },
    {
      "inputs": [
        {
          "internalType": "address",
          "name": "",
          "type": "address"
        }
      ],
      "name": "paidInterest",
      "outputs": [
        {
          "internalType": "uint256",
          "name": "",
          "type": "uint256"
        }
      ],
      "stateMutability": "view",
      "type": "function"
    },
    {
      "inputs": [
        {
          "internalType": "address",
          "name": "_user",
          "type": "address"
        },
        {
          "internalType": "uint256",
          "name": "_repayAmount",
          "type": "uint256"
        }
      ],
      "name": "repay",
      "outputs": [],
      "stateMutability": "nonpayable",
      "type": "function"
    },
    {
      "inputs": [],
      "name": "token",
      "outputs": [
        {
          "internalType": "contract IERC20",
          "name": "",
          "type": "address"
        }
      ],
      "stateMutability": "view",
      "type": "function"
    },
    {
      "inputs": [],
      "name": "tokenAddress",
      "outputs": [
        {
          "internalType": "address",
          "name": "",
          "type": "address"
        }
      ],
      "stateMutability": "view",
      "type": "function"
    },
    {
      "inputs": [
        {
          "internalType": "address",
          "name": "_user",
          "type": "address"
        },
        {
          "internalType": "uint256",
          "name": "_withdrawAmount",
          "type": "uint256"
        }
      ],
      "name": "withdraw",
      "outputs": [],
      "stateMutability": "nonpayable",
      "type": "function"
    }
  ],
  "bytecode": "0x60a0604052606460035560826004553480156200001b57600080fd5b5060405162000df938038062000df98339810160408190526200003e91620000dd565b600080546001600160a01b0319166001600160a01b038316908117825560808190526040805163313ce56760e01b8152905163313ce567916004808201926020929091908290030181865afa1580156200009c573d6000803e3d6000fd5b505050506040513d601f19601f82011682018060405250810190620000c291906200010f565b9050620000d181600a6200023e565b600255506200024c9050565b600060208284031215620000f057600080fd5b81516001600160a01b03811681146200010857600080fd5b9392505050565b6000602082840312156200012257600080fd5b5051919050565b634e487b7160e01b600052601160045260246000fd5b600181815b808511156200018057816000190482111562000164576200016462000129565b808516156200017257918102915b93841c939080029062000144565b509250929050565b600082620001995750600162000238565b81620001a85750600062000238565b8160018114620001c15760028114620001cc57620001ec565b600191505062000238565b60ff841115620001e057620001e062000129565b50506001821b62000238565b5060208310610133831016604e8410600b841016171562000211575081810a62000238565b6200021d83836200013f565b806000190482111562000234576200023462000129565b0290505b92915050565b600062000108838362000188565b608051610b9162000268600039600061024c0152610b916000f3fe608060405234801561001057600080fd5b50600436106100f55760003560e01c80636e553f6511610097578063bcbaf48711610066578063bcbaf4871461028e578063bf5d50c4146102a1578063f3fef3a3146102c4578063fc0c546a146102d757600080fd5b80636e553f651461020d5780638d113a7f146102205780639d76ea5814610247578063ba1c5e801461028657600080fd5b80633c166b8e116100d35780633c166b8e146101835780634807b6cf146101b15780634b3fd148146101da5780635d948c35146101ed57600080fd5b80631c78da26146100fa57806322867d781461013b57806328fd10d714610150575b600080fd5b610121610108366004610a68565b6006602052600090815260409020805460019091015482565b604080519283526020830191909152015b60405180910390f35b61014e610149366004610a8a565b6102ea565b005b61017361015e366004610a68565b60086020526000908152604090205460ff1681565b6040519015158152602001610132565b6101a3610191366004610a68565b600b6020526000908152604090205481565b604051908152602001610132565b6101a36101bf366004610a68565b6001600160a01b03166000908152600a602052604090205490565b61014e6101e8366004610ab4565b610429565b6101a36101fb366004610a68565b60076020526000908152604090205481565b61014e61021b366004610ab4565b610524565b61012161022e366004610a68565b600a602052600090815260409020805460019091015482565b61026e7f000000000000000000000000000000000000000000000000000000000000000081565b6040516001600160a01b039091168152602001610132565b6004546101a3565b61014e61029c366004610a8a565b6105d6565b6101736102af366004610a68565b60096020526000908152604090205460ff1681565b61014e6102d2366004610a8a565b6106a8565b60005461026e906001600160a01b031681565b6001600160a01b03821660009081526009602052604090205460ff1661032357604051630d2a32b360e11b815260040160405180910390fd5b600061032f83836107da565b90508060000361035257604051633a9c46bf60e11b815260040160405180910390fd5b6001600160a01b0383166000908152600a60205260408120805483929061037a908490610af6565b90915550506001600160a01b0383166000908152600a602052604081205490036103bf576001600160a01b0383166000908152600960205260409020805460ff191690555b80600160008282546103d19190610b0f565b909155506103e0905083610891565b50826001600160a01b03167f5c16de4f8b59bd9caf0f49a545f25819a895ed223294290b408242e72a5942318360405161041c91815260200190565b60405180910390a2505050565b8160000361044a57604051633a9c46bf60e11b815260040160405180910390fd5b600a6001546104599190610b22565b8211156104795760405163de71bbd360e01b815260040160405180910390fd5b6001600160a01b0381166000908152600a602052604081208381554260019182015580548492906104ab908490610af6565b90915550506001600160a01b0381166000908152600960205260409020805460ff191660011790556104dc81610891565b50806001600160a01b03167fcbc04eca7e9da35cb1393a6135a199ca52e450d5e9251cbd99f7847d33a367508360405161051891815260200190565b60405180910390a25050565b8160000361054557604051633a9c46bf60e11b815260040160405180910390fd5b6001600160a01b03811660009081526006602090815260408083208581554260019182015560089092528220805460ff191682179055805484929061058b908490610b0f565b9091555061059a905081610912565b50806001600160a01b03167fe1fffcc4923d04b559f4d29a8bfc6cda04eb5b0d3c460751c2402c5c5cc9109c8360405161051891815260200190565b6001600160a01b03821660009081526009602052604090205460ff1661060f57604051630d2a32b360e11b815260040160405180910390fd5b6001600160a01b0382166000908152600a6020526040902054811061064757604051633a9c46bf60e11b815260040160405180910390fd5b60006064610656836003610b44565b6106609190610b22565b905061066b83610891565b506106768183610b0f565b6001600160a01b0384166000908152600a60205260408120805490919061069e908490610af6565b9091555050505050565b6001600160a01b03821660009081526008602052604090205460ff166106e157604051630d2a32b360e11b815260040160405180910390fd5b60006106ed8383610993565b90508060000361071057604051633a9c46bf60e11b815260040160405180910390fd5b6001600160a01b03831660009081526006602052604081208054839290610738908490610af6565b90915550506001600160a01b038316600090815260066020526040812054900361077d576001600160a01b0383166000908152600860205260409020805460ff191690555b806001600082825461078f9190610af6565b9091555061079e905083610912565b50826001600160a01b03167f884edad9ce6fa2440d8a54cc123490eb96d2768479d49ff9c7366125a94243648360405161041c91815260200190565b6001600160a01b0382166000908152600a6020526040812080548311156108395760405162461bcd60e51b815260206004820152600e60248201526d125b9d985b1a5908185b5bdd5b9d60921b60448201526064015b60405180910390fd5b60006001546002546004548460010154426108549190610af6565b61085e9190610b44565b6108689190610b22565b6108729086610b44565b61087c9190610b22565b90506108888185610b0f565b95945050505050565b6001600160a01b0381166000908152600a602052604081206001805460025460045492840154919290916108c59042610af6565b6108cf9190610b44565b6108d99190610b44565b82546108e59190610b44565b6108ef9190610b22565b6001600160a01b039093166000908152600b602052604090208390555090919050565b6001600160a01b03811660009081526006602052604081206001805460025460035492840154919290916109469042610af6565b6109509190610b44565b61095a9190610b44565b82546109669190610b44565b6109709190610b22565b6001600160a01b0390931660009081526007602052604090208390555090919050565b6001600160a01b038216600090815260066020526040812080548311156109ed5760405162461bcd60e51b815260206004820152600e60248201526d125b9d985b1a5908185b5bdd5b9d60921b6044820152606401610830565b60008160010154426109ff9190610af6565b905060006001546002546003548488610a189190610b44565b610a229190610b44565b610a2c9190610b44565b610a369190610b22565b9050610a428186610b0f565b9695505050505050565b80356001600160a01b0381168114610a6357600080fd5b919050565b600060208284031215610a7a57600080fd5b610a8382610a4c565b9392505050565b60008060408385031215610a9d57600080fd5b610aa683610a4c565b946020939093013593505050565b60008060408385031215610ac757600080fd5b82359150610ad760208401610a4c565b90509250929050565b634e487b7160e01b600052601160045260246000fd5b81810381811115610b0957610b09610ae0565b92915050565b80820180821115610b0957610b09610ae0565b600082610b3f57634e487b7160e01b600052601260045260246000fd5b500490565b8082028115828204841417610b0957610b09610ae056fea264697066735822122030e781ecdb565691b406bbf63c8891152670fa4bce6fc18fd29f0af6b0e5222c64736f6c63430008130033",
  "linkReferences": {},
  "deployedLinkReferences": {}
}