{
  "_format": "hh-sol-artifact-1",
  "contractName": "LendingPoolRouter",
  "sourceName": "contracts/router/LendingPoolRouter.sol",
  "abi": [
    {
      "inputs": [
        {
          "internalType": "address",
          "name": "_factory",
          "type": "address"
        },
        {
          "internalType": "address",
          "name": "_WETH",
          "type": "address"
        }
      ],
      "stateMutability": "nonpayable",
      "type": "constructor"
    },
    {
      "inputs": [],
      "name": "WETH",
      "outputs": [
        {
          "internalType": "address",
          "name": "",
          "type": "address"
        }
      ],
      "stateMutability": "view",
      "type": "function"
    },
    {
      "inputs": [
        {
          "internalType": "uint256",
          "name": "_amount",
          "type": "uint256"
        }
      ],
      "name": "borrowETH",
      "outputs": [],
      "stateMutability": "nonpayable",
      "type": "function"
    },
    {
      "inputs": [
        {
          "internalType": "address",
          "name": "_token",
          "type": "address"
        },
        {
          "internalType": "uint256",
          "name": "_amount",
          "type": "uint256"
        }
      ],
      "name": "borrowToken",
      "outputs": [],
      "stateMutability": "nonpayable",
      "type": "function"
    },
    {
      "inputs": [
        {
          "internalType": "address",
          "name": "_token",
          "type": "address"
        }
      ],
      "name": "createPool",
      "outputs": [],
      "stateMutability": "nonpayable",
      "type": "function"
    },
    {
      "inputs": [
        {
          "internalType": "uint256",
          "name": "_amount",
          "type": "uint256"
        }
      ],
      "name": "depositETH",
      "outputs": [],
      "stateMutability": "payable",
      "type": "function"
    },
    {
      "inputs": [
        {
          "internalType": "address",
          "name": "_token",
          "type": "address"
        },
        {
          "internalType": "uint256",
          "name": "_amount",
          "type": "uint256"
        }
      ],
      "name": "depositToken",
      "outputs": [],
      "stateMutability": "nonpayable",
      "type": "function"
    },
    {
      "inputs": [],
      "name": "factory",
      "outputs": [
        {
          "internalType": "address",
          "name": "",
          "type": "address"
        }
      ],
      "stateMutability": "view",
      "type": "function"
    },
    {
      "inputs": [
        {
          "internalType": "address",
          "name": "_token",
          "type": "address"
        }
      ],
      "name": "getBalance",
      "outputs": [
        {
          "internalType": "uint256",
          "name": "balance",
          "type": "uint256"
        }
      ],
      "stateMutability": "view",
      "type": "function"
    },
    {
      "inputs": [
        {
          "internalType": "address",
          "name": "_token",
          "type": "address"
        },
        {
          "internalType": "address",
          "name": "_user",
          "type": "address"
        }
      ],
      "name": "getBorrowAmount",
      "outputs": [
        {
          "internalType": "uint256",
          "name": "amount",
          "type": "uint256"
        }
      ],
      "stateMutability": "view",
      "type": "function"
    },
    {
      "inputs": [
        {
          "internalType": "address",
          "name": "_token",
          "type": "address"
        },
        {
          "internalType": "address",
          "name": "_user",
          "type": "address"
        }
      ],
      "name": "getLendAmount",
      "outputs": [
        {
          "internalType": "uint256",
          "name": "amount",
          "type": "uint256"
        }
      ],
      "stateMutability": "view",
      "type": "function"
    },
    {
      "inputs": [
        {
          "internalType": "address",
          "name": "_token",
          "type": "address"
        }
      ],
      "name": "getPoolAddress",
      "outputs": [
        {
          "internalType": "address",
          "name": "pool",
          "type": "address"
        }
      ],
      "stateMutability": "view",
      "type": "function"
    },
    {
      "inputs": [
        {
          "internalType": "address",
          "name": "_token",
          "type": "address"
        },
        {
          "internalType": "address",
          "name": "_user",
          "type": "address"
        },
        {
          "internalType": "uint256",
          "name": "_repayAmount",
          "type": "uint256"
        }
      ],
      "name": "getRepayAmount",
      "outputs": [
        {
          "internalType": "uint256",
          "name": "amount",
          "type": "uint256"
        }
      ],
      "stateMutability": "view",
      "type": "function"
    },
    {
      "inputs": [
        {
          "internalType": "address",
          "name": "_token",
          "type": "address"
        }
      ],
      "name": "getTotalLendAmount",
      "outputs": [
        {
          "internalType": "uint256",
          "name": "amount",
          "type": "uint256"
        }
      ],
      "stateMutability": "view",
      "type": "function"
    },
    {
      "inputs": [
        {
          "internalType": "uint256",
          "name": "_amount",
          "type": "uint256"
        }
      ],
      "name": "repayETH",
      "outputs": [],
      "stateMutability": "payable",
      "type": "function"
    },
    {
      "inputs": [
        {
          "internalType": "address",
          "name": "_token",
          "type": "address"
        },
        {
          "internalType": "uint256",
          "name": "_amount",
          "type": "uint256"
        }
      ],
      "name": "repayToken",
      "outputs": [],
      "stateMutability": "nonpayable",
      "type": "function"
    },
    {
      "inputs": [
        {
          "internalType": "uint256",
          "name": "_amount",
          "type": "uint256"
        }
      ],
      "name": "withdrawETH",
      "outputs": [],
      "stateMutability": "nonpayable",
      "type": "function"
    },
    {
      "inputs": [
        {
          "internalType": "address",
          "name": "_token",
          "type": "address"
        },
        {
          "internalType": "uint256",
          "name": "_amount",
          "type": "uint256"
        }
      ],
      "name": "withdrawToken",
      "outputs": [],
      "stateMutability": "nonpayable",
      "type": "function"
    }
  ],
  "bytecode": "0x60c060405234801561001057600080fd5b5060405161169538038061169583398101604081905261002f91610062565b6001600160a01b039182166080521660a052610095565b80516001600160a01b038116811461005d57600080fd5b919050565b6000806040838503121561007557600080fd5b61007e83610046565b915061008c60208401610046565b90509250929050565b60805160a05161157961011c600039600081816102a8015281816104dd0152818161052b015281816105a2015281816108540152818161087c015281816108f30152818161099101528181610a5701528181610af101528181610b7e01528181610ef60152610fc20152600081816102dc015281816103800152610c5d01526115796000f3fe6080604052600436106100fe5760003560e01c80637b2af62511610095578063ad5c464811610064578063ad5c464814610296578063c45a0155146102ca578063cfd138c3146102fe578063f14210a61461031e578063f8b2cb4f1461033e57600080fd5b80637b2af625146102165780639049f9d214610236578063987242e9146102565780639e281a981461027657600080fd5b8063338b5dea116100d1578063338b5dea146101a357806338bad5e5146101c35780635358fbda146101e35780635a91b39c146101f657600080fd5b80631228cbee14610103578063214ea218146101405780632247463e146101625780632553c96b14610175575b600080fd5b34801561010f57600080fd5b5061012361011e366004611392565b61035e565b6040516001600160a01b0390911681526020015b60405180910390f35b34801561014c57600080fd5b5061016061015b3660046113af565b6103f3565b005b6101606101703660046113db565b6104d6565b34801561018157600080fd5b506101956101903660046113f4565b610647565b604051908152602001610137565b3480156101af57600080fd5b506101606101be3660046113af565b6106d1565b3480156101cf57600080fd5b506101956101de366004611435565b610766565b6101606101f13660046113db565b61080d565b34801561020257600080fd5b506101606102113660046113af565b610919565b34801561022257600080fd5b506101606102313660046113db565b61098a565b34801561024257600080fd5b50610160610251366004611392565b610bec565b34801561026257600080fd5b50610195610271366004611435565b610ccf565b34801561028257600080fd5b506101606102913660046113af565b610d31565b3480156102a257600080fd5b506101237f000000000000000000000000000000000000000000000000000000000000000081565b3480156102d657600080fd5b506101237f000000000000000000000000000000000000000000000000000000000000000081565b34801561030a57600080fd5b50610195610319366004611392565b610e52565b34801561032a57600080fd5b506101606103393660046113db565b610eef565b34801561034a57600080fd5b50610195610359366004611392565b610ffb565b604051630572bf5f60e01b81526001600160a01b0382811660048301526000917f000000000000000000000000000000000000000000000000000000000000000090911690630572bf5f90602401602060405180830381865afa1580156103c9573d6000803e3d6000fd5b505050506040513d601f19601f820116820180604052508101906103ed919061146e565b92915050565b60006103fe8361035e565b90506001600160a01b03811661042f5760405162461bcd60e51b81526004016104269061148b565b60405180910390fd5b600082116104705760405162461bcd60e51b815260206004820152600e60248201526d125b9d985b1a5908105b5bdd5b9d60921b6044820152606401610426565b604051630450cfaf60e31b8152336004820152602481018390526001600160a01b038216906322867d78906044015b600060405180830381600087803b1580156104b957600080fd5b505af11580156104cd573d6000803e3d6000fd5b50505050505050565b60006105017f000000000000000000000000000000000000000000000000000000000000000061035e565b90506001600160a01b0381166105295760405162461bcd60e51b81526004016104269061148b565b7f00000000000000000000000000000000000000000000000000000000000000006001600160a01b031663d0e30db0346040518263ffffffff1660e01b81526004016000604051808303818588803b15801561058457600080fd5b505af1158015610598573d6000803e3d6000fd5b50505050506105c87f00000000000000000000000000000000000000000000000000000000000000003384611066565b604051630450cfaf60e31b8152336004820152602481018390526001600160a01b038216906322867d7890604401600060405180830381600087803b15801561061057600080fd5b505af1158015610624573d6000803e3d6000fd5b5050505081341115610643576106433361063e84346114b8565b611181565b5050565b6000806106538561035e565b60405163aa1970df60e01b81526001600160a01b038681166004830152602482018690529192509082169063aa1970df90604401602060405180830381865afa1580156106a4573d6000803e3d6000fd5b505050506040513d601f19601f820116820180604052508101906106c891906114d9565b95945050505050565b60006106dc8361035e565b90506001600160a01b038116610701576106f583610bec565b6106fe8361035e565b90505b6001600160a01b0381166107275760405162461bcd60e51b81526004016104269061148b565b6107338333308561124a565b604051636e553f6560e01b8152600481018390523360248201526001600160a01b03821690636e553f659060440161049f565b6000806107728461035e565b90506001600160a01b03811661079a5760405162461bcd60e51b81526004016104269061148b565b604051638d113a7f60e01b81526001600160a01b038481166004830152821690638d113a7f906024015b602060405180830381865afa1580156107e1573d6000803e3d6000fd5b505050506040513d601f19601f8201168201806040525081019061080591906114d9565b949350505050565b34811461084d5760405162461bcd60e51b815260206004820152600e60248201526d125b9d985b1a5908185b5bdd5b9d60921b6044820152606401610426565b60006108787f000000000000000000000000000000000000000000000000000000000000000061035e565b90507f00000000000000000000000000000000000000000000000000000000000000006001600160a01b031663d0e30db0346040518263ffffffff1660e01b81526004016000604051808303818588803b1580156108d557600080fd5b505af11580156108e9573d6000803e3d6000fd5b50505050506106437f00000000000000000000000000000000000000000000000000000000000000008234611066565b60006109248361035e565b90506001600160a01b03811661094c5760405162461bcd60e51b81526004016104269061148b565b610957833384611066565b604051630967fa2960e31b8152600481018390523360248201526001600160a01b03821690634b3fd1489060440161049f565b60006109b57f000000000000000000000000000000000000000000000000000000000000000061035e565b90506001600160a01b0381166109dd5760405162461bcd60e51b81526004016104269061148b565b604051630967fa2960e31b8152600481018390523360248201526001600160a01b03821690634b3fd14890604401600060405180830381600087803b158015610a2557600080fd5b505af1158015610a39573d6000803e3d6000fd5b505060405163095ea7b360e01b8152306004820152602481018590527f00000000000000000000000000000000000000000000000000000000000000006001600160a01b0316925063095ea7b391506044016020604051808303816000875af1158015610aaa573d6000803e3d6000fd5b505050506040513d601f19601f82011682018060405250810190610ace91906114f2565b506040516323b872dd60e01b8152306004820152336024820152604481018390527f00000000000000000000000000000000000000000000000000000000000000006001600160a01b0316906323b872dd906064015b6020604051808303816000875af1158015610b43573d6000803e3d6000fd5b505050506040513d601f19601f82011682018060405250810190610b6791906114f2565b50604051632e1a7d4d60e01b8152600481018390527f00000000000000000000000000000000000000000000000000000000000000006001600160a01b031690632e1a7d4d90602401600060405180830381600087803b158015610bca57600080fd5b505af1158015610bde573d6000803e3d6000fd5b505050506106433383611181565b6000610bf78261035e565b90506001600160a01b03811615610c3e5760405162461bcd60e51b815260206004820152600b60248201526a506f6f6c2065786973747360a81b6044820152606401610426565b604051634824fce960e11b81526001600160a01b0383811660048301527f00000000000000000000000000000000000000000000000000000000000000001690639049f9d2906024016020604051808303816000875af1158015610ca6573d6000803e3d6000fd5b505050506040513d601f19601f82011682018060405250810190610cca919061146e565b505050565b600080610cdb8461035e565b90506001600160a01b038116610d035760405162461bcd60e51b81526004016104269061148b565b604051630e3c6d1360e11b81526001600160a01b038481166004830152821690631c78da26906024016107c4565b6000610d3c8361035e565b90506001600160a01b038116610d645760405162461bcd60e51b81526004016104269061148b565b604051630e3c6d1360e11b81523360048201526000906001600160a01b03831690631c78da2690602401602060405180830381865afa158015610dab573d6000803e3d6000fd5b505050506040513d601f19601f82011682018060405250810190610dcf91906114d9565b11610e145760405162461bcd60e51b81526020600482015260156024820152744e6f20616d6f756e7420746f20776974686472617760581b6044820152606401610426565b610e1f833384611066565b60405163f3fef3a360e01b8152336004820152602481018390526001600160a01b0382169063f3fef3a39060440161049f565b600080610e5e8361035e565b90506001600160a01b038116610e865760405162461bcd60e51b81526004016104269061148b565b806001600160a01b031663c02ae7546040518163ffffffff1660e01b8152600401602060405180830381865afa158015610ec4573d6000803e3d6000fd5b505050506040513d601f19601f82011682018060405250810190610ee891906114d9565b9392505050565b6000610f1a7f000000000000000000000000000000000000000000000000000000000000000061035e565b90506001600160a01b038116610f425760405162461bcd60e51b81526004016104269061148b565b60405163f3fef3a360e01b8152336004820152602481018390526001600160a01b0382169063f3fef3a390604401600060405180830381600087803b158015610f8a57600080fd5b505af1158015610f9e573d6000803e3d6000fd5b50506040516323b872dd60e01b8152336004820152306024820152604481018590527f00000000000000000000000000000000000000000000000000000000000000006001600160a01b031692506323b872dd9150606401610b24565b6040516370a0823160e01b81523060048201526000906001600160a01b038316906370a0823190602401602060405180830381865afa158015611042573d6000803e3d6000fd5b505050506040513d601f19601f820116820180604052508101906103ed91906114d9565b604080516001600160a01b038481166024830152604480830185905283518084039091018152606490920183526020820180516001600160e01b031663a9059cbb60e01b17905291516000928392908716916110c29190611514565b6000604051808303816000865af19150503d80600081146110ff576040519150601f19603f3d011682016040523d82523d6000602084013e611104565b606091505b509150915081801561112e57508051158061112e57508080602001905181019061112e91906114f2565b61117a5760405162461bcd60e51b815260206004820152601f60248201527f5472616e7366657248656c7065723a205452414e534645525f4641494c4544006044820152606401610426565b5050505050565b604080516000808252602082019092526001600160a01b0384169083906040516111ab9190611514565b60006040518083038185875af1925050503d80600081146111e8576040519150601f19603f3d011682016040523d82523d6000602084013e6111ed565b606091505b5050905080610cca5760405162461bcd60e51b815260206004820152602360248201527f5472616e7366657248656c7065723a204554485f5452414e534645525f46414960448201526213115160ea1b6064820152608401610426565b604080516001600160a01b0385811660248301528481166044830152606480830185905283518084039091018152608490920183526020820180516001600160e01b03166323b872dd60e01b17905291516000928392908816916112ae9190611514565b6000604051808303816000865af19150503d80600081146112eb576040519150601f19603f3d011682016040523d82523d6000602084013e6112f0565b606091505b509150915081801561131a57508051158061131a57508080602001905181019061131a91906114f2565b6113725760405162461bcd60e51b8152602060048201526024808201527f5472616e7366657248656c7065723a205452414e534645525f46524f4d5f46416044820152631253115160e21b6064820152608401610426565b505050505050565b6001600160a01b038116811461138f57600080fd5b50565b6000602082840312156113a457600080fd5b8135610ee88161137a565b600080604083850312156113c257600080fd5b82356113cd8161137a565b946020939093013593505050565b6000602082840312156113ed57600080fd5b5035919050565b60008060006060848603121561140957600080fd5b83356114148161137a565b925060208401356114248161137a565b929592945050506040919091013590565b6000806040838503121561144857600080fd5b82356114538161137a565b915060208301356114638161137a565b809150509250929050565b60006020828403121561148057600080fd5b8151610ee88161137a565b602080825260139082015272141bdbdb08191bd95cc81b9bdd08195e1a5cdd606a1b604082015260600190565b818103818111156103ed57634e487b7160e01b600052601160045260246000fd5b6000602082840312156114eb57600080fd5b5051919050565b60006020828403121561150457600080fd5b81518015158114610ee857600080fd5b6000825160005b81811015611535576020818601810151858301520161151b565b50600092019182525091905056fea2646970667358221220a095fd6dda6297164e1d170c6c18bc99889b5e4bf0907349ec4fe8031aef13f664736f6c63430008130033",
  "linkReferences": {},
  "deployedLinkReferences": {}
}