{
  "_format": "hh-sol-artifact-1",
  "contractName": "LendingPoolFactory",
  "sourceName": "contracts/factory/LendingPoolFactory.sol",
  "abi": [
    {
      "inputs": [
        {
          "internalType": "address",
          "name": "_feeToSetter",
          "type": "address"
        }
      ],
      "stateMutability": "nonpayable",
      "type": "constructor"
    },
    {
      "anonymous": false,
      "inputs": [
        {
          "indexed": true,
          "internalType": "address",
          "name": "sender",
          "type": "address"
        },
        {
          "indexed": true,
          "internalType": "address",
          "name": "pool",
          "type": "address"
        },
        {
          "indexed": false,
          "internalType": "uint256",
          "name": "timestamp",
          "type": "uint256"
        }
      ],
      "name": "LendingPoolCreated",
      "type": "event"
    },
    {
      "inputs": [
        {
          "internalType": "uint256",
          "name": "",
          "type": "uint256"
        }
      ],
      "name": "allLendingPools",
      "outputs": [
        {
          "internalType": "address",
          "name": "",
          "type": "address"
        }
      ],
      "stateMutability": "view",
      "type": "function"
    },
    {
      "inputs": [],
      "name": "allPoolsLength",
      "outputs": [
        {
          "internalType": "uint256",
          "name": "",
          "type": "uint256"
        }
      ],
      "stateMutability": "view",
      "type": "function"
    },
    {
      "inputs": [
        {
          "internalType": "address",
          "name": "_token",
          "type": "address"
        }
      ],
      "name": "createPool",
      "outputs": [
        {
          "internalType": "address",
          "name": "",
          "type": "address"
        }
      ],
      "stateMutability": "nonpayable",
      "type": "function"
    },
    {
      "inputs": [],
      "name": "feeProvider",
      "outputs": [
        {
          "internalType": "address",
          "name": "",
          "type": "address"
        }
      ],
      "stateMutability": "view",
      "type": "function"
    },
    {
      "inputs": [],
      "name": "feeToSetter",
      "outputs": [
        {
          "internalType": "address",
          "name": "",
          "type": "address"
        }
      ],
      "stateMutability": "view",
      "type": "function"
    },
    {
      "inputs": [
        {
          "internalType": "address",
          "name": "",
          "type": "address"
        }
      ],
      "name": "getLendingPool",
      "outputs": [
        {
          "internalType": "address",
          "name": "",
          "type": "address"
        }
      ],
      "stateMutability": "view",
      "type": "function"
    },
    {
      "inputs": [
        {
          "internalType": "address",
          "name": "_feeTo",
          "type": "address"
        }
      ],
      "name": "setFeeTo",
      "outputs": [],
      "stateMutability": "nonpayable",
      "type": "function"
    },
    {
      "inputs": [
        {
          "internalType": "address",
          "name": "_feeToSetter",
          "type": "address"
        }
      ],
      "name": "setFeeToSetter",
      "outputs": [],
      "stateMutability": "nonpayable",
      "type": "function"
    }
  ],
  "bytecode": "0x608060405234801561001057600080fd5b506040516121ed3803806121ed83398101604081905261002f91610054565b600180546001600160a01b0319166001600160a01b0392909216919091179055610084565b60006020828403121561006657600080fd5b81516001600160a01b038116811461007d57600080fd5b9392505050565b61215a806100936000396000f3fe608060405234801561001057600080fd5b50600436106100885760003560e01c8063a2e74af61161005b578063a2e74af61461010c578063d407112714610121578063efde4e6414610134578063f46901ed1461010c57600080fd5b80630572bf5f1461008d578063094b7415146100d35780634066fdea146100e65780639049f9d2146100f9575b600080fd5b6100b661009b366004610385565b6002602052600090815260409020546001600160a01b031681565b6040516001600160a01b0390911681526020015b60405180910390f35b6001546100b6906001600160a01b031681565b6000546100b6906001600160a01b031681565b6100b6610107366004610385565b610145565b61011f61011a366004610385565b6102e3565b005b6100b661012f3660046103b5565b61034e565b6003546040519081526020016100ca565b60006001600160a01b03821661019a5760405162461bcd60e51b8152602060048201526015602482015274494e56414c49445f544f4b454e5f4144445245535360581b60448201526064015b60405180910390fd5b6001600160a01b0382811660009081526002602052604090205416156101f85760405162461bcd60e51b81526020600482015260136024820152724c454e44494e475f504f4f4c5f45584953545360681b6044820152606401610191565b60008260405161020790610378565b6001600160a01b039091168152602001604051809103906000f080158015610233573d6000803e3d6000fd5b506001600160a01b0380851660009081526002602052604080822080549385166001600160a01b031994851681179091556003805460018101825593527fc2575a0e9e593c00f959f8c92f12db2869c3395a3b0502d05e2516446f71f85b9092018054909316821790925590519192509033907ffa0771b903554f55f80386cd118e3f0d5ed0330068933b9382f0b7d4a3bf35d3906102d59042815260200190565b60405180910390a392915050565b6001546001600160a01b0316331461032c5760405162461bcd60e51b815260206004820152600c60248201526b15539055551213d49256915160a21b6044820152606401610191565b600180546001600160a01b0319166001600160a01b0392909216919091179055565b6003818154811061035e57600080fd5b6000918252602090912001546001600160a01b0316905081565b611d56806103cf83390190565b60006020828403121561039757600080fd5b81356001600160a01b03811681146103ae57600080fd5b9392505050565b6000602082840312156103c757600080fd5b503591905056fe60c0604052606460075560826008553480156200001b57600080fd5b5060405162001d5638038062001d568339810160408190526200003e9162000132565b604051806040016040528060068152602001652c2a37b5b2b760d11b81525060405180604001604052806002815260200161161560f21b815250816003908162000089919062000209565b50600462000098828262000209565b5050506001600160a01b038116608081905260a08190526040805163313ce56760e01b815290516000929163313ce5679160048083019260209291908290030181865afa158015620000ee573d6000803e3d6000fd5b505050506040513d601f19601f82011682018060405250810190620001149190620002d5565b60ff1690506200012681600a6200040f565b600655506200041d9050565b6000602082840312156200014557600080fd5b81516001600160a01b03811681146200015d57600080fd5b9392505050565b634e487b7160e01b600052604160045260246000fd5b600181811c908216806200018f57607f821691505b602082108103620001b057634e487b7160e01b600052602260045260246000fd5b50919050565b601f8211156200020457600081815260208120601f850160051c81016020861015620001df5750805b601f850160051c820191505b818110156200020057828155600101620001eb565b5050505b505050565b81516001600160401b0381111562000225576200022562000164565b6200023d816200023684546200017a565b84620001b6565b602080601f8311600181146200027557600084156200025c5750858301515b600019600386901b1c1916600185901b17855562000200565b600085815260208120601f198616915b82811015620002a65788860151825594840194600190910190840162000285565b5085821015620002c55787850151600019600388901b60f8161c191681555b5050505050600190811b01905550565b600060208284031215620002e857600080fd5b815160ff811681146200015d57600080fd5b634e487b7160e01b600052601160045260246000fd5b600181815b8085111562000351578160001904821115620003355762000335620002fa565b808516156200034357918102915b93841c939080029062000315565b509250929050565b6000826200036a5750600162000409565b81620003795750600062000409565b81600181146200039257600281146200039d57620003bd565b600191505062000409565b60ff841115620003b157620003b1620002fa565b50506001821b62000409565b5060208310610133831016604e8410600b8410161715620003e2575081810a62000409565b620003ee838362000310565b8060001904821115620004055762000405620002fa565b0290505b92915050565b60006200015d838362000359565b60805160a0516118e2620004746000396000610253015260008181610447015281816106810152818161070b0152818161084201528181610a8901528181610b3801528181610c0c0152610dc901526118e26000f3fe608060405234801561001057600080fd5b506004361061012c5760003560e01c806370a08231116100ad578063ba1c5e8011610071578063ba1c5e80146102b3578063bcbaf487146102bb578063d058fb8a146102ce578063dd62ed3e146102e1578063f3fef3a3146102f457600080fd5b806370a082311461021d57806395d89b41146102465780639d76ea581461024e578063a457c2d71461028d578063a9059cbb146102a057600080fd5b8063313ce567116100f4578063313ce567146101ac57806339509351146101bb5780634807b6cf146101ce5780634b3fd148146101f75780636e553f651461020a57600080fd5b806306fdde0314610131578063095ea7b31461014f57806318160ddd1461017257806322867d781461018457806323b872dd14610199575b600080fd5b610139610307565b604051610146919061167a565b60405180910390f35b61016261015d3660046116e4565b610399565b6040519015158152602001610146565b6002545b604051908152602001610146565b6101976101923660046116e4565b6103b3565b005b6101626101a736600461170e565b61058c565b60405160128152602001610146565b6101626101c93660046116e4565b6105b0565b6101766101dc36600461174a565b6001600160a01b03166000908152600e602052604090205490565b61019761020536600461176c565b6105d2565b61019761021836600461176c565b6107f5565b61017661022b36600461174a565b6001600160a01b031660009081526020819052604090205490565b61013961094f565b6102757f000000000000000000000000000000000000000000000000000000000000000081565b6040516001600160a01b039091168152602001610146565b61016261029b3660046116e4565b61095e565b6101626102ae3660046116e4565b6109de565b600854610176565b6101976102c93660046116e4565b6109ec565b6101766102dc36600461174a565b610bea565b6101766102ef366004611798565b610c79565b6101976103023660046116e4565b610ca4565b606060038054610316906117c2565b80601f0160208091040260200160405190810160405280929190818152602001828054610342906117c2565b801561038f5780601f106103645761010080835404028352916020019161038f565b820191906000526020600020905b81548152906001019060200180831161037257829003601f168201915b5050505050905090565b6000336103a7818585610e7c565b60019150505b92915050565b6001600160a01b0382166000908152600d602052604090205460ff166103ec57604051630d2a32b360e11b815260040160405180910390fd5b60006103f88383610fa1565b90508060000361041b57604051633a9c46bf60e11b815260040160405180910390fd5b6040516323b872dd60e01b81526001600160a01b038481166004830152306024830152604482018390527f000000000000000000000000000000000000000000000000000000000000000016906323b872dd906064016020604051808303816000875af1158015610490573d6000803e3d6000fd5b505050506040513d601f19601f820116820180604052508101906104b491906117fc565b506001600160a01b0383166000908152600e6020526040812080548492906104dd908490611834565b90915550506001600160a01b0383166000908152600e60205260408120549003610522576001600160a01b0383166000908152600d60205260409020805460ff191690555b81600560008282546105349190611847565b90915550610543905083611053565b50826001600160a01b03167f5c16de4f8b59bd9caf0f49a545f25819a895ed223294290b408242e72a5942318360405161057f91815260200190565b60405180910390a2505050565b60003361059a8582856110d0565b6105a585858561114a565b506001949350505050565b6000336103a78185856105c38383610c79565b6105cd9190611847565b610e7c565b816000036105f357604051633a9c46bf60e11b815260040160405180910390fd5b600a600554610602919061185a565b8211156106225760405163de71bbd360e01b815260040160405180910390fd5b6001600160a01b0381166000908152600e602052604081208381554260019091015560058054849290610656908490611834565b909155505060405163a9059cbb60e01b81526001600160a01b038281166004830152602482018490527f0000000000000000000000000000000000000000000000000000000000000000169063a9059cbb906044016020604051808303816000875af11580156106ca573d6000803e3d6000fd5b505050506040513d601f19601f820116820180604052508101906106ee91906117fc565b5060405163095ea7b360e01b8152306004820152602481018390527f00000000000000000000000000000000000000000000000000000000000000006001600160a01b03169063095ea7b3906044016020604051808303816000875af115801561075c573d6000803e3d6000fd5b505050506040513d601f19601f8201168201806040525081019061078091906117fc565b506001600160a01b0381166000908152600d60205260409020805460ff191660011790556107ad81611053565b50806001600160a01b03167fcbc04eca7e9da35cb1393a6135a199ca52e450d5e9251cbd99f7847d33a36750836040516107e991815260200190565b60405180910390a25050565b8160000361081657604051633a9c46bf60e11b815260040160405180910390fd5b6040516323b872dd60e01b81526001600160a01b038281166004830152306024830152604482018490527f000000000000000000000000000000000000000000000000000000000000000016906323b872dd906064016020604051808303816000875af115801561088b573d6000803e3d6000fd5b505050506040513d601f19601f820116820180604052508101906108af91906117fc565b506001600160a01b0381166000908152600a6020908152604080832085815542600191820155600c909252909120805460ff191690911790556108f281836112ee565b81600560008282546109049190611847565b909155506109139050816113ad565b50806001600160a01b03167fe1fffcc4923d04b559f4d29a8bfc6cda04eb5b0d3c460751c2402c5c5cc9109c836040516107e991815260200190565b606060048054610316906117c2565b6000338161096c8286610c79565b9050838110156109d15760405162461bcd60e51b815260206004820152602560248201527f45524332303a2064656372656173656420616c6c6f77616e63652062656c6f77604482015264207a65726f60d81b60648201526084015b60405180910390fd5b6105a58286868403610e7c565b6000336103a781858561114a565b6001600160a01b0382166000908152600d602052604090205460ff16610a2557604051630d2a32b360e11b815260040160405180910390fd5b6001600160a01b0382166000908152600e60205260409020548110610a5d57604051633a9c46bf60e11b815260040160405180910390fd5b6040516323b872dd60e01b81526001600160a01b038381166004830152306024830152604482018390527f000000000000000000000000000000000000000000000000000000000000000016906323b872dd906064016020604051808303816000875af1158015610ad2573d6000803e3d6000fd5b505050506040513d601f19601f82011682018060405250810190610af691906117fc565b5060006064610b0683600361187c565b610b10919061185a565b9050610b1b83611053565b5060405163a9059cbb60e01b8152336004820152602481018290527f00000000000000000000000000000000000000000000000000000000000000006001600160a01b03169063a9059cbb906044016020604051808303816000875af1158015610b89573d6000803e3d6000fd5b505050506040513d601f19601f82011682018060405250810190610bad91906117fc565b50610bb88183611847565b6001600160a01b0384166000908152600e602052604081208054909190610be0908490611834565b9091555050505050565b6040516370a0823160e01b81526001600160a01b0382811660048301526000917f0000000000000000000000000000000000000000000000000000000000000000909116906370a0823190602401602060405180830381865afa158015610c55573d6000803e3d6000fd5b505050506040513d601f19601f820116820180604052508101906103ad9190611893565b6001600160a01b03918216600090815260016020908152604080832093909416825291909152205490565b6001600160a01b0382166000908152600c602052604090205460ff16610cdd57604051630d2a32b360e11b815260040160405180910390fd5b6000610ce9838361142a565b9050610cf4816114e3565b80600003610d1557604051633a9c46bf60e11b815260040160405180910390fd5b6001600160a01b0383166000908152600a602052604081208054839290610d3d908490611834565b90915550506001600160a01b0383166000908152600a60205260408120549003610d82576001600160a01b0383166000908152600c60205260409020805460ff191690555b610d8c838261152b565b8160056000828254610d9e9190611834565b909155505060405163a9059cbb60e01b81526001600160a01b038481166004830152602482018490527f0000000000000000000000000000000000000000000000000000000000000000169063a9059cbb906044016020604051808303816000875af1158015610e12573d6000803e3d6000fd5b505050506040513d601f19601f82011682018060405250810190610e3691906117fc565b50610e40836113ad565b50826001600160a01b03167f884edad9ce6fa2440d8a54cc123490eb96d2768479d49ff9c7366125a94243648360405161057f91815260200190565b6001600160a01b038316610ede5760405162461bcd60e51b8152602060048201526024808201527f45524332303a20617070726f76652066726f6d20746865207a65726f206164646044820152637265737360e01b60648201526084016109c8565b6001600160a01b038216610f3f5760405162461bcd60e51b815260206004820152602260248201527f45524332303a20617070726f766520746f20746865207a65726f206164647265604482015261737360f01b60648201526084016109c8565b6001600160a01b0383811660008181526001602090815260408083209487168084529482529182902085905590518481527f8c5be1e5ebec7d5bd14f71427d1e84f3dd0314c0f7b2291e5b200ac8c7c3b92591015b60405180910390a3505050565b6001600160a01b0382166000908152600e602052604081208054831115610ffb5760405162461bcd60e51b815260206004820152600e60248201526d125b9d985b1a5908185b5bdd5b9d60921b60448201526064016109c8565b60006005546006546008548460010154426110169190611834565b611020919061187c565b61102a919061185a565b611034908661187c565b61103e919061185a565b905061104a8185611847565b95945050505050565b6001600160a01b0381166000908152600e6020526040812060055460065460085460018401546110839042611834565b61108d919061187c565b611097919061187c565b82546110a3919061187c565b6110ad919061185a565b6001600160a01b039093166000908152600f602052604090208390555090919050565b60006110dc8484610c79565b9050600019811461114457818110156111375760405162461bcd60e51b815260206004820152601d60248201527f45524332303a20696e73756666696369656e7420616c6c6f77616e636500000060448201526064016109c8565b6111448484848403610e7c565b50505050565b6001600160a01b0383166111ae5760405162461bcd60e51b815260206004820152602560248201527f45524332303a207472616e736665722066726f6d20746865207a65726f206164604482015264647265737360d81b60648201526084016109c8565b6001600160a01b0382166112105760405162461bcd60e51b815260206004820152602360248201527f45524332303a207472616e7366657220746f20746865207a65726f206164647260448201526265737360e81b60648201526084016109c8565b6001600160a01b038316600090815260208190526040902054818110156112885760405162461bcd60e51b815260206004820152602660248201527f45524332303a207472616e7366657220616d6f756e7420657863656564732062604482015265616c616e636560d01b60648201526084016109c8565b6001600160a01b03848116600081815260208181526040808320878703905593871680835291849020805487019055925185815290927fddf252ad1be2c89b69c2b068fc378daa952ba7f163c4a11628f55a4df523b3ef910160405180910390a3611144565b6001600160a01b0382166113445760405162461bcd60e51b815260206004820152601f60248201527f45524332303a206d696e7420746f20746865207a65726f20616464726573730060448201526064016109c8565b80600260008282546113569190611847565b90915550506001600160a01b038216600081815260208181526040808320805486019055518481527fddf252ad1be2c89b69c2b068fc378daa952ba7f163c4a11628f55a4df523b3ef910160405180910390a35050565b6001600160a01b0381166000908152600a6020526040812060055460065460075460018401546113dd9042611834565b6113e7919061187c565b6113f1919061187c565b82546113fd919061187c565b611407919061185a565b6001600160a01b039093166000908152600b602052604090208390555090919050565b6001600160a01b0382166000908152600a6020526040812080548311156114845760405162461bcd60e51b815260206004820152600e60248201526d125b9d985b1a5908185b5bdd5b9d60921b60448201526064016109c8565b60008160010154426114969190611834565b9050600060055460065460075484886114af919061187c565b6114b9919061187c565b6114c3919061187c565b6114cd919061185a565b90506114d98186611847565b9695505050505050565b611528816040516024016114f991815260200190565b60408051601f198184030181529190526020810180516001600160e01b031663f82c50f160e01b179052611655565b50565b6001600160a01b03821661158b5760405162461bcd60e51b815260206004820152602160248201527f45524332303a206275726e2066726f6d20746865207a65726f206164647265736044820152607360f81b60648201526084016109c8565b6001600160a01b038216600090815260208190526040902054818110156115ff5760405162461bcd60e51b815260206004820152602260248201527f45524332303a206275726e20616d6f756e7420657863656564732062616c616e604482015261636560f01b60648201526084016109c8565b6001600160a01b0383166000818152602081815260408083208686039055600280548790039055518581529192917fddf252ad1be2c89b69c2b068fc378daa952ba7f163c4a11628f55a4df523b3ef9101610f94565b6115288160006a636f6e736f6c652e6c6f679050600080835160208501845afa505050565b600060208083528351808285015260005b818110156116a75785810183015185820160400152820161168b565b506000604082860101526040601f19601f8301168501019250505092915050565b80356001600160a01b03811681146116df57600080fd5b919050565b600080604083850312156116f757600080fd5b611700836116c8565b946020939093013593505050565b60008060006060848603121561172357600080fd5b61172c846116c8565b925061173a602085016116c8565b9150604084013590509250925092565b60006020828403121561175c57600080fd5b611765826116c8565b9392505050565b6000806040838503121561177f57600080fd5b8235915061178f602084016116c8565b90509250929050565b600080604083850312156117ab57600080fd5b6117b4836116c8565b915061178f602084016116c8565b600181811c908216806117d657607f821691505b6020821081036117f657634e487b7160e01b600052602260045260246000fd5b50919050565b60006020828403121561180e57600080fd5b8151801515811461176557600080fd5b634e487b7160e01b600052601160045260246000fd5b818103818111156103ad576103ad61181e565b808201808211156103ad576103ad61181e565b60008261187757634e487b7160e01b600052601260045260246000fd5b500490565b80820281158282048414176103ad576103ad61181e565b6000602082840312156118a557600080fd5b505191905056fea26469706673582212205f60edb9d6592a4f1d2f0949b2f4adc18100bb04baa18ae7b1b9912f4357c14364736f6c63430008130033a26469706673582212209551fe0df6974ba8380b176b1433414e93af1f4efa415801bba4b743c1e52f6e64736f6c63430008130033",
  "linkReferences": {},
  "deployedLinkReferences": {}
}