{
  "_format": "hh-sol-artifact-1",
  "contractName": "LendingPool",
  "sourceName": "contracts/core/LendingPool.sol",
  "abi": [
    {
      "inputs": [
        {
          "internalType": "address",
          "name": "_tokenAddress",
          "type": "address"
        }
      ],
      "stateMutability": "nonpayable",
      "type": "constructor"
    },
    {
      "inputs": [],
      "name": "LendingPool__InvalidAmount",
      "type": "error"
    },
    {
      "inputs": [],
      "name": "LendingPool__InvalidUser",
      "type": "error"
    },
    {
      "inputs": [],
      "name": "LendingPool__InvalidValue",
      "type": "error"
    },
    {
      "anonymous": false,
      "inputs": [
        {
          "indexed": true,
          "internalType": "address",
          "name": "user",
          "type": "address"
        },
        {
          "indexed": false,
          "internalType": "uint256",
          "name": "amount",
          "type": "uint256"
        }
      ],
      "name": "Borrow",
      "type": "event"
    },
    {
      "anonymous": false,
      "inputs": [
        {
          "indexed": true,
          "internalType": "address",
          "name": "user",
          "type": "address"
        },
        {
          "indexed": false,
          "internalType": "uint256",
          "name": "amount",
          "type": "uint256"
        }
      ],
      "name": "Deposit",
      "type": "event"
    },
    {
      "anonymous": false,
      "inputs": [
        {
          "indexed": true,
          "internalType": "address",
          "name": "user",
          "type": "address"
        },
        {
          "indexed": false,
          "internalType": "uint256",
          "name": "amount",
          "type": "uint256"
        }
      ],
      "name": "Repay",
      "type": "event"
    },
    {
      "anonymous": false,
      "inputs": [
        {
          "indexed": true,
          "internalType": "address",
          "name": "user",
          "type": "address"
        },
        {
          "indexed": false,
          "internalType": "uint256",
          "name": "amount",
          "type": "uint256"
        }
      ],
      "name": "Withdraw",
      "type": "event"
    },
    {
      "inputs": [
        {
          "internalType": "uint256",
          "name": "_amount",
          "type": "uint256"
        },
        {
          "internalType": "address",
          "name": "_user",
          "type": "address"
        }
      ],
      "name": "borrow",
      "outputs": [],
      "stateMutability": "nonpayable",
      "type": "function"
    },
    {
      "inputs": [
        {
          "internalType": "address",
          "name": "",
          "type": "address"
        }
      ],
      "name": "borrowAmount",
      "outputs": [
        {
          "internalType": "uint256",
          "name": "amount",
          "type": "uint256"
        },
        {
          "internalType": "uint256",
          "name": "start",
          "type": "uint256"
        }
      ],
      "stateMutability": "view",
      "type": "function"
    },
    {
      "inputs": [
        {
          "internalType": "address",
          "name": "",
          "type": "address"
        }
      ],
      "name": "borrowers",
      "outputs": [
        {
          "internalType": "bool",
          "name": "",
          "type": "bool"
        }
      ],
      "stateMutability": "view",
      "type": "function"
    },
    {
      "inputs": [
        {
          "internalType": "address",
          "name": "_user",
          "type": "address"
        },
        {
          "internalType": "uint256",
          "name": "_repayAmount",
          "type": "uint256"
        }
      ],
      "name": "calculateRepayAmount",
      "outputs": [
        {
          "internalType": "uint256",
          "name": "_amount",
          "type": "uint256"
        }
      ],
      "stateMutability": "view",
      "type": "function"
    },
    {
      "inputs": [
        {
          "internalType": "uint256",
          "name": "_amount",
          "type": "uint256"
        },
        {
          "internalType": "address",
          "name": "_user",
          "type": "address"
        }
      ],
      "name": "deposit",
      "outputs": [],
      "stateMutability": "nonpayable",
      "type": "function"
    },
    {
      "inputs": [
        {
          "internalType": "address",
          "name": "",
          "type": "address"
        }
      ],
      "name": "earnedInterest",
      "outputs": [
        {
          "internalType": "uint256",
          "name": "",
          "type": "uint256"
        }
      ],
      "stateMutability": "view",
      "type": "function"
    },
    {
      "inputs": [],
      "name": "getBorrowRate",
      "outputs": [
        {
          "internalType": "uint256",
          "name": "",
          "type": "uint256"
        }
      ],
      "stateMutability": "view",
      "type": "function"
    },
    {
      "inputs": [
        {
          "internalType": "address",
          "name": "_user",
          "type": "address"
        }
      ],
      "name": "getBorrowers",
      "outputs": [
        {
          "internalType": "uint256",
          "name": "",
          "type": "uint256"
        }
      ],
      "stateMutability": "view",
      "type": "function"
    },
    {
      "inputs": [],
      "name": "getCurrentTotalSupply",
      "outputs": [
        {
          "internalType": "uint256",
          "name": "",
          "type": "uint256"
        }
      ],
      "stateMutability": "view",
      "type": "function"
    },
    {
      "inputs": [
        {
          "internalType": "address",
          "name": "",
          "type": "address"
        }
      ],
      "name": "lendAmount",
      "outputs": [
        {
          "internalType": "uint256",
          "name": "amount",
          "type": "uint256"
        },
        {
          "internalType": "uint256",
          "name": "start",
          "type": "uint256"
        }
      ],
      "stateMutability": "view",
      "type": "function"
    },
    {
      "inputs": [
        {
          "internalType": "address",
          "name": "",
          "type": "address"
        }
      ],
      "name": "lenders",
      "outputs": [
        {
          "internalType": "bool",
          "name": "",
          "type": "bool"
        }
      ],
      "stateMutability": "view",
      "type": "function"
    },
    {
      "inputs": [
        {
          "internalType": "address",
          "name": "_user",
          "type": "address"
        },
        {
          "internalType": "uint256",
          "name": "_liquidateAmount",
          "type": "uint256"
        }
      ],
      "name": "liquidate",
      "outputs": [],
      "stateMutability": "nonpayable",
      "type": "function"
    },
    {
      "inputs": [
        {
          "internalType": "address",
          "name": "",
          "type": "address"
        }
      ],
      "name": "paidInterest",
      "outputs": [
        {
          "internalType": "uint256",
          "name": "",
          "type": "uint256"
        }
      ],
      "stateMutability": "view",
      "type": "function"
    },
    {
      "inputs": [
        {
          "internalType": "address",
          "name": "_user",
          "type": "address"
        },
        {
          "internalType": "uint256",
          "name": "_repayAmount",
          "type": "uint256"
        }
      ],
      "name": "repay",
      "outputs": [],
      "stateMutability": "nonpayable",
      "type": "function"
    },
    {
      "inputs": [],
      "name": "token",
      "outputs": [
        {
          "internalType": "contract IERC20",
          "name": "",
          "type": "address"
        }
      ],
      "stateMutability": "view",
      "type": "function"
    },
    {
      "inputs": [],
      "name": "tokenAddress",
      "outputs": [
        {
          "internalType": "address",
          "name": "",
          "type": "address"
        }
      ],
      "stateMutability": "view",
      "type": "function"
    },
    {
      "inputs": [
        {
          "internalType": "address",
          "name": "_user",
          "type": "address"
        },
        {
          "internalType": "uint256",
          "name": "_withdrawAmount",
          "type": "uint256"
        }
      ],
      "name": "withdraw",
      "outputs": [],
      "stateMutability": "nonpayable",
      "type": "function"
    }
  ],
  "bytecode": "0x60a0604052606460035560826004553480156200001b57600080fd5b5060405162000d9e38038062000d9e8339810160408190526200003e91620000dd565b600080546001600160a01b0319166001600160a01b038316908117825560808190526040805163313ce56760e01b8152905163313ce567916004808201926020929091908290030181865afa1580156200009c573d6000803e3d6000fd5b505050506040513d601f19601f82011682018060405250810190620000c291906200010f565b9050620000d181600a6200023e565b600255506200024c9050565b600060208284031215620000f057600080fd5b81516001600160a01b03811681146200010857600080fd5b9392505050565b6000602082840312156200012257600080fd5b5051919050565b634e487b7160e01b600052601160045260246000fd5b600181815b808511156200018057816000190482111562000164576200016462000129565b808516156200017257918102915b93841c939080029062000144565b509250929050565b600082620001995750600162000238565b81620001a85750600062000238565b8160018114620001c15760028114620001cc57620001ec565b600191505062000238565b60ff841115620001e057620001e062000129565b50506001821b62000238565b5060208310610133831016604e8410600b841016171562000211575081810a62000238565b6200021d83836200013f565b806000190482111562000234576200023462000129565b0290505b92915050565b600062000108838362000188565b608051610b366200026860003960006102620152610b366000f3fe608060405234801561001057600080fd5b506004361061010b5760003560e01c80638d113a7f116100a2578063bcbaf48711610071578063bcbaf487146102b7578063bf5d50c4146102ca578063c02ae754146102ed578063f3fef3a3146102f5578063fc0c546a1461030857600080fd5b80638d113a7f146102365780639d76ea581461025d578063aa1970df1461029c578063ba1c5e80146102af57600080fd5b80634807b6cf116100de5780634807b6cf146101c75780634b3fd148146101f05780635d948c35146102035780636e553f651461022357600080fd5b80631c78da261461011057806322867d781461015157806328fd10d7146101665780633c166b8e14610199575b600080fd5b61013761011e366004610a0d565b6006602052600090815260409020805460019091015482565b604080519283526020830191909152015b60405180910390f35b61016461015f366004610a2f565b61031b565b005b610189610174366004610a0d565b60086020526000908152604090205460ff1681565b6040519015158152602001610148565b6101b96101a7366004610a0d565b600b6020526000908152604090205481565b604051908152602001610148565b6101b96101d5366004610a0d565b6001600160a01b03166000908152600a602052604090205490565b6101646101fe366004610a59565b61045a565b6101b9610211366004610a0d565b60076020526000908152604090205481565b610164610231366004610a59565b610542565b610137610244366004610a0d565b600a602052600090815260409020805460019091015482565b6102847f000000000000000000000000000000000000000000000000000000000000000081565b6040516001600160a01b039091168152602001610148565b6101b96102aa366004610a2f565b610628565b6004546101b9565b6101646102c5366004610a2f565b6106de565b6101896102d8366004610a0d565b60096020526000908152604090205460ff1681565b6001546101b9565b610164610303366004610a2f565b6107b0565b600054610284906001600160a01b031681565b6001600160a01b03821660009081526009602052604090205460ff1661035457604051630d2a32b360e11b815260040160405180910390fd5b60006103608383610628565b90508060000361038357604051633a9c46bf60e11b815260040160405180910390fd5b6001600160a01b0383166000908152600a6020526040812080548392906103ab908490610a9b565b90915550506001600160a01b0383166000908152600a602052604081205490036103f0576001600160a01b0383166000908152600960205260409020805460ff191690555b80600160008282546104029190610ab4565b909155506104119050836108c2565b50826001600160a01b03167f5c16de4f8b59bd9caf0f49a545f25819a895ed223294290b408242e72a5942318360405161044d91815260200190565b60405180910390a2505050565b8160000361047b57604051633a9c46bf60e11b815260040160405180910390fd5b600a60015461048a9190610ac7565b8211156104aa5760405163de71bbd360e01b815260040160405180910390fd5b6001600160a01b0381166000908152600a602052604081208381554260019182015580548492906104dc908490610a9b565b90915550506001600160a01b03811660008181526009602052604090819020805460ff19166001179055517fcbc04eca7e9da35cb1393a6135a199ca52e450d5e9251cbd99f7847d33a36750906105369085815260200190565b60405180910390a25050565b8160000361056357604051633a9c46bf60e11b815260040160405180910390fd5b6001600160a01b038116600090815260066020526040812080549091849183919061058f908490610ab4565b909155505060018101546000036105a7574260018201555b6001600160a01b0382166000908152600860205260408120805460ff1916600190811790915580548592906105dd908490610ab4565b909155506105ec905082610954565b50816001600160a01b03167fe1fffcc4923d04b559f4d29a8bfc6cda04eb5b0d3c460751c2402c5c5cc9109c8460405161044d91815260200190565b6001600160a01b0382166000908152600a6020526040812080548311156106865760405162461bcd60e51b815260206004820152600e60248201526d125b9d985b1a5908185b5bdd5b9d60921b604482015260640160405180910390fd5b60006001546002546004548460010154426106a19190610a9b565b6106ab9190610ae9565b6106b59190610ac7565b6106bf9086610ae9565b6106c99190610ac7565b90506106d58185610ab4565b95945050505050565b6001600160a01b03821660009081526009602052604090205460ff1661071757604051630d2a32b360e11b815260040160405180910390fd5b6001600160a01b0382166000908152600a6020526040902054811061074f57604051633a9c46bf60e11b815260040160405180910390fd5b6000606461075e836003610ae9565b6107689190610ac7565b9050610773836108c2565b5061077e8183610ab4565b6001600160a01b0384166000908152600a6020526040812080549091906107a6908490610a9b565b9091555050505050565b6001600160a01b03821660009081526008602052604090205460ff166107e957604051630d2a32b360e11b815260040160405180910390fd5b6001600160a01b03821660009081526006602052604081209082900361082257604051633a9c46bf60e11b815260040160405180910390fd5b818160000160008282546108369190610a9b565b90915550508054600003610865576001600160a01b0383166000908152600860205260409020805460ff191690555b81600160008282546108779190610a9b565b90915550610886905083610954565b50826001600160a01b03167f884edad9ce6fa2440d8a54cc123490eb96d2768479d49ff9c7366125a94243648360405161044d91815260200190565b6001600160a01b0381166000908152600a60205260408120600181015482036108ee5750600092915050565b6001546002546004548360010154426109079190610a9b565b6109119190610ae9565b61091b9190610ae9565b82546109279190610ae9565b6109319190610ac7565b6001600160a01b039093166000908152600b602052604090208390555090919050565b6001600160a01b0381166000908152600660205260408120600154158061097d57506001810154155b1561098b5750600092915050565b6001546002546003548360010154426109a49190610a9b565b6109ae9190610ae9565b6109b89190610ae9565b82546109c49190610ae9565b6109ce9190610ac7565b6001600160a01b0390931660009081526007602052604090208390555090919050565b80356001600160a01b0381168114610a0857600080fd5b919050565b600060208284031215610a1f57600080fd5b610a28826109f1565b9392505050565b60008060408385031215610a4257600080fd5b610a4b836109f1565b946020939093013593505050565b60008060408385031215610a6c57600080fd5b82359150610a7c602084016109f1565b90509250929050565b634e487b7160e01b600052601160045260246000fd5b81810381811115610aae57610aae610a85565b92915050565b80820180821115610aae57610aae610a85565b600082610ae457634e487b7160e01b600052601260045260246000fd5b500490565b8082028115828204841417610aae57610aae610a8556fea2646970667358221220bce018655d743f189958ed1436cd034dd960a138067323022dd591c4164165e264736f6c63430008130033",
  "linkReferences": {},
  "deployedLinkReferences": {}
}