{
  "_format": "hh-sol-artifact-1",
  "contractName": "StakingPool",
  "sourceName": "contracts/core/StakingPool.sol",
  "abi": [
    {
      "inputs": [
        {
          "internalType": "address",
          "name": "_stakingToken",
          "type": "address"
        },
        {
          "internalType": "address",
          "name": "_rewardToken",
          "type": "address"
        }
      ],
      "stateMutability": "nonpayable",
      "type": "constructor"
    },
    {
      "inputs": [
        {
          "internalType": "address",
          "name": "_user",
          "type": "address"
        }
      ],
      "name": "claimReward",
      "outputs": [],
      "stateMutability": "nonpayable",
      "type": "function"
    },
    {
      "inputs": [
        {
          "internalType": "address",
          "name": "_user",
          "type": "address"
        }
      ],
      "name": "getStakedAmount",
      "outputs": [
        {
          "internalType": "uint256",
          "name": "",
          "type": "uint256"
        }
      ],
      "stateMutability": "view",
      "type": "function"
    },
    {
      "inputs": [],
      "name": "lastUpdateTime",
      "outputs": [
        {
          "internalType": "uint256",
          "name": "",
          "type": "uint256"
        }
      ],
      "stateMutability": "view",
      "type": "function"
    },
    {
      "inputs": [
        {
          "internalType": "address",
          "name": "_account",
          "type": "address"
        }
      ],
      "name": "rewardEarned",
      "outputs": [
        {
          "internalType": "uint256",
          "name": "",
          "type": "uint256"
        }
      ],
      "stateMutability": "view",
      "type": "function"
    },
    {
      "inputs": [],
      "name": "rewardPerToken",
      "outputs": [
        {
          "internalType": "uint256",
          "name": "",
          "type": "uint256"
        }
      ],
      "stateMutability": "view",
      "type": "function"
    },
    {
      "inputs": [],
      "name": "rewardPerTokenStored",
      "outputs": [
        {
          "internalType": "uint256",
          "name": "",
          "type": "uint256"
        }
      ],
      "stateMutability": "view",
      "type": "function"
    },
    {
      "inputs": [],
      "name": "rewardRate",
      "outputs": [
        {
          "internalType": "uint256",
          "name": "",
          "type": "uint256"
        }
      ],
      "stateMutability": "view",
      "type": "function"
    },
    {
      "inputs": [],
      "name": "rewardRateSet",
      "outputs": [
        {
          "internalType": "bool",
          "name": "",
          "type": "bool"
        }
      ],
      "stateMutability": "view",
      "type": "function"
    },
    {
      "inputs": [],
      "name": "rewardToken",
      "outputs": [
        {
          "internalType": "contract IERC20",
          "name": "",
          "type": "address"
        }
      ],
      "stateMutability": "view",
      "type": "function"
    },
    {
      "inputs": [
        {
          "internalType": "address",
          "name": "",
          "type": "address"
        }
      ],
      "name": "rewards",
      "outputs": [
        {
          "internalType": "uint256",
          "name": "",
          "type": "uint256"
        }
      ],
      "stateMutability": "view",
      "type": "function"
    },
    {
      "inputs": [
        {
          "internalType": "uint256",
          "name": "_amount",
          "type": "uint256"
        },
        {
          "internalType": "address",
          "name": "_user",
          "type": "address"
        }
      ],
      "name": "stakeToken",
      "outputs": [],
      "stateMutability": "nonpayable",
      "type": "function"
    },
    {
      "inputs": [
        {
          "internalType": "address",
          "name": "",
          "type": "address"
        }
      ],
      "name": "staked",
      "outputs": [
        {
          "internalType": "uint256",
          "name": "",
          "type": "uint256"
        }
      ],
      "stateMutability": "view",
      "type": "function"
    },
    {
      "inputs": [],
      "name": "stakingToken",
      "outputs": [
        {
          "internalType": "contract IERC20",
          "name": "",
          "type": "address"
        }
      ],
      "stateMutability": "view",
      "type": "function"
    },
    {
      "inputs": [
        {
          "internalType": "address",
          "name": "",
          "type": "address"
        }
      ],
      "name": "userRewardPerTokenPaid",
      "outputs": [
        {
          "internalType": "uint256",
          "name": "",
          "type": "uint256"
        }
      ],
      "stateMutability": "view",
      "type": "function"
    },
    {
      "inputs": [
        {
          "internalType": "uint256",
          "name": "_amount",
          "type": "uint256"
        },
        {
          "internalType": "address",
          "name": "_user",
          "type": "address"
        }
      ],
      "name": "withdrawToken",
      "outputs": [],
      "stateMutability": "nonpayable",
      "type": "function"
    }
  ],
  "bytecode": "0x608060405260646003556006805460ff1916905534801561001f57600080fd5b506040516107cd3803806107cd83398101604081905261003e9161008b565b600180546001600160a01b039384166001600160a01b031991821617909155600080549290931691161790556100be565b80516001600160a01b038116811461008657600080fd5b919050565b6000806040838503121561009e57600080fd5b6100a78361006f565b91506100b56020840161006f565b90509250929050565b610700806100cd6000396000f3fe608060405234801561001057600080fd5b50600436106100f55760003560e01c80639ee3060011610097578063d279c19111610066578063d279c19114610216578063df136d6514610229578063efb48f7c14610232578063f7c618c11461024f57600080fd5b80639ee30600146101dd578063be4b1772146101f2578063c8f33c9114610205578063cd3daf9d1461020e57600080fd5b806372f702f3116100d357806372f702f3146101695780637b0a47ee146101945780638b8763471461019d57806398807d84146101bd57600080fd5b80630700037d146100fa57806316ba6bf31461012d5780634da6a55614610140575b600080fd5b61011a6101083660046105e5565b60076020526000908152604090205481565b6040519081526020015b60405180910390f35b61011a61013b3660046105e5565b610262565b61011a61014e3660046105e5565b6001600160a01b031660009081526009602052604090205490565b60015461017c906001600160a01b031681565b6040516001600160a01b039091168152602001610124565b61011a60035481565b61011a6101ab3660046105e5565b60086020526000908152604090205481565b61011a6101cb3660046105e5565b60096020526000908152604090205481565b6101f06101eb366004610607565b6102df565b005b6101f0610200366004610607565b6103b6565b61011a60045481565b61011a610486565b6101f06102243660046105e5565b6104e4565b61011a60055481565b60065461023f9060ff1681565b6040519015158152602001610124565b60005461017c906001600160a01b031681565b6001600160a01b0381166000908152600760209081526040808320546008909252822054670de0b6b3a764000090610298610486565b6102a29190610649565b6001600160a01b0385166000908152600960205260409020546102c5919061065c565b6102cf9190610673565b6102d99190610695565b92915050565b806102e8610486565b600555426004556102f881610262565b6001600160a01b0382166000908152600760209081526040808320939093556005546008909152919020558261036d5760405162461bcd60e51b815260206004820152601560248201527443616e6e6f74207374616b65203020746f6b656e7360581b60448201526064015b60405180910390fd5b826002600082825461037f9190610695565b90915550506001600160a01b038216600090815260096020526040812080548592906103ac908490610695565b9091555050505050565b806103bf610486565b600555426004556103cf81610262565b6001600160a01b038216600090815260076020908152604080832093909355600554600890915291902055826104475760405162461bcd60e51b815260206004820152601860248201527f43616e6e6f74207769746864726177203020746f6b656e7300000000000000006044820152606401610364565b82600260008282546104599190610649565b90915550506001600160a01b038216600090815260096020526040812080548592906103ac908490610649565b6000600254600003610499575060055490565b6002546003546004546104ac9042610649565b6104b6919061065c565b6104c890670de0b6b3a764000061065c565b6104d29190610673565b6005546104df9190610695565b905090565b336104ed610486565b600555426004556104fd81610262565b6001600160a01b0380831660009081526007602081815260408084209590955560055460088252858420559286168252909152205480156105c4576001600160a01b038381166000818152600760205260408082208290559054905163a9059cbb60e01b81526004810192909252602482018490529091169063a9059cbb906044016020604051808303816000875af115801561059e573d6000803e3d6000fd5b505050506040513d601f19601f820116820180604052508101906105c291906106a8565b505b505050565b80356001600160a01b03811681146105e057600080fd5b919050565b6000602082840312156105f757600080fd5b610600826105c9565b9392505050565b6000806040838503121561061a57600080fd5b8235915061062a602084016105c9565b90509250929050565b634e487b7160e01b600052601160045260246000fd5b818103818111156102d9576102d9610633565b80820281158282048414176102d9576102d9610633565b60008261069057634e487b7160e01b600052601260045260246000fd5b500490565b808201808211156102d9576102d9610633565b6000602082840312156106ba57600080fd5b8151801515811461060057600080fdfea2646970667358221220f4f645d68a609301303c641b2c73f7d6bc508f4f409abddd2d3985b18b82b6c664736f6c63430008130033",
  "linkReferences": {},
  "deployedLinkReferences": {}
}