{
  "_format": "hh-sol-artifact-1",
  "contractName": "StakingPoolRouter",
  "sourceName": "contracts/router/StakingPoolRouter.sol",
  "abi": [
    {
      "inputs": [
        {
          "internalType": "address",
          "name": "_factory",
          "type": "address"
        },
        {
          "internalType": "address",
          "name": "_WETH",
          "type": "address"
        },
        {
          "internalType": "address",
          "name": "_rtoken",
          "type": "address"
        }
      ],
      "stateMutability": "nonpayable",
      "type": "constructor"
    },
    {
      "inputs": [],
      "name": "WETH",
      "outputs": [
        {
          "internalType": "address",
          "name": "",
          "type": "address"
        }
      ],
      "stateMutability": "view",
      "type": "function"
    },
    {
      "inputs": [
        {
          "internalType": "address",
          "name": "sToken",
          "type": "address"
        }
      ],
      "name": "createPool",
      "outputs": [],
      "stateMutability": "nonpayable",
      "type": "function"
    },
    {
      "inputs": [
        {
          "internalType": "address",
          "name": "_token",
          "type": "address"
        }
      ],
      "name": "estimateAPYForPool",
      "outputs": [
        {
          "internalType": "uint256",
          "name": "",
          "type": "uint256"
        }
      ],
      "stateMutability": "view",
      "type": "function"
    },
    {
      "inputs": [],
      "name": "factory",
      "outputs": [
        {
          "internalType": "address",
          "name": "",
          "type": "address"
        }
      ],
      "stateMutability": "view",
      "type": "function"
    },
    {
      "inputs": [
        {
          "internalType": "address",
          "name": "_token",
          "type": "address"
        }
      ],
      "name": "getBalance",
      "outputs": [
        {
          "internalType": "uint256",
          "name": "balance",
          "type": "uint256"
        }
      ],
      "stateMutability": "view",
      "type": "function"
    },
    {
      "inputs": [
        {
          "internalType": "address",
          "name": "",
          "type": "address"
        }
      ],
      "name": "getETHBalance",
      "outputs": [
        {
          "internalType": "uint256",
          "name": "",
          "type": "uint256"
        }
      ],
      "stateMutability": "view",
      "type": "function"
    },
    {
      "inputs": [
        {
          "internalType": "address",
          "name": "_token",
          "type": "address"
        }
      ],
      "name": "getPoolAddress",
      "outputs": [
        {
          "internalType": "address",
          "name": "pool",
          "type": "address"
        }
      ],
      "stateMutability": "view",
      "type": "function"
    },
    {
      "inputs": [
        {
          "internalType": "address",
          "name": "_token",
          "type": "address"
        },
        {
          "internalType": "address",
          "name": "_user",
          "type": "address"
        }
      ],
      "name": "getRewardEarned",
      "outputs": [
        {
          "internalType": "uint256",
          "name": "rewardAmount",
          "type": "uint256"
        }
      ],
      "stateMutability": "view",
      "type": "function"
    },
    {
      "inputs": [
        {
          "internalType": "address",
          "name": "_user",
          "type": "address"
        },
        {
          "internalType": "address",
          "name": "_token",
          "type": "address"
        }
      ],
      "name": "getStaked",
      "outputs": [
        {
          "internalType": "uint256",
          "name": "stakedAmount",
          "type": "uint256"
        }
      ],
      "stateMutability": "view",
      "type": "function"
    },
    {
      "inputs": [
        {
          "internalType": "address",
          "name": "_token",
          "type": "address"
        }
      ],
      "name": "redeemReward",
      "outputs": [],
      "stateMutability": "nonpayable",
      "type": "function"
    },
    {
      "inputs": [],
      "name": "redeemRewardETH",
      "outputs": [],
      "stateMutability": "nonpayable",
      "type": "function"
    },
    {
      "inputs": [],
      "name": "rtoken",
      "outputs": [
        {
          "internalType": "address",
          "name": "",
          "type": "address"
        }
      ],
      "stateMutability": "view",
      "type": "function"
    },
    {
      "inputs": [
        {
          "internalType": "address",
          "name": "_token",
          "type": "address"
        },
        {
          "internalType": "uint256",
          "name": "_amount",
          "type": "uint256"
        }
      ],
      "name": "stake",
      "outputs": [],
      "stateMutability": "nonpayable",
      "type": "function"
    },
    {
      "inputs": [
        {
          "internalType": "uint256",
          "name": "_amount",
          "type": "uint256"
        }
      ],
      "name": "stakeETH",
      "outputs": [],
      "stateMutability": "payable",
      "type": "function"
    },
    {
      "inputs": [
        {
          "internalType": "address",
          "name": "",
          "type": "address"
        }
      ],
      "name": "stakedETH",
      "outputs": [
        {
          "internalType": "uint256",
          "name": "",
          "type": "uint256"
        }
      ],
      "stateMutability": "view",
      "type": "function"
    },
    {
      "inputs": [
        {
          "internalType": "address",
          "name": "_token",
          "type": "address"
        },
        {
          "internalType": "uint256",
          "name": "_amount",
          "type": "uint256"
        }
      ],
      "name": "withdraw",
      "outputs": [],
      "stateMutability": "nonpayable",
      "type": "function"
    },
    {
      "inputs": [
        {
          "internalType": "uint256",
          "name": "_amount",
          "type": "uint256"
        }
      ],
      "name": "withdrawEth",
      "outputs": [],
      "stateMutability": "nonpayable",
      "type": "function"
    }
  ],
  "bytecode": "0x60e060405234801561001057600080fd5b50604051620013a1380380620013a18339810160408190526100319161006a565b6001600160a01b0392831660805290821660a0521660c0526100ad565b80516001600160a01b038116811461006557600080fd5b919050565b60008060006060848603121561007f57600080fd5b6100888461004e565b92506100966020850161004e565b91506100a46040850161004e565b90509250925092565b60805160a05160c05161127e62000123600039600081816101ad01526107bd015260008181610243015281816104ff015281816105380152818161056101528181610650015281816109d601528181610a030152610b490152600081816102ec015281816103b001526107e5015261127e6000f3fe6080604052600436106100fe5760003560e01c8063adc9772e11610095578063c45a015511610064578063c45a0155146102da578063df2a26e91461030e578063f379dfd01461032e578063f3fef3a31461034e578063f8b2cb4f1461036e57600080fd5b8063adc9772e14610265578063b286de7614610285578063b33bfa7c146102a5578063c311d049146102ba57600080fd5b80636ecc20da116100d15780636ecc20da146101cf57806372b8d470146101e45780639049f9d214610211578063ad5c46481461023157600080fd5b80631228cbee146101035780633bb66a7b14610140578063554f33a81461017b5780636845478f1461019b575b600080fd5b34801561010f57600080fd5b5061012361011e366004611059565b61038e565b6040516001600160a01b0390911681526020015b60405180910390f35b34801561014c57600080fd5b5061016d61015b366004611059565b60006020819052908152604090205481565b604051908152602001610137565b34801561018757600080fd5b5061016d610196366004611059565b610423565b3480156101a757600080fd5b506101237f000000000000000000000000000000000000000000000000000000000000000081565b6101e26101dd36600461107d565b6104f8565b005b3480156101f057600080fd5b5061016d6101ff366004611059565b60016020526000908152604090205481565b34801561021d57600080fd5b506101e261022c366004611059565b61074c565b34801561023d57600080fd5b506101237f000000000000000000000000000000000000000000000000000000000000000081565b34801561027157600080fd5b506101e2610280366004611096565b610857565b34801561029157600080fd5b506101e26102a0366004611059565b61091e565b3480156102b157600080fd5b506101e26109d1565b3480156102c657600080fd5b506101e26102d536600461107d565b6109fc565b3480156102e657600080fd5b506101237f000000000000000000000000000000000000000000000000000000000000000081565b34801561031a57600080fd5b5061016d6103293660046110c2565b610c3d565b34801561033a57600080fd5b5061016d6103493660046110c2565b610ce4565b34801561035a57600080fd5b506101e2610369366004611096565b610d22565b34801561037a57600080fd5b5061016d610389366004611059565b610d93565b60405163bbe4f6db60e01b81526001600160a01b0382811660048301526000917f00000000000000000000000000000000000000000000000000000000000000009091169063bbe4f6db90602401602060405180830381865afa1580156103f9573d6000803e3d6000fd5b505050506040513d601f19601f8201168201806040525081019061041d91906110fb565b92915050565b60008061042f8361038e565b90506001600160a01b0381166104605760405162461bcd60e51b815260040161045790611118565b60405180910390fd5b60008190506000816001600160a01b031663cd3daf9d6040518163ffffffff1660e01b8152600401602060405180830381865afa1580156104a5573d6000803e3d6000fd5b505050506040513d601f19601f820116820180604052508101906104c99190611141565b90506000670de0b6b3a76400006104e4836301e13380611170565b6104ee9190611187565b9695505050505050565b60006105237f000000000000000000000000000000000000000000000000000000000000000061038e565b90506001600160a01b0381166105885761055c7f000000000000000000000000000000000000000000000000000000000000000061074c565b6105857f000000000000000000000000000000000000000000000000000000000000000061038e565b90505b6001600160a01b0381166105ae5760405162461bcd60e51b8152600401610457906111a9565b600082116105fe5760405162461bcd60e51b815260206004820152601c60248201527f4d757374207374616b65206d6f7265207468616e2030206574686572000000006044820152606401610457565b8134101561064e5760405162461bcd60e51b815260206004820152601760248201527f496e73756666696369656e742045746865722073656e740000000000000000006044820152606401610457565b7f00000000000000000000000000000000000000000000000000000000000000006001600160a01b031663d0e30db0836040518263ffffffff1660e01b81526004016000604051808303818588803b1580156106a957600080fd5b505af11580156106bd573d6000803e3d6000fd5b505033600090815260016020526040812080548795509093509091506106e49084906111d1565b9091555050604051624f718360e91b8152600481018390523360248201526001600160a01b03821690639ee3060090604401600060405180830381600087803b15801561073057600080fd5b505af1158015610744573d6000803e3d6000fd5b505050505050565b60006107578261038e565b90506001600160a01b0381161561079e5760405162461bcd60e51b815260206004820152600b60248201526a504f4f4c5f45584953545360a81b6044820152606401610457565b60405163e343361560e01b81526001600160a01b0383811660048301527f0000000000000000000000000000000000000000000000000000000000000000811660248301527f0000000000000000000000000000000000000000000000000000000000000000169063e3433615906044016020604051808303816000875af115801561082e573d6000803e3d6000fd5b505050506040513d601f19601f8201168201806040525081019061085291906110fb565b505050565b60006108628361038e565b90506001600160a01b0381166108875761087b8361074c565b6108848361038e565b90505b6001600160a01b0381166108ad5760405162461bcd60e51b8152600401610457906111a9565b6108b983333085610dfe565b604051624f718360e91b8152600481018390523360248201526001600160a01b03821690639ee30600906044015b600060405180830381600087803b15801561090157600080fd5b505af1158015610915573d6000803e3d6000fd5b50505050505050565b60006109298261038e565b90506001600160a01b0381166109515760405162461bcd60e51b815260040161045790611118565b600061095d8333610c3d565b9050600081116109a55760405162461bcd60e51b81526020600482015260136024820152724e4f5f5245574152445f544f5f52454445454d60681b6044820152606401610457565b60405163d279c19160e01b81523360048201526001600160a01b0383169063d279c191906024016108e7565b6109fa7f000000000000000000000000000000000000000000000000000000000000000061091e565b565b6000610a277f000000000000000000000000000000000000000000000000000000000000000061038e565b90506001600160a01b038116610a4f5760405162461bcd60e51b8152600401610457906111a9565b33600090815260016020526040902054821115610aae5760405162461bcd60e51b815260206004820152601760248201527f4e6f7420656e6f756768207374616b65642045746865720000000000000000006044820152606401610457565b604051635f258bb960e11b8152600481018390523360248201526001600160a01b0382169063be4b177290604401600060405180830381600087803b158015610af657600080fd5b505af1158015610b0a573d6000803e3d6000fd5b50503360009081526001602052604081208054869450909250610b2e9084906111e4565b9091555050604051632e1a7d4d60e01b8152600481018390527f00000000000000000000000000000000000000000000000000000000000000006001600160a01b031690632e1a7d4d90602401600060405180830381600087803b158015610b9557600080fd5b505af1158015610ba9573d6000803e3d6000fd5b50506040516000925033915084908381818185875af1925050503d8060008114610bef576040519150601f19603f3d011682016040523d82523d6000602084013e610bf4565b606091505b50509050806108525760405162461bcd60e51b8152602060048201526015602482015274115d1a195c881d1c985b9cd9995c8819985a5b1959605a1b6044820152606401610457565b600080610c498461038e565b90506001600160a01b038116610c715760405162461bcd60e51b815260040161045790611118565b6040516316ba6bf360e01b81526001600160a01b0384811660048301528216906316ba6bf3906024015b602060405180830381865afa158015610cb8573d6000803e3d6000fd5b505050506040513d601f19601f82011682018060405250810190610cdc9190611141565b949350505050565b600080610cf08361038e565b6040516326d352ab60e11b81526001600160a01b03868116600483015291925090821690634da6a55690602401610c9b565b6000610d2d8361038e565b90506001600160a01b038116610d555760405162461bcd60e51b815260040161045790611118565b610d60833384610f26565b604051635f258bb960e11b8152600481018390523360248201526001600160a01b0382169063be4b1772906044016108e7565b6040516370a0823160e01b81523060048201526000906001600160a01b038316906370a0823190602401602060405180830381865afa158015610dda573d6000803e3d6000fd5b505050506040513d601f19601f8201168201806040525081019061041d9190611141565b604080516001600160a01b0385811660248301528481166044830152606480830185905283518084039091018152608490920183526020820180516001600160e01b03166323b872dd60e01b1790529151600092839290881691610e6291906111f7565b6000604051808303816000865af19150503d8060008114610e9f576040519150601f19603f3d011682016040523d82523d6000602084013e610ea4565b606091505b5091509150818015610ece575080511580610ece575080806020019051810190610ece9190611226565b6107445760405162461bcd60e51b8152602060048201526024808201527f5472616e7366657248656c7065723a205452414e534645525f46524f4d5f46416044820152631253115160e21b6064820152608401610457565b604080516001600160a01b038481166024830152604480830185905283518084039091018152606490920183526020820180516001600160e01b031663a9059cbb60e01b1790529151600092839290871691610f8291906111f7565b6000604051808303816000865af19150503d8060008114610fbf576040519150601f19603f3d011682016040523d82523d6000602084013e610fc4565b606091505b5091509150818015610fee575080511580610fee575080806020019051810190610fee9190611226565b61103a5760405162461bcd60e51b815260206004820152601f60248201527f5472616e7366657248656c7065723a205452414e534645525f4641494c4544006044820152606401610457565b5050505050565b6001600160a01b038116811461105657600080fd5b50565b60006020828403121561106b57600080fd5b813561107681611041565b9392505050565b60006020828403121561108f57600080fd5b5035919050565b600080604083850312156110a957600080fd5b82356110b481611041565b946020939093013593505050565b600080604083850312156110d557600080fd5b82356110e081611041565b915060208301356110f081611041565b809150509250929050565b60006020828403121561110d57600080fd5b815161107681611041565b6020808252600f908201526e504f4f4c5f4e4f545f45584953545360881b604082015260600190565b60006020828403121561115357600080fd5b5051919050565b634e487b7160e01b600052601160045260246000fd5b808202811582820484141761041d5761041d61115a565b6000826111a457634e487b7160e01b600052601260045260246000fd5b500490565b6020808252600e908201526d1413d3d317d393d517d1561254d560921b604082015260600190565b8082018082111561041d5761041d61115a565b8181038181111561041d5761041d61115a565b6000825160005b8181101561121857602081860181015185830152016111fe565b506000920191825250919050565b60006020828403121561123857600080fd5b8151801515811461107657600080fdfea2646970667358221220bc7dfc93a197f61eb872c9d076938b18d510cf06bae15aeb694af813d26b8c9b64736f6c63430008130033",
  "linkReferences": {},
  "deployedLinkReferences": {}
}