{
  "_format": "hh-sol-artifact-1",
  "contractName": "SwapPairTokens2",
  "sourceName": "contracts/core/SwapPairTokens2.sol",
  "abi": [
    {
      "inputs": [
        {
          "internalType": "address",
          "name": "_token0",
          "type": "address"
        },
        {
          "internalType": "address",
          "name": "_token1",
          "type": "address"
        }
      ],
      "stateMutability": "nonpayable",
      "type": "constructor"
    },
    {
      "anonymous": false,
      "inputs": [
        {
          "indexed": true,
          "internalType": "address",
          "name": "owner",
          "type": "address"
        },
        {
          "indexed": true,
          "internalType": "address",
          "name": "spender",
          "type": "address"
        },
        {
          "indexed": false,
          "internalType": "uint256",
          "name": "value",
          "type": "uint256"
        }
      ],
      "name": "Approval",
      "type": "event"
    },
    {
      "anonymous": false,
      "inputs": [
        {
          "indexed": true,
          "internalType": "address",
          "name": "from",
          "type": "address"
        },
        {
          "indexed": true,
          "internalType": "address",
          "name": "to",
          "type": "address"
        },
        {
          "indexed": false,
          "internalType": "uint256",
          "name": "value",
          "type": "uint256"
        }
      ],
      "name": "Transfer",
      "type": "event"
    },
    {
      "inputs": [
        {
          "internalType": "uint256",
          "name": "_amount0",
          "type": "uint256"
        },
        {
          "internalType": "uint256",
          "name": "_amount1",
          "type": "uint256"
        }
      ],
      "name": "addLiquidity",
      "outputs": [
        {
          "internalType": "uint256",
          "name": "shares",
          "type": "uint256"
        }
      ],
      "stateMutability": "nonpayable",
      "type": "function"
    },
    {
      "inputs": [
        {
          "internalType": "address",
          "name": "",
          "type": "address"
        },
        {
          "internalType": "address",
          "name": "",
          "type": "address"
        }
      ],
      "name": "allowance",
      "outputs": [
        {
          "internalType": "uint256",
          "name": "",
          "type": "uint256"
        }
      ],
      "stateMutability": "view",
      "type": "function"
    },
    {
      "inputs": [
        {
          "internalType": "address",
          "name": "_spender",
          "type": "address"
        },
        {
          "internalType": "uint256",
          "name": "_value",
          "type": "uint256"
        }
      ],
      "name": "approve",
      "outputs": [
        {
          "internalType": "bool",
          "name": "",
          "type": "bool"
        }
      ],
      "stateMutability": "nonpayable",
      "type": "function"
    },
    {
      "inputs": [
        {
          "internalType": "address",
          "name": "",
          "type": "address"
        }
      ],
      "name": "balanceOf",
      "outputs": [
        {
          "internalType": "uint256",
          "name": "",
          "type": "uint256"
        }
      ],
      "stateMutability": "view",
      "type": "function"
    },
    {
      "inputs": [],
      "name": "decimals",
      "outputs": [
        {
          "internalType": "uint8",
          "name": "",
          "type": "uint8"
        }
      ],
      "stateMutability": "view",
      "type": "function"
    },
    {
      "inputs": [],
      "name": "kLast",
      "outputs": [
        {
          "internalType": "uint256",
          "name": "",
          "type": "uint256"
        }
      ],
      "stateMutability": "view",
      "type": "function"
    },
    {
      "inputs": [],
      "name": "name",
      "outputs": [
        {
          "internalType": "string",
          "name": "",
          "type": "string"
        }
      ],
      "stateMutability": "view",
      "type": "function"
    },
    {
      "inputs": [
        {
          "internalType": "address",
          "name": "",
          "type": "address"
        }
      ],
      "name": "nonces",
      "outputs": [
        {
          "internalType": "uint256",
          "name": "",
          "type": "uint256"
        }
      ],
      "stateMutability": "view",
      "type": "function"
    },
    {
      "inputs": [],
      "name": "price0CumulativeLast",
      "outputs": [
        {
          "internalType": "uint256",
          "name": "",
          "type": "uint256"
        }
      ],
      "stateMutability": "view",
      "type": "function"
    },
    {
      "inputs": [],
      "name": "price1CumulativeLast",
      "outputs": [
        {
          "internalType": "uint256",
          "name": "",
          "type": "uint256"
        }
      ],
      "stateMutability": "view",
      "type": "function"
    },
    {
      "inputs": [
        {
          "internalType": "uint256",
          "name": "_shares",
          "type": "uint256"
        }
      ],
      "name": "removeLiquidity",
      "outputs": [
        {
          "internalType": "uint256",
          "name": "amount0",
          "type": "uint256"
        },
        {
          "internalType": "uint256",
          "name": "amount1",
          "type": "uint256"
        }
      ],
      "stateMutability": "nonpayable",
      "type": "function"
    },
    {
      "inputs": [],
      "name": "reserve0",
      "outputs": [
        {
          "internalType": "uint256",
          "name": "",
          "type": "uint256"
        }
      ],
      "stateMutability": "view",
      "type": "function"
    },
    {
      "inputs": [],
      "name": "reserve1",
      "outputs": [
        {
          "internalType": "uint256",
          "name": "",
          "type": "uint256"
        }
      ],
      "stateMutability": "view",
      "type": "function"
    },
    {
      "inputs": [
        {
          "internalType": "address",
          "name": "_tokenIn",
          "type": "address"
        },
        {
          "internalType": "uint256",
          "name": "_amountIn",
          "type": "uint256"
        }
      ],
      "name": "swap",
      "outputs": [
        {
          "internalType": "uint256",
          "name": "amountOut",
          "type": "uint256"
        }
      ],
      "stateMutability": "nonpayable",
      "type": "function"
    },
    {
      "inputs": [],
      "name": "symbol",
      "outputs": [
        {
          "internalType": "string",
          "name": "",
          "type": "string"
        }
      ],
      "stateMutability": "view",
      "type": "function"
    },
    {
      "inputs": [],
      "name": "token0",
      "outputs": [
        {
          "internalType": "contract IERC20",
          "name": "",
          "type": "address"
        }
      ],
      "stateMutability": "view",
      "type": "function"
    },
    {
      "inputs": [],
      "name": "token1",
      "outputs": [
        {
          "internalType": "contract IERC20",
          "name": "",
          "type": "address"
        }
      ],
      "stateMutability": "view",
      "type": "function"
    },
    {
      "inputs": [],
      "name": "totalSupply",
      "outputs": [
        {
          "internalType": "uint256",
          "name": "",
          "type": "uint256"
        }
      ],
      "stateMutability": "view",
      "type": "function"
    },
    {
      "inputs": [
        {
          "internalType": "address",
          "name": "_to",
          "type": "address"
        },
        {
          "internalType": "uint256",
          "name": "_value",
          "type": "uint256"
        }
      ],
      "name": "transfer",
      "outputs": [
        {
          "internalType": "bool",
          "name": "",
          "type": "bool"
        }
      ],
      "stateMutability": "nonpayable",
      "type": "function"
    },
    {
      "inputs": [
        {
          "internalType": "address",
          "name": "_from",
          "type": "address"
        },
        {
          "internalType": "address",
          "name": "_to",
          "type": "address"
        },
        {
          "internalType": "uint256",
          "name": "value",
          "type": "uint256"
        }
      ],
      "name": "transferFrom",
      "outputs": [
        {
          "internalType": "bool",
          "name": "",
          "type": "bool"
        }
      ],
      "stateMutability": "nonpayable",
      "type": "function"
    }
  ],
  "bytecode": "0x60c060405234801561001057600080fd5b506040516114db3803806114db83398101604081905261002f91610062565b6001600160a01b039182166080521660a052610095565b80516001600160a01b038116811461005d57600080fd5b919050565b6000806040838503121561007557600080fd5b61007e83610046565b915061008c60208401610046565b90509250929050565b60805160a0516113b86101236000396000818161030b015281816104e5015281816106b4015281816107ee0152818161098b01528181610a9101528181610aff0152610cf80152600081816101980152818161045701528181610622015281816107560152818161095001528181610a4f01528181610ab201528181610ade0152610c7001526113b86000f3fe608060405234801561001057600080fd5b506004361061012c5760003560e01c806370a08231116100ad5780639cd441da116100715780639cd441da146102cd578063a9059cbb146102e0578063d004f0f7146102f3578063d21220a714610306578063dd62ed3e1461032d57600080fd5b806370a082311461023a5780637464fc3d1461025a5780637ecebe001461026357806395d89b41146102835780639c8f9f23146102a557600080fd5b8063313ce567116100f4578063313ce567146101fc578063443cb4bc146102165780635909c0d51461021f5780635a3d5493146102285780635a76f25e1461023157600080fd5b806306fdde0314610131578063095ea7b3146101705780630dfe16811461019357806318160ddd146101d257806323b872dd146101e9575b600080fd5b61015a6040518060400160405280600a81526020016953776170546f6b656e7360b01b81525081565b604051610167919061117e565b60405180910390f35b61018361017e3660046111e3565b610358565b6040519015158152602001610167565b6101ba7f000000000000000000000000000000000000000000000000000000000000000081565b6040516001600160a01b039091168152602001610167565b6101db60005481565b604051908152602001610167565b6101836101f736600461120d565b61036f565b610204601281565b60405160ff9091168152602001610167565b6101db60045481565b6101db60065481565b6101db60075481565b6101db60055481565b6101db610248366004611249565b60016020526000908152604090205481565b6101db60085481565b6101db610271366004611249565b60036020526000908152604090205481565b61015a6040518060400160405280600381526020016214d5d560ea1b81525081565b6102b86102b3366004611264565b610433565b60408051928352602083019190915201610167565b6101db6102db36600461127d565b610731565b6101836102ee3660046111e3565b61093f565b6101db6103013660046111e3565b61094c565b6101ba7f000000000000000000000000000000000000000000000000000000000000000081565b6101db61033b36600461129f565b600260209081526000928352604080842090915290825290205481565b6000610365338484610d77565b5060015b92915050565b6001600160a01b0383166000908152600260209081526040808320338452909152812054600019148015906103c657506001600160a01b038416600090815260026020908152604080832033845290915290205415155b1561041e576001600160a01b03841660009081526002602090815260408083203384529091529020546103f99083610e85565b6001600160a01b03851660009081526002602090815260408083203384529091529020555b610429848484610ec7565b5060019392505050565b6040516370a0823160e01b8152306004820152600090819081906001600160a01b037f000000000000000000000000000000000000000000000000000000000000000016906370a0823190602401602060405180830381865afa15801561049e573d6000803e3d6000fd5b505050506040513d601f19601f820116820180604052508101906104c291906112d2565b6040516370a0823160e01b81523060048201529091506000906001600160a01b037f000000000000000000000000000000000000000000000000000000000000000016906370a0823190602401602060405180830381865afa15801561052c573d6000803e3d6000fd5b505050506040513d601f19601f8201168201806040525081019061055091906112d2565b6000549091506105608684611301565b61056a9190611318565b60005490945061057a8683611301565b6105849190611318565b92506000841180156105965750600083115b6105e05760405162461bcd60e51b8152602060048201526016602482015275494e53554646494349454e54204c495155494449545960501b60448201526064015b60405180910390fd5b6105ea3386610f6d565b6106066105f7858461133a565b610601858461133a565b610ffe565b60405163a9059cbb60e01b8152336004820152602481018590527f00000000000000000000000000000000000000000000000000000000000000006001600160a01b03169063a9059cbb906044016020604051808303816000875af1158015610673573d6000803e3d6000fd5b505050506040513d601f19601f82011682018060405250810190610697919061134d565b5060405163a9059cbb60e01b8152336004820152602481018490527f00000000000000000000000000000000000000000000000000000000000000006001600160a01b03169063a9059cbb906044016020604051808303816000875af1158015610705573d6000803e3d6000fd5b505050506040513d601f19601f82011682018060405250810190610729919061134d565b505050915091565b6040516323b872dd60e01b8152336004820152306024820152604481018390526000907f00000000000000000000000000000000000000000000000000000000000000006001600160a01b0316906323b872dd906064016020604051808303816000875af11580156107a7573d6000803e3d6000fd5b505050506040513d601f19601f820116820180604052508101906107cb919061134d565b506040516323b872dd60e01b8152336004820152306024820152604481018390527f00000000000000000000000000000000000000000000000000000000000000006001600160a01b0316906323b872dd906064016020604051808303816000875af115801561083f573d6000803e3d6000fd5b505050506040513d601f19601f82011682018060405250810190610863919061134d565b506000600454118061087757506000600554115b156108d8578260055461088a9190611301565b826004546108989190611301565b146108d85760405162461bcd60e51b815260206004820152601060248201526f78202f207920213d206478202f20647960801b60448201526064016105d7565b6000546000036108fb576108f46108ef8385611301565b61105e565b9050610369565b6109386004546000548561090f9190611301565b6109199190611318565b6005546000546109299086611301565b6109339190611318565b6110ce565b9392505050565b6000610365338484610ec7565b60007f00000000000000000000000000000000000000000000000000000000000000006001600160a01b0316836001600160a01b031614806109bf57507f00000000000000000000000000000000000000000000000000000000000000006001600160a01b0316836001600160a01b0316145b6109fb5760405162461bcd60e51b815260206004820152600d60248201526c24a72b20a624a2102a27a5a2a760991b60448201526064016105d7565b60008211610a4b5760405162461bcd60e51b815260206004820152601960248201527f494e53554646494349454e5420494e50555420414d4f554e540000000000000060448201526064016105d7565b60007f00000000000000000000000000000000000000000000000000000000000000006001600160a01b0316846001600160a01b031614905060008060008084610adc577f00000000000000000000000000000000000000000000000000000000000000007f0000000000000000000000000000000000000000000000000000000000000000600554600454610b25565b7f00000000000000000000000000000000000000000000000000000000000000007f00000000000000000000000000000000000000000000000000000000000000006004546005545b6040516323b872dd60e01b8152336004820152306024820152604481018c9052939750919550935091506001600160a01b038516906323b872dd906064016020604051808303816000875af1158015610b82573d6000803e3d6000fd5b505050506040513d601f19601f82011682018060405250810190610ba6919061134d565b5060006103e8610bb8896103e5611301565b610bc29190611318565b9050610bce818461136f565b610bd88284611301565b610be29190611318565b60405163a9059cbb60e01b8152336004820152602481018290529097506001600160a01b0385169063a9059cbb906044016020604051808303816000875af1158015610c32573d6000803e3d6000fd5b505050506040513d601f19601f82011682018060405250810190610c56919061134d565b506040516370a0823160e01b8152306004820152610d6b907f00000000000000000000000000000000000000000000000000000000000000006001600160a01b0316906370a0823190602401602060405180830381865afa158015610cbf573d6000803e3d6000fd5b505050506040513d601f19601f82011682018060405250810190610ce391906112d2565b6040516370a0823160e01b81523060048201527f00000000000000000000000000000000000000000000000000000000000000006001600160a01b0316906370a0823190602401602060405180830381865afa158015610d47573d6000803e3d6000fd5b505050506040513d601f19601f8201168201806040525081019061060191906112d2565b50505050505092915050565b6001600160a01b038216610dcd5760405162461bcd60e51b815260206004820152601b60248201527f5370656e6465722063616e6e6f7420626520302061646472657373000000000060448201526064016105d7565b6001600160a01b038316610e235760405162461bcd60e51b815260206004820152601960248201527f4f776e65722063616e6e6f74206265203020616464726573730000000000000060448201526064016105d7565b6001600160a01b0383811660008181526002602090815260408083209487168084529482529182902085905590518481527f8c5be1e5ebec7d5bd14f71427d1e84f3dd0314c0f7b2291e5b200ac8c7c3b92591015b60405180910390a3505050565b600061093883836040518060400160405280601e81526020017f536166654d6174683a207375627472616374696f6e206f766572666c6f7700008152506110e5565b6001600160a01b038316600090815260016020526040902054610eea9082610e85565b6001600160a01b038085166000908152600160205260408082209390935590841681522054610f19908261111f565b6001600160a01b0380841660008181526001602052604090819020939093559151908516907fddf252ad1be2c89b69c2b068fc378daa952ba7f163c4a11628f55a4df523b3ef90610e789085815260200190565b6001600160a01b038216600090815260016020526040902054610f909082610e85565b6001600160a01b03831660009081526001602052604081209190915554610fb79082610e85565b60009081556040518281526001600160a01b038416907fddf252ad1be2c89b69c2b068fc378daa952ba7f163c4a11628f55a4df523b3ef9060200160405180910390a35050565b6001600160701b03821180159061101c57506001600160701b038111155b6110535760405162461bcd60e51b81526020600482015260086024820152674f564552464c4f5760c01b60448201526064016105d7565b600491909155600555565b600060038211156110bf5750806000611078600283611318565b61108390600161136f565b90505b818110156110b95790508060028161109e8186611318565b6110a8919061136f565b6110b29190611318565b9050611086565b50919050565b81156110c9575060015b919050565b6000818311156110de5781610938565b5090919050565b600081848411156111095760405162461bcd60e51b81526004016105d7919061117e565b506000611116848661133a565b95945050505050565b60008061112c838561136f565b9050838110156109385760405162461bcd60e51b815260206004820152601b60248201527f536166654d6174683a206164646974696f6e206f766572666c6f77000000000060448201526064016105d7565b600060208083528351808285015260005b818110156111ab5785810183015185820160400152820161118f565b506000604082860101526040601f19601f8301168501019250505092915050565b80356001600160a01b03811681146110c957600080fd5b600080604083850312156111f657600080fd5b6111ff836111cc565b946020939093013593505050565b60008060006060848603121561122257600080fd5b61122b846111cc565b9250611239602085016111cc565b9150604084013590509250925092565b60006020828403121561125b57600080fd5b610938826111cc565b60006020828403121561127657600080fd5b5035919050565b6000806040838503121561129057600080fd5b50508035926020909101359150565b600080604083850312156112b257600080fd5b6112bb836111cc565b91506112c9602084016111cc565b90509250929050565b6000602082840312156112e457600080fd5b5051919050565b634e487b7160e01b600052601160045260246000fd5b8082028115828204841417610369576103696112eb565b60008261133557634e487b7160e01b600052601260045260246000fd5b500490565b81810381811115610369576103696112eb565b60006020828403121561135f57600080fd5b8151801515811461093857600080fd5b80820180821115610369576103696112eb56fea264697066735822122006228053e96a7d11e71ccd448df814e739b2564475a4d9785750912101a09aa964736f6c63430008130033",
  "linkReferences": {},
  "deployedLinkReferences": {}
}