{
  "_format": "hh-sol-artifact-1",
  "contractName": "SwapPairTokens2",
  "sourceName": "contracts/core/SwapPairTokens2.sol",
  "abi": [
    {
      "inputs": [
        {
          "internalType": "address",
          "name": "_token0",
          "type": "address"
        },
        {
          "internalType": "address",
          "name": "_token1",
          "type": "address"
        }
      ],
      "stateMutability": "nonpayable",
      "type": "constructor"
    },
    {
      "anonymous": false,
      "inputs": [
        {
          "indexed": true,
          "internalType": "address",
          "name": "owner",
          "type": "address"
        },
        {
          "indexed": true,
          "internalType": "address",
          "name": "spender",
          "type": "address"
        },
        {
          "indexed": false,
          "internalType": "uint256",
          "name": "value",
          "type": "uint256"
        }
      ],
      "name": "Approval",
      "type": "event"
    },
    {
      "anonymous": false,
      "inputs": [
        {
          "indexed": true,
          "internalType": "address",
          "name": "from",
          "type": "address"
        },
        {
          "indexed": true,
          "internalType": "address",
          "name": "to",
          "type": "address"
        },
        {
          "indexed": false,
          "internalType": "uint256",
          "name": "value",
          "type": "uint256"
        }
      ],
      "name": "Transfer",
      "type": "event"
    },
    {
      "inputs": [
        {
          "internalType": "uint256",
          "name": "_amount0",
          "type": "uint256"
        },
        {
          "internalType": "uint256",
          "name": "_amount1",
          "type": "uint256"
        }
      ],
      "name": "addLiquidity",
      "outputs": [
        {
          "internalType": "uint256",
          "name": "shares",
          "type": "uint256"
        }
      ],
      "stateMutability": "nonpayable",
      "type": "function"
    },
    {
      "inputs": [
        {
          "internalType": "address",
          "name": "",
          "type": "address"
        },
        {
          "internalType": "address",
          "name": "",
          "type": "address"
        }
      ],
      "name": "allowance",
      "outputs": [
        {
          "internalType": "uint256",
          "name": "",
          "type": "uint256"
        }
      ],
      "stateMutability": "view",
      "type": "function"
    },
    {
      "inputs": [
        {
          "internalType": "address",
          "name": "_spender",
          "type": "address"
        },
        {
          "internalType": "uint256",
          "name": "_value",
          "type": "uint256"
        }
      ],
      "name": "approve",
      "outputs": [
        {
          "internalType": "bool",
          "name": "",
          "type": "bool"
        }
      ],
      "stateMutability": "nonpayable",
      "type": "function"
    },
    {
      "inputs": [
        {
          "internalType": "address",
          "name": "",
          "type": "address"
        }
      ],
      "name": "balanceOf",
      "outputs": [
        {
          "internalType": "uint256",
          "name": "",
          "type": "uint256"
        }
      ],
      "stateMutability": "view",
      "type": "function"
    },
    {
      "inputs": [],
      "name": "decimals",
      "outputs": [
        {
          "internalType": "uint8",
          "name": "",
          "type": "uint8"
        }
      ],
      "stateMutability": "view",
      "type": "function"
    },
    {
      "inputs": [],
      "name": "kLast",
      "outputs": [
        {
          "internalType": "uint256",
          "name": "",
          "type": "uint256"
        }
      ],
      "stateMutability": "view",
      "type": "function"
    },
    {
      "inputs": [],
      "name": "name",
      "outputs": [
        {
          "internalType": "string",
          "name": "",
          "type": "string"
        }
      ],
      "stateMutability": "view",
      "type": "function"
    },
    {
      "inputs": [
        {
          "internalType": "address",
          "name": "",
          "type": "address"
        }
      ],
      "name": "nonces",
      "outputs": [
        {
          "internalType": "uint256",
          "name": "",
          "type": "uint256"
        }
      ],
      "stateMutability": "view",
      "type": "function"
    },
    {
      "inputs": [],
      "name": "price0CumulativeLast",
      "outputs": [
        {
          "internalType": "uint256",
          "name": "",
          "type": "uint256"
        }
      ],
      "stateMutability": "view",
      "type": "function"
    },
    {
      "inputs": [],
      "name": "price1CumulativeLast",
      "outputs": [
        {
          "internalType": "uint256",
          "name": "",
          "type": "uint256"
        }
      ],
      "stateMutability": "view",
      "type": "function"
    },
    {
      "inputs": [
        {
          "internalType": "uint256",
          "name": "_shares",
          "type": "uint256"
        }
      ],
      "name": "removeLiquidity",
      "outputs": [
        {
          "internalType": "uint256",
          "name": "amount0",
          "type": "uint256"
        },
        {
          "internalType": "uint256",
          "name": "amount1",
          "type": "uint256"
        }
      ],
      "stateMutability": "nonpayable",
      "type": "function"
    },
    {
      "inputs": [],
      "name": "reserve0",
      "outputs": [
        {
          "internalType": "uint256",
          "name": "",
          "type": "uint256"
        }
      ],
      "stateMutability": "view",
      "type": "function"
    },
    {
      "inputs": [],
      "name": "reserve1",
      "outputs": [
        {
          "internalType": "uint256",
          "name": "",
          "type": "uint256"
        }
      ],
      "stateMutability": "view",
      "type": "function"
    },
    {
      "inputs": [
        {
          "internalType": "address",
          "name": "_tokenIn",
          "type": "address"
        },
        {
          "internalType": "uint256",
          "name": "_amountIn",
          "type": "uint256"
        }
      ],
      "name": "swap",
      "outputs": [
        {
          "internalType": "uint256",
          "name": "amountOut",
          "type": "uint256"
        }
      ],
      "stateMutability": "nonpayable",
      "type": "function"
    },
    {
      "inputs": [],
      "name": "symbol",
      "outputs": [
        {
          "internalType": "string",
          "name": "",
          "type": "string"
        }
      ],
      "stateMutability": "view",
      "type": "function"
    },
    {
      "inputs": [],
      "name": "token0",
      "outputs": [
        {
          "internalType": "contract IERC20",
          "name": "",
          "type": "address"
        }
      ],
      "stateMutability": "view",
      "type": "function"
    },
    {
      "inputs": [],
      "name": "token1",
      "outputs": [
        {
          "internalType": "contract IERC20",
          "name": "",
          "type": "address"
        }
      ],
      "stateMutability": "view",
      "type": "function"
    },
    {
      "inputs": [],
      "name": "totalSupply",
      "outputs": [
        {
          "internalType": "uint256",
          "name": "",
          "type": "uint256"
        }
      ],
      "stateMutability": "view",
      "type": "function"
    },
    {
      "inputs": [
        {
          "internalType": "address",
          "name": "_to",
          "type": "address"
        },
        {
          "internalType": "uint256",
          "name": "_value",
          "type": "uint256"
        }
      ],
      "name": "transfer",
      "outputs": [
        {
          "internalType": "bool",
          "name": "",
          "type": "bool"
        }
      ],
      "stateMutability": "nonpayable",
      "type": "function"
    },
    {
      "inputs": [
        {
          "internalType": "address",
          "name": "_from",
          "type": "address"
        },
        {
          "internalType": "address",
          "name": "_to",
          "type": "address"
        },
        {
          "internalType": "uint256",
          "name": "value",
          "type": "uint256"
        }
      ],
      "name": "transferFrom",
      "outputs": [
        {
          "internalType": "bool",
          "name": "",
          "type": "bool"
        }
      ],
      "stateMutability": "nonpayable",
      "type": "function"
    }
  ],
  "bytecode": "0x60c060405234801561001057600080fd5b5060405161148038038061148083398101604081905261002f91610062565b6001600160a01b039182166080521660a052610095565b80516001600160a01b038116811461005d57600080fd5b919050565b6000806040838503121561007557600080fd5b61007e83610046565b915061008c60208401610046565b90509250929050565b60805160a05161135d6101236000396000818161030b015281816104ba01528181610689015281816107c30152818161096001528181610a6601528181610ad40152610ccd0152600081816101980152818161042c015281816105f70152818161072b0152818161092501528181610a2401528181610a8701528181610ab30152610c45015261135d6000f3fe608060405234801561001057600080fd5b506004361061012c5760003560e01c806370a08231116100ad5780639cd441da116100715780639cd441da146102cd578063a9059cbb146102e0578063d004f0f7146102f3578063d21220a714610306578063dd62ed3e1461032d57600080fd5b806370a082311461023a5780637464fc3d1461025a5780637ecebe001461026357806395d89b41146102835780639c8f9f23146102a557600080fd5b8063313ce567116100f4578063313ce567146101fc578063443cb4bc146102165780635909c0d51461021f5780635a3d5493146102285780635a76f25e1461023157600080fd5b806306fdde0314610131578063095ea7b3146101705780630dfe16811461019357806318160ddd146101d257806323b872dd146101e9575b600080fd5b61015a6040518060400160405280600a81526020016953776170546f6b656e7360b01b81525081565b6040516101679190611123565b60405180910390f35b61018361017e366004611188565b610358565b6040519015158152602001610167565b6101ba7f000000000000000000000000000000000000000000000000000000000000000081565b6040516001600160a01b039091168152602001610167565b6101db60005481565b604051908152602001610167565b6101836101f73660046111b2565b61036f565b610204601281565b60405160ff9091168152602001610167565b6101db60045481565b6101db60065481565b6101db60075481565b6101db60055481565b6101db6102483660046111ee565b60016020526000908152604090205481565b6101db60085481565b6101db6102713660046111ee565b60036020526000908152604090205481565b61015a6040518060400160405280600381526020016214d5d560ea1b81525081565b6102b86102b3366004611209565b610408565b60408051928352602083019190915201610167565b6101db6102db366004611222565b610706565b6101836102ee366004611188565b610914565b6101db610301366004611188565b610921565b6101ba7f000000000000000000000000000000000000000000000000000000000000000081565b6101db61033b366004611244565b600260209081526000928352604080842090915290825290205481565b6000610365338484610d4c565b5060015b92915050565b6001600160a01b03831660009081526002602090815260408083203384529091528120546001600160701b03146103f3576001600160a01b03841660009081526002602090815260408083203384529091529020546103ce9083610e5a565b6001600160a01b03851660009081526002602090815260408083203384529091529020555b6103fe848484610eb0565b5060019392505050565b6040516370a0823160e01b8152306004820152600090819081906001600160a01b037f000000000000000000000000000000000000000000000000000000000000000016906370a0823190602401602060405180830381865afa158015610473573d6000803e3d6000fd5b505050506040513d601f19601f820116820180604052508101906104979190611277565b6040516370a0823160e01b81523060048201529091506000906001600160a01b037f000000000000000000000000000000000000000000000000000000000000000016906370a0823190602401602060405180830381865afa158015610501573d6000803e3d6000fd5b505050506040513d601f19601f820116820180604052508101906105259190611277565b60005490915061053586846112a6565b61053f91906112bd565b60005490945061054f86836112a6565b61055991906112bd565b925060008411801561056b5750600083115b6105b55760405162461bcd60e51b8152602060048201526016602482015275494e53554646494349454e54204c495155494449545960501b60448201526064015b60405180910390fd5b6105bf3386610f56565b6105db6105cc85846112df565b6105d685846112df565b610fe7565b60405163a9059cbb60e01b8152336004820152602481018590527f00000000000000000000000000000000000000000000000000000000000000006001600160a01b03169063a9059cbb906044016020604051808303816000875af1158015610648573d6000803e3d6000fd5b505050506040513d601f19601f8201168201806040525081019061066c91906112f2565b5060405163a9059cbb60e01b8152336004820152602481018490527f00000000000000000000000000000000000000000000000000000000000000006001600160a01b03169063a9059cbb906044016020604051808303816000875af11580156106da573d6000803e3d6000fd5b505050506040513d601f19601f820116820180604052508101906106fe91906112f2565b505050915091565b6040516323b872dd60e01b8152336004820152306024820152604481018390526000907f00000000000000000000000000000000000000000000000000000000000000006001600160a01b0316906323b872dd906064016020604051808303816000875af115801561077c573d6000803e3d6000fd5b505050506040513d601f19601f820116820180604052508101906107a091906112f2565b506040516323b872dd60e01b8152336004820152306024820152604481018390527f00000000000000000000000000000000000000000000000000000000000000006001600160a01b0316906323b872dd906064016020604051808303816000875af1158015610814573d6000803e3d6000fd5b505050506040513d601f19601f8201168201806040525081019061083891906112f2565b506000600454118061084c57506000600554115b156108ad578260055461085f91906112a6565b8260045461086d91906112a6565b146108ad5760405162461bcd60e51b815260206004820152601060248201526f78202f207920213d206478202f20647960801b60448201526064016105ac565b6000546000036108d0576108c96108c483856112a6565b611047565b9050610369565b61090d600454600054856108e491906112a6565b6108ee91906112bd565b6005546000546108fe90866112a6565b61090891906112bd565b6110b7565b9392505050565b6000610365338484610eb0565b60007f00000000000000000000000000000000000000000000000000000000000000006001600160a01b0316836001600160a01b0316148061099457507f00000000000000000000000000000000000000000000000000000000000000006001600160a01b0316836001600160a01b0316145b6109d05760405162461bcd60e51b815260206004820152600d60248201526c24a72b20a624a2102a27a5a2a760991b60448201526064016105ac565b60008211610a205760405162461bcd60e51b815260206004820152601960248201527f494e53554646494349454e5420494e50555420414d4f554e540000000000000060448201526064016105ac565b60007f00000000000000000000000000000000000000000000000000000000000000006001600160a01b0316846001600160a01b031614905060008060008084610ab1577f00000000000000000000000000000000000000000000000000000000000000007f0000000000000000000000000000000000000000000000000000000000000000600554600454610afa565b7f00000000000000000000000000000000000000000000000000000000000000007f00000000000000000000000000000000000000000000000000000000000000006004546005545b6040516323b872dd60e01b8152336004820152306024820152604481018c9052939750919550935091506001600160a01b038516906323b872dd906064016020604051808303816000875af1158015610b57573d6000803e3d6000fd5b505050506040513d601f19601f82011682018060405250810190610b7b91906112f2565b5060006103e8610b8d896103e56112a6565b610b9791906112bd565b9050610ba38184611314565b610bad82846112a6565b610bb791906112bd565b60405163a9059cbb60e01b8152336004820152602481018290529097506001600160a01b0385169063a9059cbb906044016020604051808303816000875af1158015610c07573d6000803e3d6000fd5b505050506040513d601f19601f82011682018060405250810190610c2b91906112f2565b506040516370a0823160e01b8152306004820152610d40907f00000000000000000000000000000000000000000000000000000000000000006001600160a01b0316906370a0823190602401602060405180830381865afa158015610c94573d6000803e3d6000fd5b505050506040513d601f19601f82011682018060405250810190610cb89190611277565b6040516370a0823160e01b81523060048201527f00000000000000000000000000000000000000000000000000000000000000006001600160a01b0316906370a0823190602401602060405180830381865afa158015610d1c573d6000803e3d6000fd5b505050506040513d601f19601f820116820180604052508101906105d69190611277565b50505050505092915050565b6001600160a01b038216610da25760405162461bcd60e51b815260206004820152601b60248201527f5370656e6465722063616e6e6f7420626520302061646472657373000000000060448201526064016105ac565b6001600160a01b038316610df85760405162461bcd60e51b815260206004820152601960248201527f4f776e65722063616e6e6f74206265203020616464726573730000000000000060448201526064016105ac565b6001600160a01b0383811660008181526002602090815260408083209487168084529482529182902085905590518481527f8c5be1e5ebec7d5bd14f71427d1e84f3dd0314c0f7b2291e5b200ac8c7c3b92591015b60405180910390a3505050565b600082610e6783826112df565b91508111156103695760405162461bcd60e51b815260206004820152601560248201527464732d6d6174682d7375622d756e646572666c6f7760581b60448201526064016105ac565b6001600160a01b038316600090815260016020526040902054610ed39082610e5a565b6001600160a01b038085166000908152600160205260408082209390935590841681522054610f0290826110ce565b6001600160a01b0380841660008181526001602052604090819020939093559151908516907fddf252ad1be2c89b69c2b068fc378daa952ba7f163c4a11628f55a4df523b3ef90610e4d9085815260200190565b6001600160a01b038216600090815260016020526040902054610f799082610e5a565b6001600160a01b03831660009081526001602052604081209190915554610fa09082610e5a565b60009081556040518281526001600160a01b038416907fddf252ad1be2c89b69c2b068fc378daa952ba7f163c4a11628f55a4df523b3ef9060200160405180910390a35050565b6001600160701b03821180159061100557506001600160701b038111155b61103c5760405162461bcd60e51b81526020600482015260086024820152674f564552464c4f5760c01b60448201526064016105ac565b600491909155600555565b600060038211156110a857508060006110616002836112bd565b61106c906001611314565b90505b818110156110a25790508060028161108781866112bd565b6110919190611314565b61109b91906112bd565b905061106f565b50919050565b81156110b2575060015b919050565b6000818311156110c7578161090d565b5090919050565b6000826110db8382611314565b91508110156103695760405162461bcd60e51b815260206004820152601460248201527364732d6d6174682d6164642d6f766572666c6f7760601b60448201526064016105ac565b600060208083528351808285015260005b8181101561115057858101830151858201604001528201611134565b506000604082860101526040601f19601f8301168501019250505092915050565b80356001600160a01b03811681146110b257600080fd5b6000806040838503121561119b57600080fd5b6111a483611171565b946020939093013593505050565b6000806000606084860312156111c757600080fd5b6111d084611171565b92506111de60208501611171565b9150604084013590509250925092565b60006020828403121561120057600080fd5b61090d82611171565b60006020828403121561121b57600080fd5b5035919050565b6000806040838503121561123557600080fd5b50508035926020909101359150565b6000806040838503121561125757600080fd5b61126083611171565b915061126e60208401611171565b90509250929050565b60006020828403121561128957600080fd5b5051919050565b634e487b7160e01b600052601160045260246000fd5b808202811582820484141761036957610369611290565b6000826112da57634e487b7160e01b600052601260045260246000fd5b500490565b8181038181111561036957610369611290565b60006020828403121561130457600080fd5b8151801515811461090d57600080fd5b808201808211156103695761036961129056fea2646970667358221220f1049a0ab2101f4c9493ffd649a2aed20c51a9f6ff7eab0c8fda973584b9572b64736f6c63430008130033",
  "linkReferences": {},
  "deployedLinkReferences": {}
}