{
  "_format": "hh-sol-artifact-1",
  "contractName": "SwapPairTokens",
  "sourceName": "contracts/core/SwapPairTokens.sol",
  "abi": [
    {
      "inputs": [],
      "stateMutability": "nonpayable",
      "type": "constructor"
    },
    {
      "anonymous": false,
      "inputs": [
        {
          "indexed": true,
          "internalType": "address",
          "name": "owner",
          "type": "address"
        },
        {
          "indexed": true,
          "internalType": "address",
          "name": "spender",
          "type": "address"
        },
        {
          "indexed": false,
          "internalType": "uint256",
          "name": "value",
          "type": "uint256"
        }
      ],
      "name": "Approval",
      "type": "event"
    },
    {
      "anonymous": false,
      "inputs": [
        {
          "indexed": true,
          "internalType": "address",
          "name": "sender",
          "type": "address"
        },
        {
          "indexed": false,
          "internalType": "uint256",
          "name": "amount0",
          "type": "uint256"
        },
        {
          "indexed": false,
          "internalType": "uint256",
          "name": "amount1",
          "type": "uint256"
        },
        {
          "indexed": true,
          "internalType": "address",
          "name": "to",
          "type": "address"
        }
      ],
      "name": "Burn",
      "type": "event"
    },
    {
      "anonymous": false,
      "inputs": [
        {
          "indexed": true,
          "internalType": "address",
          "name": "sender",
          "type": "address"
        },
        {
          "indexed": false,
          "internalType": "uint256",
          "name": "amount0",
          "type": "uint256"
        },
        {
          "indexed": false,
          "internalType": "uint256",
          "name": "amount1",
          "type": "uint256"
        }
      ],
      "name": "Mint",
      "type": "event"
    },
    {
      "anonymous": false,
      "inputs": [
        {
          "indexed": true,
          "internalType": "address",
          "name": "sender",
          "type": "address"
        },
        {
          "indexed": false,
          "internalType": "uint256",
          "name": "amount0In",
          "type": "uint256"
        },
        {
          "indexed": false,
          "internalType": "uint256",
          "name": "amount1In",
          "type": "uint256"
        },
        {
          "indexed": false,
          "internalType": "uint256",
          "name": "amount0Out",
          "type": "uint256"
        },
        {
          "indexed": false,
          "internalType": "uint256",
          "name": "amount1Out",
          "type": "uint256"
        },
        {
          "indexed": true,
          "internalType": "address",
          "name": "to",
          "type": "address"
        }
      ],
      "name": "Swap",
      "type": "event"
    },
    {
      "anonymous": false,
      "inputs": [
        {
          "indexed": false,
          "internalType": "uint256",
          "name": "reserve0",
          "type": "uint256"
        },
        {
          "indexed": false,
          "internalType": "uint256",
          "name": "reserve1",
          "type": "uint256"
        }
      ],
      "name": "Sync",
      "type": "event"
    },
    {
      "anonymous": false,
      "inputs": [
        {
          "indexed": true,
          "internalType": "address",
          "name": "from",
          "type": "address"
        },
        {
          "indexed": true,
          "internalType": "address",
          "name": "to",
          "type": "address"
        },
        {
          "indexed": false,
          "internalType": "uint256",
          "name": "value",
          "type": "uint256"
        }
      ],
      "name": "Transfer",
      "type": "event"
    },
    {
      "inputs": [],
      "name": "MINIMUM_LIQUIDITY",
      "outputs": [
        {
          "internalType": "uint256",
          "name": "",
          "type": "uint256"
        }
      ],
      "stateMutability": "view",
      "type": "function"
    },
    {
      "inputs": [
        {
          "internalType": "address",
          "name": "",
          "type": "address"
        },
        {
          "internalType": "address",
          "name": "",
          "type": "address"
        }
      ],
      "name": "allowance",
      "outputs": [
        {
          "internalType": "uint256",
          "name": "",
          "type": "uint256"
        }
      ],
      "stateMutability": "view",
      "type": "function"
    },
    {
      "inputs": [
        {
          "internalType": "address",
          "name": "_spender",
          "type": "address"
        },
        {
          "internalType": "uint256",
          "name": "_value",
          "type": "uint256"
        }
      ],
      "name": "approve",
      "outputs": [
        {
          "internalType": "bool",
          "name": "",
          "type": "bool"
        }
      ],
      "stateMutability": "nonpayable",
      "type": "function"
    },
    {
      "inputs": [
        {
          "internalType": "address",
          "name": "",
          "type": "address"
        }
      ],
      "name": "balanceOf",
      "outputs": [
        {
          "internalType": "uint256",
          "name": "",
          "type": "uint256"
        }
      ],
      "stateMutability": "view",
      "type": "function"
    },
    {
      "inputs": [
        {
          "internalType": "address",
          "name": "_to",
          "type": "address"
        }
      ],
      "name": "burn",
      "outputs": [
        {
          "internalType": "uint256",
          "name": "_amount0",
          "type": "uint256"
        },
        {
          "internalType": "uint256",
          "name": "_amount1",
          "type": "uint256"
        }
      ],
      "stateMutability": "nonpayable",
      "type": "function"
    },
    {
      "inputs": [],
      "name": "decimals",
      "outputs": [
        {
          "internalType": "uint8",
          "name": "",
          "type": "uint8"
        }
      ],
      "stateMutability": "view",
      "type": "function"
    },
    {
      "inputs": [],
      "name": "factory",
      "outputs": [
        {
          "internalType": "address",
          "name": "",
          "type": "address"
        }
      ],
      "stateMutability": "view",
      "type": "function"
    },
    {
      "inputs": [],
      "name": "getReserves",
      "outputs": [
        {
          "internalType": "uint112",
          "name": "_reserve0",
          "type": "uint112"
        },
        {
          "internalType": "uint112",
          "name": "_reserve1",
          "type": "uint112"
        },
        {
          "internalType": "uint32",
          "name": "_blockTimestampLast",
          "type": "uint32"
        }
      ],
      "stateMutability": "view",
      "type": "function"
    },
    {
      "inputs": [
        {
          "internalType": "address",
          "name": "_token0",
          "type": "address"
        },
        {
          "internalType": "address",
          "name": "_token1",
          "type": "address"
        }
      ],
      "name": "initialize",
      "outputs": [],
      "stateMutability": "nonpayable",
      "type": "function"
    },
    {
      "inputs": [],
      "name": "kLast",
      "outputs": [
        {
          "internalType": "uint256",
          "name": "",
          "type": "uint256"
        }
      ],
      "stateMutability": "view",
      "type": "function"
    },
    {
      "inputs": [
        {
          "internalType": "address",
          "name": "_to",
          "type": "address"
        }
      ],
      "name": "mint",
      "outputs": [
        {
          "internalType": "uint256",
          "name": "liquidity",
          "type": "uint256"
        }
      ],
      "stateMutability": "nonpayable",
      "type": "function"
    },
    {
      "inputs": [],
      "name": "name",
      "outputs": [
        {
          "internalType": "string",
          "name": "",
          "type": "string"
        }
      ],
      "stateMutability": "view",
      "type": "function"
    },
    {
      "inputs": [
        {
          "internalType": "address",
          "name": "",
          "type": "address"
        }
      ],
      "name": "nonces",
      "outputs": [
        {
          "internalType": "uint256",
          "name": "",
          "type": "uint256"
        }
      ],
      "stateMutability": "view",
      "type": "function"
    },
    {
      "inputs": [],
      "name": "price0CumulativeLast",
      "outputs": [
        {
          "internalType": "uint256",
          "name": "",
          "type": "uint256"
        }
      ],
      "stateMutability": "view",
      "type": "function"
    },
    {
      "inputs": [],
      "name": "price1CumulativeLast",
      "outputs": [
        {
          "internalType": "uint256",
          "name": "",
          "type": "uint256"
        }
      ],
      "stateMutability": "view",
      "type": "function"
    },
    {
      "inputs": [
        {
          "internalType": "address",
          "name": "_to",
          "type": "address"
        }
      ],
      "name": "skim",
      "outputs": [],
      "stateMutability": "nonpayable",
      "type": "function"
    },
    {
      "inputs": [
        {
          "internalType": "uint256",
          "name": "_amount0Out",
          "type": "uint256"
        },
        {
          "internalType": "uint256",
          "name": "_amount1Out",
          "type": "uint256"
        },
        {
          "internalType": "address",
          "name": "_to",
          "type": "address"
        },
        {
          "internalType": "bytes",
          "name": "_data",
          "type": "bytes"
        }
      ],
      "name": "swap",
      "outputs": [],
      "stateMutability": "nonpayable",
      "type": "function"
    },
    {
      "inputs": [],
      "name": "symbol",
      "outputs": [
        {
          "internalType": "string",
          "name": "",
          "type": "string"
        }
      ],
      "stateMutability": "view",
      "type": "function"
    },
    {
      "inputs": [],
      "name": "sync",
      "outputs": [],
      "stateMutability": "nonpayable",
      "type": "function"
    },
    {
      "inputs": [],
      "name": "token0",
      "outputs": [
        {
          "internalType": "address",
          "name": "",
          "type": "address"
        }
      ],
      "stateMutability": "view",
      "type": "function"
    },
    {
      "inputs": [],
      "name": "token1",
      "outputs": [
        {
          "internalType": "address",
          "name": "",
          "type": "address"
        }
      ],
      "stateMutability": "view",
      "type": "function"
    },
    {
      "inputs": [],
      "name": "totalSupply",
      "outputs": [
        {
          "internalType": "uint256",
          "name": "",
          "type": "uint256"
        }
      ],
      "stateMutability": "view",
      "type": "function"
    },
    {
      "inputs": [
        {
          "internalType": "address",
          "name": "_to",
          "type": "address"
        },
        {
          "internalType": "uint256",
          "name": "_value",
          "type": "uint256"
        }
      ],
      "name": "transfer",
      "outputs": [
        {
          "internalType": "bool",
          "name": "",
          "type": "bool"
        }
      ],
      "stateMutability": "nonpayable",
      "type": "function"
    },
    {
      "inputs": [
        {
          "internalType": "address",
          "name": "_from",
          "type": "address"
        },
        {
          "internalType": "address",
          "name": "_to",
          "type": "address"
        },
        {
          "internalType": "uint256",
          "name": "value",
          "type": "uint256"
        }
      ],
      "name": "transferFrom",
      "outputs": [
        {
          "internalType": "bool",
          "name": "",
          "type": "bool"
        }
      ],
      "stateMutability": "nonpayable",
      "type": "function"
    }
  ],
  "bytecode": "0x60806040526001600b5534801561001557600080fd5b50600480546001600160a01b03191633179055611f8e806100376000396000f3fe608060405234801561001057600080fd5b50600436106101585760003560e01c806370a08231116100c3578063ba9a7a561161007c578063ba9a7a5614610355578063bc25cf771461035e578063c45a015514610371578063d21220a714610384578063dd62ed3e14610397578063fff6cae9146103c257600080fd5b806370a08231146102af5780637464fc3d146102cf5780637ecebe00146102d857806389afcb44146102f857806395d89b4114610320578063a9059cbb1461034257600080fd5b806323b872dd1161011557806323b872dd1461024a578063313ce5671461025d578063485cc955146102775780635909c0d51461028a5780635a3d5493146102935780636a6278421461029c57600080fd5b8063022c0d9f1461015d57806306fdde03146101725780630902f1ac146101b1578063095ea7b3146101e55780630dfe16811461020857806318160ddd14610233575b600080fd5b61017061016b366004611bf7565b6103ca565b005b61019b6040518060400160405280600a81526020016953776170546f6b656e7360b01b81525081565b6040516101a89190611cb1565b60405180910390f35b6101b9610880565b604080516001600160701b03948516815293909216602084015263ffffffff16908201526060016101a8565b6101f86101f3366004611ce4565b6108aa565b60405190151581526020016101a8565b60055461021b906001600160a01b031681565b6040516001600160a01b0390911681526020016101a8565b61023c60005481565b6040519081526020016101a8565b6101f8610258366004611d10565b6108c1565b610265601281565b60405160ff90911681526020016101a8565b610170610285366004611d51565b610985565b61023c60085481565b61023c60095481565b61023c6102aa366004611d8a565b610a0d565b61023c6102bd366004611d8a565b60016020526000908152604090205481565b61023c600a5481565b61023c6102e6366004611d8a565b60036020526000908152604090205481565b61030b610306366004611d8a565b610cda565b604080519283526020830191909152016101a8565b61019b6040518060400160405280600381526020016214d5d560ea1b81525081565b6101f8610350366004611ce4565b611045565b61023c6103e881565b61017061036c366004611d8a565b611052565b60045461021b906001600160a01b031681565b60065461021b906001600160a01b031681565b61023c6103a5366004611d51565b600260209081526000928352604080842090915290825290205481565b610170611166565b600b546001146103f55760405162461bcd60e51b81526004016103ec90611da7565b60405180910390fd5b6000600b55841515806104085750600084115b6104675760405162461bcd60e51b815260206004820152602a60248201527f5377617050616972546f6b656e733a20494e53554646494349454e545f4f555460448201526914155517d05353d5539560b21b60648201526084016103ec565b600080610472610880565b5091509150816001600160701b0316871080156104975750806001600160701b031686105b6104f25760405162461bcd60e51b815260206004820152602660248201527f5377617050616972546f6b656e733a20494e53554646494349454e545f4c495160448201526555494449545960d01b60648201526084016103ec565b60055460065460009182916001600160a01b039182169190811690891682148015906105305750806001600160a01b0316896001600160a01b031614155b61057c5760405162461bcd60e51b815260206004820152601a60248201527f5377617050616972546f6b656e733a20494e56414c49445f544f00000000000060448201526064016103ec565b8a1561058d5761058d828a8d61128a565b891561059e5761059e818a8c61128a565b6040516370a0823160e01b81523060048201526001600160a01b038316906370a0823190602401602060405180830381865afa1580156105e2573d6000803e3d6000fd5b505050506040513d601f19601f820116820180604052508101906106069190611dd7565b6040516370a0823160e01b81523060048201529094506001600160a01b038216906370a0823190602401602060405180830381865afa15801561064d573d6000803e3d6000fd5b505050506040513d601f19601f820116820180604052508101906106719190611dd7565b92505050600089856001600160701b031661068c9190611e06565b83116106995760006106b6565b6106ac8a6001600160701b038716611e06565b6106b69084611e06565b905060006106cd8a6001600160701b038716611e06565b83116106da5760006106f7565b6106ed8a6001600160701b038716611e06565b6106f79084611e06565b905060008211806107085750600081115b6107665760405162461bcd60e51b815260206004820152602960248201527f5377617050616972546f6b656e733a20494e53554646494349454e545f494e50604482015268155517d05353d5539560ba1b60648201526084016103ec565b60006107886107768460036113d5565b610782876103e86113d5565b9061145e565b9050600061079a6107768460036113d5565b90506107bf620f42406107b96001600160701b038b8116908b166113d5565b906113d5565b6107c983836113d5565b101561080b5760405162461bcd60e51b81526020600482015260116024820152705377617050616972546f6b656e733a204b60781b60448201526064016103ec565b5050610819848488886114a0565b60408051838152602081018390529081018c9052606081018b90526001600160a01b038a169033907fd78ad95fa46c994b6551d0da85fc275fe613ce37657fb8d5e3d130840159d8229060800160405180910390a350506001600b55505050505050505050565b6007546001600160701b0380821692600160701b830490911691600160e01b900463ffffffff1690565b60006108b7338484611696565b5060015b92915050565b6001600160a01b03831660009081526002602090815260408083203384529091528120546000191480159061091857506001600160a01b038416600090815260026020908152604080832033845290915290205415155b15610970576001600160a01b038416600090815260026020908152604080832033845290915290205461094b908361145e565b6001600160a01b03851660009081526002602090815260408083203384529091529020555b61097b8484846117a4565b5060019392505050565b6004546001600160a01b031633146109df5760405162461bcd60e51b815260206004820152601960248201527f5377617050616972546f6b656e733a20464f5242494444454e0000000000000060448201526064016103ec565b600580546001600160a01b039384166001600160a01b03199182161790915560068054929093169116179055565b6000600b54600114610a315760405162461bcd60e51b81526004016103ec90611da7565b6000600b81905580610a41610880565b506005546040516370a0823160e01b81523060048201529294509092506000916001600160a01b03909116906370a0823190602401602060405180830381865afa158015610a93573d6000803e3d6000fd5b505050506040513d601f19601f82011682018060405250810190610ab79190611dd7565b6006546040516370a0823160e01b81523060048201529192506000916001600160a01b03909116906370a0823190602401602060405180830381865afa158015610b05573d6000803e3d6000fd5b505050506040513d601f19601f82011682018060405250810190610b299190611dd7565b90506000610b40836001600160701b03871661145e565b90506000610b57836001600160701b03871661145e565b90506000610b65878761184a565b60008054919250819003610b9f57610b8b6103e8610782610b8687876113d5565b611979565b9850610b9a60006103e86119e9565b610be6565b610be36001600160701b038916610bb688846113d5565b610bc09190611e2f565b6001600160701b038916610bd488856113d5565b610bde9190611e2f565b611a78565b98505b60008911610c4c5760405162461bcd60e51b815260206004820152602d60248201527f5377617050616972546f6b656e733a20494e53554646494349454e545f4c495160448201526c15525112551657d35253951151609a1b60648201526084016103ec565b610c568a8a6119e9565b610c6286868a8a6114a0565b8115610c8c57600754610c88906001600160701b0380821691600160701b9004166113d5565b600a555b604080518581526020810185905233917f4c209b5fc8ad50758f13e2e1088ba56a560dff690a1c6fef26394f4c03821c4f910160405180910390a250506001600b5550949695505050505050565b600080600b54600114610cff5760405162461bcd60e51b81526004016103ec90611da7565b6000600b81905580610d0f610880565b506005546006546040516370a0823160e01b81523060048201529395509193506001600160a01b039081169291169060009083906370a0823190602401602060405180830381865afa158015610d69573d6000803e3d6000fd5b505050506040513d601f19601f82011682018060405250810190610d8d9190611dd7565b6040516370a0823160e01b81523060048201529091506000906001600160a01b038416906370a0823190602401602060405180830381865afa158015610dd7573d6000803e3d6000fd5b505050506040513d601f19601f82011682018060405250810190610dfb9190611dd7565b30600090815260016020526040812054919250610e18888861184a565b60005490915080610e2984876113d5565b610e339190611e2f565b9a5080610e4084866113d5565b610e4a9190611e2f565b995060008b118015610e5c575060008a115b610ebe5760405162461bcd60e51b815260206004820152602d60248201527f5377617050616972546f6b656e733a20494e53554646494349454e545f4c495160448201526c15525112551657d09554939151609a1b60648201526084016103ec565b610ec83084611a8e565b610ed3878d8d61128a565b610ede868d8c61128a565b6040516370a0823160e01b81523060048201526001600160a01b038816906370a0823190602401602060405180830381865afa158015610f22573d6000803e3d6000fd5b505050506040513d601f19601f82011682018060405250810190610f469190611dd7565b6040516370a0823160e01b81523060048201529095506001600160a01b038716906370a0823190602401602060405180830381865afa158015610f8d573d6000803e3d6000fd5b505050506040513d601f19601f82011682018060405250810190610fb19190611dd7565b9350610fbf85858b8b6114a0565b8115610fe957600754610fe5906001600160701b0380821691600160701b9004166113d5565b600a555b604080518c8152602081018c90526001600160a01b038e169133917fdccd412f0b1252819cb1fd330b93224ca42612892bb3f4f789976e6d81936496910160405180910390a35050505050505050506001600b81905550915091565b60006108b73384846117a4565b600b546001146110745760405162461bcd60e51b81526004016103ec90611da7565b6000600b556005546006546007546040516370a0823160e01b81523060048201526001600160a01b03938416939092169161110f918491869161110a916001600160701b039091169084906370a08231906024015b602060405180830381865afa1580156110e6573d6000803e3d6000fd5b505050506040513d601f19601f820116820180604052508101906107829190611dd7565b61128a565b6007546040516370a0823160e01b815230600482015261115c918391869161110a91600160701b9091046001600160701b0316906001600160a01b038516906370a08231906024016110c9565b50506001600b5550565b600b546001146111885760405162461bcd60e51b81526004016103ec90611da7565b6000600b556005546040516370a0823160e01b8152306004820152611283916001600160a01b0316906370a0823190602401602060405180830381865afa1580156111d7573d6000803e3d6000fd5b505050506040513d601f19601f820116820180604052508101906111fb9190611dd7565b6006546040516370a0823160e01b81523060048201526001600160a01b03909116906370a0823190602401602060405180830381865afa158015611243573d6000803e3d6000fd5b505050506040513d601f19601f820116820180604052508101906112679190611dd7565b6007546001600160701b0380821691600160701b9004166114a0565b6001600b55565b604080518082018252601981527f7472616e7366657228616464726573732c75696e74323536290000000000000060209182015281516001600160a01b0385811660248301526044808301869052845180840390910181526064909201845291810180516001600160e01b031663a9059cbb60e01b179052915160009283928716916113169190611e43565b6000604051808303816000865af19150503d8060008114611353576040519150601f19603f3d011682016040523d82523d6000602084013e611358565b606091505b50915091508180156113825750805115806113825750808060200190518101906113829190611e5f565b6113ce5760405162461bcd60e51b815260206004820152601f60248201527f5377617050616972546f6b656e733a205452414e534645525f4641494c45440060448201526064016103ec565b5050505050565b6000826000036113e7575060006108bb565b60006113f38385611e81565b9050826114008583611e2f565b146114575760405162461bcd60e51b815260206004820152602160248201527f536166654d6174683a206d756c7469706c69636174696f6e206f766572666c6f6044820152607760f81b60648201526084016103ec565b9392505050565b600061145783836040518060400160405280601e81526020017f536166654d6174683a207375627472616374696f6e206f766572666c6f770000815250611b18565b60016001607a1b0384111580156114be575060016001607a1b038311155b61150a5760405162461bcd60e51b815260206004820152601860248201527f5377617050616972546f6b656e733a204f564552464c4f57000000000000000060448201526064016103ec565b600061151b64010000000042611e98565b60075490915060009061153b90600160e01b900463ffffffff1683611eac565b905060008163ffffffff1611801561155b57506001600160701b03841615155b801561156f57506001600160701b03831615155b156115fe578063ffffffff166115978561158886611b52565b6001600160e01b031690611b6b565b6001600160e01b03166115aa9190611e81565b600860008282546115bb9190611ed0565b909155505063ffffffff81166115d48461158887611b52565b6001600160e01b03166115e79190611e81565b600960008282546115f89190611ed0565b90915550505b6007805463ffffffff8416600160e01b026001600160e01b036001600160701b03898116600160701b9081026001600160e01b03199095168c83161794909417918216831794859055604080519382169282169290921783529290930490911660208201527fcf2aa50876cdfbb541206f89af0ee78d44a2abf8d328e37fa4917f982149848a910160405180910390a1505050505050565b6001600160a01b0382166116ec5760405162461bcd60e51b815260206004820152601b60248201527f5370656e6465722063616e6e6f7420626520302061646472657373000000000060448201526064016103ec565b6001600160a01b0383166117425760405162461bcd60e51b815260206004820152601960248201527f4f776e65722063616e6e6f74206265203020616464726573730000000000000060448201526064016103ec565b6001600160a01b0383811660008181526002602090815260408083209487168084529482529182902085905590518481527f8c5be1e5ebec7d5bd14f71427d1e84f3dd0314c0f7b2291e5b200ac8c7c3b92591015b60405180910390a3505050565b6001600160a01b0383166000908152600160205260409020546117c7908261145e565b6001600160a01b0380851660009081526001602052604080822093909355908416815220546117f69082611b80565b6001600160a01b0380841660008181526001602052604090819020939093559151908516907fddf252ad1be2c89b69c2b068fc378daa952ba7f163c4a11628f55a4df523b3ef906117979085815260200190565b6004805460408051622fcfcb60e31b8152905160009384936001600160a01b03169263017e7e5892818301926020928290030181865afa158015611892573d6000803e3d6000fd5b505050506040513d601f19601f820116820180604052508101906118b69190611ee3565b600a546001600160a01b0382161580159450919250906119655780156119605760006118f1610b866001600160701b038881169088166113d5565b905060006118fe83611979565b90508082111561195d576000611920611917848461145e565b600054906113d5565b90506000611939836119338660056113d5565b90611b80565b905060006119478284611e2f565b905080156119595761195987826119e9565b5050505b50505b611971565b8015611971576000600a555b505092915050565b600060038211156119da5750806000611993600283611e2f565b61199e906001611ed0565b90505b818110156119d4579050806002816119b98186611e2f565b6119c39190611ed0565b6119cd9190611e2f565b90506119a1565b50919050565b81156119e4575060015b919050565b6000546119f69082611b80565b60009081556001600160a01b038316815260016020526040902054611a1b9082611b80565b6001600160a01b0383166000818152600160205260408082209390935591519091907fddf252ad1be2c89b69c2b068fc378daa952ba7f163c4a11628f55a4df523b3ef90611a6c9085815260200190565b60405180910390a35050565b6000818310611a875781611457565b5090919050565b6001600160a01b038216600090815260016020526040902054611ab1908261145e565b6001600160a01b03831660009081526001602052604081209190915554611ad8908261145e565b60009081556040518281526001600160a01b038416907fddf252ad1be2c89b69c2b068fc378daa952ba7f163c4a11628f55a4df523b3ef90602001611a6c565b60008184841115611b3c5760405162461bcd60e51b81526004016103ec9190611cb1565b506000611b498486611e06565b95945050505050565b60006108bb600160701b6001600160701b038416611f00565b60006114576001600160701b03831684611f32565b600080611b8d8385611ed0565b9050838110156114575760405162461bcd60e51b815260206004820152601b60248201527f536166654d6174683a206164646974696f6e206f766572666c6f77000000000060448201526064016103ec565b6001600160a01b0381168114611bf457600080fd5b50565b600080600080600060808688031215611c0f57600080fd5b85359450602086013593506040860135611c2881611bdf565b9250606086013567ffffffffffffffff80821115611c4557600080fd5b818801915088601f830112611c5957600080fd5b813581811115611c6857600080fd5b896020828501011115611c7a57600080fd5b9699959850939650602001949392505050565b60005b83811015611ca8578181015183820152602001611c90565b50506000910152565b6020815260008251806020840152611cd0816040850160208701611c8d565b601f01601f19169190910160400192915050565b60008060408385031215611cf757600080fd5b8235611d0281611bdf565b946020939093013593505050565b600080600060608486031215611d2557600080fd5b8335611d3081611bdf565b92506020840135611d4081611bdf565b929592945050506040919091013590565b60008060408385031215611d6457600080fd5b8235611d6f81611bdf565b91506020830135611d7f81611bdf565b809150509250929050565b600060208284031215611d9c57600080fd5b813561145781611bdf565b60208082526016908201527514ddd85c14185a5c951bdad95b9cce881313d0d2d15160521b604082015260600190565b600060208284031215611de957600080fd5b5051919050565b634e487b7160e01b600052601160045260246000fd5b818103818111156108bb576108bb611df0565b634e487b7160e01b600052601260045260246000fd5b600082611e3e57611e3e611e19565b500490565b60008251611e55818460208701611c8d565b9190910192915050565b600060208284031215611e7157600080fd5b8151801515811461145757600080fd5b80820281158282048414176108bb576108bb611df0565b600082611ea757611ea7611e19565b500690565b63ffffffff828116828216039080821115611ec957611ec9611df0565b5092915050565b808201808211156108bb576108bb611df0565b600060208284031215611ef557600080fd5b815161145781611bdf565b6001600160e01b03828116828216818102831692918115828504821417611f2957611f29611df0565b50505092915050565b60006001600160e01b0383811680611f4c57611f4c611e19565b9216919091049291505056fea2646970667358221220aa53c89c926f723da8e908102b1d9a9c7465d0bf3187bafac75db02246046d9164736f6c63430008130033",
  "linkReferences": {},
  "deployedLinkReferences": {}
}