{
  "address": "0xA51c1fc2f0D1a1b8494Ed1FE312d7C3a78Ed91C0",
  "abi": [
    {
      "inputs": [
        {
          "internalType": "address",
          "name": "_factory",
          "type": "address"
        },
        {
          "internalType": "address",
          "name": "_WETH",
          "type": "address"
        }
      ],
      "stateMutability": "nonpayable",
      "type": "constructor"
    },
    {
      "inputs": [],
      "name": "WETH",
      "outputs": [
        {
          "internalType": "address",
          "name": "",
          "type": "address"
        }
      ],
      "stateMutability": "view",
      "type": "function"
    },
    {
      "inputs": [
        {
          "internalType": "uint256",
          "name": "_amount",
          "type": "uint256"
        }
      ],
      "name": "borrowETH",
      "outputs": [],
      "stateMutability": "nonpayable",
      "type": "function"
    },
    {
      "inputs": [
        {
          "internalType": "address",
          "name": "_token",
          "type": "address"
        },
        {
          "internalType": "uint256",
          "name": "_amount",
          "type": "uint256"
        }
      ],
      "name": "borrowToken",
      "outputs": [],
      "stateMutability": "nonpayable",
      "type": "function"
    },
    {
      "inputs": [
        {
          "internalType": "address",
          "name": "_token",
          "type": "address"
        }
      ],
      "name": "createPool",
      "outputs": [],
      "stateMutability": "nonpayable",
      "type": "function"
    },
    {
      "inputs": [
        {
          "internalType": "uint256",
          "name": "_amount",
          "type": "uint256"
        }
      ],
      "name": "depositETH",
      "outputs": [],
      "stateMutability": "payable",
      "type": "function"
    },
    {
      "inputs": [
        {
          "internalType": "address",
          "name": "_token",
          "type": "address"
        },
        {
          "internalType": "uint256",
          "name": "_amount",
          "type": "uint256"
        }
      ],
      "name": "depositToken",
      "outputs": [],
      "stateMutability": "nonpayable",
      "type": "function"
    },
    {
      "inputs": [],
      "name": "factory",
      "outputs": [
        {
          "internalType": "address",
          "name": "",
          "type": "address"
        }
      ],
      "stateMutability": "view",
      "type": "function"
    },
    {
      "inputs": [
        {
          "internalType": "address",
          "name": "_token",
          "type": "address"
        }
      ],
      "name": "getBalance",
      "outputs": [
        {
          "internalType": "uint256",
          "name": "balance",
          "type": "uint256"
        }
      ],
      "stateMutability": "view",
      "type": "function"
    },
    {
      "inputs": [
        {
          "internalType": "address",
          "name": "_token",
          "type": "address"
        },
        {
          "internalType": "address",
          "name": "_user",
          "type": "address"
        }
      ],
      "name": "getBorrowAmount",
      "outputs": [
        {
          "internalType": "uint256",
          "name": "amount",
          "type": "uint256"
        }
      ],
      "stateMutability": "view",
      "type": "function"
    },
    {
      "inputs": [
        {
          "internalType": "address",
          "name": "_token",
          "type": "address"
        },
        {
          "internalType": "address",
          "name": "_user",
          "type": "address"
        }
      ],
      "name": "getLendAmount",
      "outputs": [
        {
          "internalType": "uint256",
          "name": "amount",
          "type": "uint256"
        }
      ],
      "stateMutability": "view",
      "type": "function"
    },
    {
      "inputs": [
        {
          "internalType": "address",
          "name": "_token",
          "type": "address"
        }
      ],
      "name": "getPoolAddress",
      "outputs": [
        {
          "internalType": "address",
          "name": "pool",
          "type": "address"
        }
      ],
      "stateMutability": "view",
      "type": "function"
    },
    {
      "inputs": [
        {
          "internalType": "address",
          "name": "_token",
          "type": "address"
        },
        {
          "internalType": "address",
          "name": "_user",
          "type": "address"
        },
        {
          "internalType": "uint256",
          "name": "repayAmount",
          "type": "uint256"
        }
      ],
      "name": "getRepayAmount",
      "outputs": [
        {
          "internalType": "uint256",
          "name": "amount",
          "type": "uint256"
        }
      ],
      "stateMutability": "view",
      "type": "function"
    },
    {
      "inputs": [
        {
          "internalType": "address",
          "name": "_token",
          "type": "address"
        },
        {
          "internalType": "address",
          "name": "_user",
          "type": "address"
        },
        {
          "internalType": "uint256",
          "name": "withdrawAmount",
          "type": "uint256"
        }
      ],
      "name": "getWithdrawAmount",
      "outputs": [
        {
          "internalType": "uint256",
          "name": "amount",
          "type": "uint256"
        }
      ],
      "stateMutability": "view",
      "type": "function"
    },
    {
      "inputs": [
        {
          "internalType": "uint256",
          "name": "_amount",
          "type": "uint256"
        }
      ],
      "name": "repayETH",
      "outputs": [],
      "stateMutability": "payable",
      "type": "function"
    },
    {
      "inputs": [
        {
          "internalType": "address",
          "name": "_token",
          "type": "address"
        },
        {
          "internalType": "uint256",
          "name": "_amount",
          "type": "uint256"
        }
      ],
      "name": "repayToken",
      "outputs": [],
      "stateMutability": "nonpayable",
      "type": "function"
    },
    {
      "inputs": [
        {
          "internalType": "uint256",
          "name": "_amount",
          "type": "uint256"
        }
      ],
      "name": "withdrawETH",
      "outputs": [],
      "stateMutability": "nonpayable",
      "type": "function"
    },
    {
      "inputs": [
        {
          "internalType": "address",
          "name": "_token",
          "type": "address"
        },
        {
          "internalType": "uint256",
          "name": "_amount",
          "type": "uint256"
        }
      ],
      "name": "withdrawToken",
      "outputs": [],
      "stateMutability": "nonpayable",
      "type": "function"
    }
  ],
  "transactionHash": "0x366229d807b18bd06bf29e51107e5f8405b7677e08d9c16acdef5b10051ef5c4",
  "args": [
    "0x2279B7A0a67DB372996a5FaB50D91eAA73d2eBe6",
    "0xa513E6E4b8f2a923D98304ec87F64353C4D5C853"
  ],
  "numDeployments": 1,
  "solcInputHash": "130e622908746bdf89c1fdb43fcf5faf",
  "bytecode": "0x60c060405234801561001057600080fd5b5060405161169a38038061169a83398101604081905261002f91610062565b6001600160a01b039182166080521660a052610095565b80516001600160a01b038116811461005d57600080fd5b919050565b6000806040838503121561007557600080fd5b61007e83610046565b915061008c60208401610046565b90509250929050565b60805160a051611569610131600039600081816102c8015281816105370152818161058a015281816105f50152818161066c015281816109240152818161094c015281816109c301528181610a5a01528181610b2001528181610bba01528181610c4601528181610ebf01528181610f1201528181610fbb01526110490152600081816102fc015281816103800152610cd301526115696000f3fe6080604052600436106100fe5760003560e01c80635a91b39c116100955780639e281a98116100645780639e281a9814610296578063ad5c4648146102b6578063c45a0155146102ea578063f14210a61461031e578063f8b2cb4f1461033e57600080fd5b80635a91b39c146102165780637b2af625146102365780639049f9d214610256578063987242e91461027657600080fd5b80632553c96b116100d15780632553c96b146101a3578063338b5dea146101c357806338bad5e5146101e35780635358fbda1461020357600080fd5b80631228cbee146101035780631ad58a2114610140578063214ea2181461016e5780632247463e14610190575b600080fd5b34801561010f57600080fd5b5061012361011e36600461131e565b61035e565b6040516001600160a01b0390911681526020015b60405180910390f35b34801561014c57600080fd5b5061016061015b366004611342565b6103f3565b604051908152602001610137565b34801561017a57600080fd5b5061018e610189366004611383565b61047e565b005b61018e61019e3660046113af565b610530565b3480156101af57600080fd5b506101606101be366004611342565b610712565b3480156101cf57600080fd5b5061018e6101de366004611383565b610757565b3480156101ef57600080fd5b506101606101fe3660046113c8565b610836565b61018e6102113660046113af565b6108dd565b34801561022257600080fd5b5061018e610231366004611383565b6109ed565b34801561024257600080fd5b5061018e6102513660046113af565b610a53565b34801561026257600080fd5b5061018e61027136600461131e565b610cb4565b34801561028257600080fd5b506101606102913660046113c8565b610d40565b3480156102a257600080fd5b5061018e6102b1366004611383565b610da2565b3480156102c257600080fd5b506101237f000000000000000000000000000000000000000000000000000000000000000081565b3480156102f657600080fd5b506101237f000000000000000000000000000000000000000000000000000000000000000081565b34801561032a57600080fd5b5061018e6103393660046113af565b610eb8565b34801561034a57600080fd5b5061016061035936600461131e565b6110b7565b60405163bbe4f6db60e01b81526001600160a01b0382811660048301526000917f00000000000000000000000000000000000000000000000000000000000000009091169063bbe4f6db90602401602060405180830381865afa1580156103c9573d6000803e3d6000fd5b505050506040513d601f19601f820116820180604052508101906103ed9190611401565b92915050565b6000806103ff8561035e565b604051634722a53160e01b81526001600160a01b0386811660048301526024820186905291925090821690634722a531906044015b602060405180830381865afa158015610451573d6000803e3d6000fd5b505050506040513d601f19601f82011682018060405250810190610475919061141e565b95945050505050565b60006104898361035e565b90506001600160a01b0381166104ba5760405162461bcd60e51b81526004016104b190611437565b60405180910390fd5b60006104c7843385610712565b604051630450cfaf60e31b8152336004820152602481018290529091506001600160a01b038316906322867d7890604401600060405180830381600087803b15801561051257600080fd5b505af1158015610526573d6000803e3d6000fd5b5050505050505050565b600061055b7f000000000000000000000000000000000000000000000000000000000000000061035e565b90506001600160a01b0381166105835760405162461bcd60e51b81526004016104b190611437565b60006105b07f00000000000000000000000000000000000000000000000000000000000000003385610712565b9050803410156105f35760405162461bcd60e51b815260206004820152600e60248201526d125b9d985b1a5908185b5bdd5b9d60921b60448201526064016104b1565b7f00000000000000000000000000000000000000000000000000000000000000006001600160a01b031663d0e30db0346040518263ffffffff1660e01b81526004016000604051808303818588803b15801561064e57600080fd5b505af1158015610662573d6000803e3d6000fd5b50505050506106927f00000000000000000000000000000000000000000000000000000000000000003383611122565b604051630450cfaf60e31b8152336004820152602481018490526001600160a01b038316906322867d7890604401600060405180830381600087803b1580156106da57600080fd5b505af11580156106ee573d6000803e3d6000fd5b505050508034111561070d5761070d336107088334611464565b61123d565b505050565b60008061071e8561035e565b60405163aa1970df60e01b81526001600160a01b038681166004830152602482018690529192509082169063aa1970df90604401610434565b60006107628361035e565b90506001600160a01b038116156107d957604051636e553f6560e01b8152600481018390523360248201526001600160a01b03821690636e553f65906044015b600060405180830381600087803b1580156107bc57600080fd5b505af11580156107d0573d6000803e3d6000fd5b50505050505050565b6107e283610cb4565b6107eb8361035e565b604051636e553f6560e01b8152600481018490523360248201529091506001600160a01b03821690636e553f6590604401600060405180830381600087803b1580156107bc57600080fd5b6000806108428461035e565b90506001600160a01b03811661086a5760405162461bcd60e51b81526004016104b190611437565b604051638d113a7f60e01b81526001600160a01b038481166004830152821690638d113a7f906024015b6040805180830381865afa1580156108b0573d6000803e3d6000fd5b505050506040513d601f19601f820116820180604052508101906108d49190611485565b51949350505050565b34811461091d5760405162461bcd60e51b815260206004820152600e60248201526d125b9d985b1a5908185b5bdd5b9d60921b60448201526064016104b1565b60006109487f000000000000000000000000000000000000000000000000000000000000000061035e565b90507f00000000000000000000000000000000000000000000000000000000000000006001600160a01b031663d0e30db0346040518263ffffffff1660e01b81526004016000604051808303818588803b1580156109a557600080fd5b505af11580156109b9573d6000803e3d6000fd5b50505050506109e97f00000000000000000000000000000000000000000000000000000000000000008234611122565b5050565b60006109f88361035e565b90506001600160a01b038116610a205760405162461bcd60e51b81526004016104b190611437565b604051630967fa2960e31b8152600481018390523360248201526001600160a01b03821690634b3fd148906044016107a2565b6000610a7e7f000000000000000000000000000000000000000000000000000000000000000061035e565b90506001600160a01b038116610aa65760405162461bcd60e51b81526004016104b190611437565b604051630967fa2960e31b8152600481018390523360248201526001600160a01b03821690634b3fd14890604401600060405180830381600087803b158015610aee57600080fd5b505af1158015610b02573d6000803e3d6000fd5b505060405163095ea7b360e01b8152306004820152602481018590527f00000000000000000000000000000000000000000000000000000000000000006001600160a01b0316925063095ea7b391506044016020604051808303816000875af1158015610b73573d6000803e3d6000fd5b505050506040513d601f19601f82011682018060405250810190610b9791906114e2565b506040516323b872dd60e01b8152306004820152336024820152604481018390527f00000000000000000000000000000000000000000000000000000000000000006001600160a01b0316906323b872dd906064016020604051808303816000875af1158015610c0b573d6000803e3d6000fd5b505050506040513d601f19601f82011682018060405250810190610c2f91906114e2565b50604051632e1a7d4d60e01b8152600481018390527f00000000000000000000000000000000000000000000000000000000000000006001600160a01b031690632e1a7d4d90602401600060405180830381600087803b158015610c9257600080fd5b505af1158015610ca6573d6000803e3d6000fd5b505050506109e9338361123d565b604051634824fce960e11b81526001600160a01b0382811660048301527f00000000000000000000000000000000000000000000000000000000000000001690639049f9d2906024016020604051808303816000875af1158015610d1c573d6000803e3d6000fd5b505050506040513d601f19601f820116820180604052508101906109e99190611401565b600080610d4c8461035e565b90506001600160a01b038116610d745760405162461bcd60e51b81526004016104b190611437565b604051630e3c6d1360e11b81526001600160a01b038481166004830152821690631c78da2690602401610894565b6000610dad8361035e565b90506001600160a01b038116610dd55760405162461bcd60e51b81526004016104b190611437565b604051630e3c6d1360e11b81523360048201526000906001600160a01b03831690631c78da26906024016040805180830381865afa158015610e1b573d6000803e3d6000fd5b505050506040513d601f19601f82011682018060405250810190610e3f9190611485565b5111610e855760405162461bcd60e51b81526020600482015260156024820152744e6f20616d6f756e7420746f20776974686472617760581b60448201526064016104b1565b60405163f3fef3a360e01b8152336004820152602481018390526001600160a01b0382169063f3fef3a3906044016107a2565b6000610ee37f000000000000000000000000000000000000000000000000000000000000000061035e565b90506001600160a01b038116610f0b5760405162461bcd60e51b81526004016104b190611437565b6000610f387f000000000000000000000000000000000000000000000000000000000000000033856103f3565b60405163f3fef3a360e01b8152336004820152602481018590529091506001600160a01b0383169063f3fef3a390604401600060405180830381600087803b158015610f8357600080fd5b505af1158015610f97573d6000803e3d6000fd5b50506040516323b872dd60e01b8152336004820152306024820152604481018490527f00000000000000000000000000000000000000000000000000000000000000006001600160a01b031692506323b872dd91506064016020604051808303816000875af115801561100e573d6000803e3d6000fd5b505050506040513d601f19601f8201168201806040525081019061103291906114e2565b50604051632e1a7d4d60e01b8152600481018290527f00000000000000000000000000000000000000000000000000000000000000006001600160a01b031690632e1a7d4d90602401600060405180830381600087803b15801561109557600080fd5b505af11580156110a9573d6000803e3d6000fd5b5050505061070d338461123d565b6040516370a0823160e01b81523060048201526000906001600160a01b038316906370a0823190602401602060405180830381865afa1580156110fe573d6000803e3d6000fd5b505050506040513d601f19601f820116820180604052508101906103ed919061141e565b604080516001600160a01b038481166024830152604480830185905283518084039091018152606490920183526020820180516001600160e01b031663a9059cbb60e01b179052915160009283929087169161117e9190611504565b6000604051808303816000865af19150503d80600081146111bb576040519150601f19603f3d011682016040523d82523d6000602084013e6111c0565b606091505b50915091508180156111ea5750805115806111ea5750808060200190518101906111ea91906114e2565b6112365760405162461bcd60e51b815260206004820152601f60248201527f5472616e7366657248656c7065723a205452414e534645525f4641494c45440060448201526064016104b1565b5050505050565b604080516000808252602082019092526001600160a01b0384169083906040516112679190611504565b60006040518083038185875af1925050503d80600081146112a4576040519150601f19603f3d011682016040523d82523d6000602084013e6112a9565b606091505b505090508061070d5760405162461bcd60e51b815260206004820152602360248201527f5472616e7366657248656c7065723a204554485f5452414e534645525f46414960448201526213115160ea1b60648201526084016104b1565b6001600160a01b038116811461131b57600080fd5b50565b60006020828403121561133057600080fd5b813561133b81611306565b9392505050565b60008060006060848603121561135757600080fd5b833561136281611306565b9250602084013561137281611306565b929592945050506040919091013590565b6000806040838503121561139657600080fd5b82356113a181611306565b946020939093013593505050565b6000602082840312156113c157600080fd5b5035919050565b600080604083850312156113db57600080fd5b82356113e681611306565b915060208301356113f681611306565b809150509250929050565b60006020828403121561141357600080fd5b815161133b81611306565b60006020828403121561143057600080fd5b5051919050565b602080825260139082015272141bdbdb08191bd95cc81b9bdd08195e1a5cdd606a1b604082015260600190565b818103818111156103ed57634e487b7160e01b600052601160045260246000fd5b60006040828403121561149757600080fd5b6040516040810181811067ffffffffffffffff821117156114c857634e487b7160e01b600052604160045260246000fd5b604052825181526020928301519281019290925250919050565b6000602082840312156114f457600080fd5b8151801515811461133b57600080fd5b6000825160005b81811015611525576020818601810151858301520161150b565b50600092019182525091905056fea264697066735822122049cac18b75bd1a573a62ad7d35becdfda7d19d5181fed33d365d155a4cff17c264736f6c63430008130033",
  "devdoc": {
    "kind": "dev",
    "methods": {},
    "version": 1
  },
  "userdoc": {
    "kind": "user",
    "methods": {},
    "version": 1
  },
  "storageLayout": {
    "storage": [],
    "types": null
  }
}