{
  "address": "0x59b670e9fA9D0A427751Af201D676719a970857b",
  "abi": [
    {
      "inputs": [
        {
          "internalType": "address",
          "name": "_tokenAddress",
          "type": "address"
        }
      ],
      "stateMutability": "nonpayable",
      "type": "constructor"
    },
    {
      "inputs": [],
      "name": "LendingPool__InvalidAmount",
      "type": "error"
    },
    {
      "inputs": [],
      "name": "LendingPool__InvalidUser",
      "type": "error"
    },
    {
      "inputs": [],
      "name": "LendingPool__InvalidValue",
      "type": "error"
    },
    {
      "anonymous": false,
      "inputs": [
        {
          "indexed": true,
          "internalType": "address",
          "name": "owner",
          "type": "address"
        },
        {
          "indexed": true,
          "internalType": "address",
          "name": "spender",
          "type": "address"
        },
        {
          "indexed": false,
          "internalType": "uint256",
          "name": "value",
          "type": "uint256"
        }
      ],
      "name": "Approval",
      "type": "event"
    },
    {
      "anonymous": false,
      "inputs": [
        {
          "indexed": true,
          "internalType": "address",
          "name": "user",
          "type": "address"
        },
        {
          "indexed": false,
          "internalType": "uint256",
          "name": "amount",
          "type": "uint256"
        }
      ],
      "name": "Borrow",
      "type": "event"
    },
    {
      "anonymous": false,
      "inputs": [
        {
          "indexed": true,
          "internalType": "address",
          "name": "user",
          "type": "address"
        },
        {
          "indexed": false,
          "internalType": "uint256",
          "name": "amount",
          "type": "uint256"
        }
      ],
      "name": "Deposit",
      "type": "event"
    },
    {
      "anonymous": false,
      "inputs": [
        {
          "indexed": true,
          "internalType": "address",
          "name": "user",
          "type": "address"
        },
        {
          "indexed": false,
          "internalType": "uint256",
          "name": "amount",
          "type": "uint256"
        }
      ],
      "name": "Repay",
      "type": "event"
    },
    {
      "anonymous": false,
      "inputs": [
        {
          "indexed": true,
          "internalType": "address",
          "name": "from",
          "type": "address"
        },
        {
          "indexed": true,
          "internalType": "address",
          "name": "to",
          "type": "address"
        },
        {
          "indexed": false,
          "internalType": "uint256",
          "name": "value",
          "type": "uint256"
        }
      ],
      "name": "Transfer",
      "type": "event"
    },
    {
      "anonymous": false,
      "inputs": [
        {
          "indexed": true,
          "internalType": "address",
          "name": "user",
          "type": "address"
        },
        {
          "indexed": false,
          "internalType": "uint256",
          "name": "amount",
          "type": "uint256"
        }
      ],
      "name": "Withdraw",
      "type": "event"
    },
    {
      "inputs": [
        {
          "internalType": "address",
          "name": "owner",
          "type": "address"
        },
        {
          "internalType": "address",
          "name": "spender",
          "type": "address"
        }
      ],
      "name": "allowance",
      "outputs": [
        {
          "internalType": "uint256",
          "name": "",
          "type": "uint256"
        }
      ],
      "stateMutability": "view",
      "type": "function"
    },
    {
      "inputs": [
        {
          "internalType": "address",
          "name": "spender",
          "type": "address"
        },
        {
          "internalType": "uint256",
          "name": "amount",
          "type": "uint256"
        }
      ],
      "name": "approve",
      "outputs": [
        {
          "internalType": "bool",
          "name": "",
          "type": "bool"
        }
      ],
      "stateMutability": "nonpayable",
      "type": "function"
    },
    {
      "inputs": [
        {
          "internalType": "address",
          "name": "account",
          "type": "address"
        }
      ],
      "name": "balanceOf",
      "outputs": [
        {
          "internalType": "uint256",
          "name": "",
          "type": "uint256"
        }
      ],
      "stateMutability": "view",
      "type": "function"
    },
    {
      "inputs": [
        {
          "internalType": "uint256",
          "name": "_amount",
          "type": "uint256"
        },
        {
          "internalType": "address",
          "name": "_user",
          "type": "address"
        }
      ],
      "name": "borrow",
      "outputs": [],
      "stateMutability": "nonpayable",
      "type": "function"
    },
    {
      "inputs": [],
      "name": "decimals",
      "outputs": [
        {
          "internalType": "uint8",
          "name": "",
          "type": "uint8"
        }
      ],
      "stateMutability": "view",
      "type": "function"
    },
    {
      "inputs": [
        {
          "internalType": "address",
          "name": "spender",
          "type": "address"
        },
        {
          "internalType": "uint256",
          "name": "subtractedValue",
          "type": "uint256"
        }
      ],
      "name": "decreaseAllowance",
      "outputs": [
        {
          "internalType": "bool",
          "name": "",
          "type": "bool"
        }
      ],
      "stateMutability": "nonpayable",
      "type": "function"
    },
    {
      "inputs": [
        {
          "internalType": "uint256",
          "name": "_amount",
          "type": "uint256"
        },
        {
          "internalType": "address",
          "name": "_user",
          "type": "address"
        }
      ],
      "name": "deposit",
      "outputs": [],
      "stateMutability": "nonpayable",
      "type": "function"
    },
    {
      "inputs": [],
      "name": "getBorrowRate",
      "outputs": [
        {
          "internalType": "uint256",
          "name": "",
          "type": "uint256"
        }
      ],
      "stateMutability": "view",
      "type": "function"
    },
    {
      "inputs": [
        {
          "internalType": "address",
          "name": "_user",
          "type": "address"
        }
      ],
      "name": "getBorrowers",
      "outputs": [
        {
          "internalType": "uint256",
          "name": "",
          "type": "uint256"
        }
      ],
      "stateMutability": "view",
      "type": "function"
    },
    {
      "inputs": [
        {
          "internalType": "address",
          "name": "_tokenAddress",
          "type": "address"
        }
      ],
      "name": "getCurrentTotalSupply",
      "outputs": [
        {
          "internalType": "uint256",
          "name": "",
          "type": "uint256"
        }
      ],
      "stateMutability": "view",
      "type": "function"
    },
    {
      "inputs": [
        {
          "internalType": "address",
          "name": "spender",
          "type": "address"
        },
        {
          "internalType": "uint256",
          "name": "addedValue",
          "type": "uint256"
        }
      ],
      "name": "increaseAllowance",
      "outputs": [
        {
          "internalType": "bool",
          "name": "",
          "type": "bool"
        }
      ],
      "stateMutability": "nonpayable",
      "type": "function"
    },
    {
      "inputs": [
        {
          "internalType": "address",
          "name": "_user",
          "type": "address"
        },
        {
          "internalType": "uint256",
          "name": "_liquidateAmount",
          "type": "uint256"
        }
      ],
      "name": "liquidate",
      "outputs": [],
      "stateMutability": "nonpayable",
      "type": "function"
    },
    {
      "inputs": [],
      "name": "name",
      "outputs": [
        {
          "internalType": "string",
          "name": "",
          "type": "string"
        }
      ],
      "stateMutability": "view",
      "type": "function"
    },
    {
      "inputs": [
        {
          "internalType": "address",
          "name": "_user",
          "type": "address"
        },
        {
          "internalType": "uint256",
          "name": "_repayAmount",
          "type": "uint256"
        }
      ],
      "name": "repay",
      "outputs": [],
      "stateMutability": "nonpayable",
      "type": "function"
    },
    {
      "inputs": [],
      "name": "symbol",
      "outputs": [
        {
          "internalType": "string",
          "name": "",
          "type": "string"
        }
      ],
      "stateMutability": "view",
      "type": "function"
    },
    {
      "inputs": [],
      "name": "tokenAddress",
      "outputs": [
        {
          "internalType": "address",
          "name": "",
          "type": "address"
        }
      ],
      "stateMutability": "view",
      "type": "function"
    },
    {
      "inputs": [],
      "name": "totalSupply",
      "outputs": [
        {
          "internalType": "uint256",
          "name": "",
          "type": "uint256"
        }
      ],
      "stateMutability": "view",
      "type": "function"
    },
    {
      "inputs": [
        {
          "internalType": "address",
          "name": "to",
          "type": "address"
        },
        {
          "internalType": "uint256",
          "name": "amount",
          "type": "uint256"
        }
      ],
      "name": "transfer",
      "outputs": [
        {
          "internalType": "bool",
          "name": "",
          "type": "bool"
        }
      ],
      "stateMutability": "nonpayable",
      "type": "function"
    },
    {
      "inputs": [
        {
          "internalType": "address",
          "name": "from",
          "type": "address"
        },
        {
          "internalType": "address",
          "name": "to",
          "type": "address"
        },
        {
          "internalType": "uint256",
          "name": "amount",
          "type": "uint256"
        }
      ],
      "name": "transferFrom",
      "outputs": [
        {
          "internalType": "bool",
          "name": "",
          "type": "bool"
        }
      ],
      "stateMutability": "nonpayable",
      "type": "function"
    },
    {
      "inputs": [
        {
          "internalType": "address",
          "name": "_user",
          "type": "address"
        },
        {
          "internalType": "uint256",
          "name": "_withdrawAmount",
          "type": "uint256"
        }
      ],
      "name": "withdraw",
      "outputs": [],
      "stateMutability": "nonpayable",
      "type": "function"
    }
  ],
  "transactionHash": "0xaf6ed397cc7132dc4c5382d55b3cdc2aa13051753c67af1eeb3d2bfe3f18f154",
  "args": [
    "0xa513E6E4b8f2a923D98304ec87F64353C4D5C853"
  ],
  "numDeployments": 1,
  "solcInputHash": "4a0961203fd6b1df472bb4c33de91406",
  "bytecode": "0x60c0604052606460075560826008553480156200001b57600080fd5b5060405162001ce038038062001ce08339810160408190526200003e9162000132565b604051806040016040528060068152602001652c2a37b5b2b760d11b81525060405180604001604052806002815260200161161560f21b815250816003908162000089919062000209565b50600462000098828262000209565b5050506001600160a01b038116608081905260a08190526040805163313ce56760e01b815290516000929163313ce5679160048083019260209291908290030181865afa158015620000ee573d6000803e3d6000fd5b505050506040513d601f19601f82011682018060405250810190620001149190620002d5565b60ff1690506200012681600a6200040f565b600655506200041d9050565b6000602082840312156200014557600080fd5b81516001600160a01b03811681146200015d57600080fd5b9392505050565b634e487b7160e01b600052604160045260246000fd5b600181811c908216806200018f57607f821691505b602082108103620001b057634e487b7160e01b600052602260045260246000fd5b50919050565b601f8211156200020457600081815260208120601f850160051c81016020861015620001df5750805b601f850160051c820191505b818110156200020057828155600101620001eb565b5050505b505050565b81516001600160401b0381111562000225576200022562000164565b6200023d816200023684546200017a565b84620001b6565b602080601f8311600181146200027557600084156200025c5750858301515b600019600386901b1c1916600185901b17855562000200565b600085815260208120601f198616915b82811015620002a65788860151825594840194600190910190840162000285565b5085821015620002c55787850151600019600388901b60f8161c191681555b5050505050600190811b01905550565b600060208284031215620002e857600080fd5b815160ff811681146200015d57600080fd5b634e487b7160e01b600052601160045260246000fd5b600181815b8085111562000351578160001904821115620003355762000335620002fa565b808516156200034357918102915b93841c939080029062000315565b509250929050565b6000826200036a5750600162000409565b81620003795750600062000409565b81600181146200039257600281146200039d57620003bd565b600191505062000409565b60ff841115620003b157620003b1620002fa565b50506001821b62000409565b5060208310610133831016604e8410600b8410161715620003e2575081810a62000409565b620003ee838362000310565b8060001904821115620004055762000405620002fa565b0290505b92915050565b60006200015d838362000359565b60805160a05161186c620004746000396000610253015260008181610447015281816106810152818161070b0152818161084201528181610a8901528181610b3801528181610c0c0152610dc0015261186c6000f3fe608060405234801561001057600080fd5b506004361061012c5760003560e01c806370a08231116100ad578063ba1c5e8011610071578063ba1c5e80146102b3578063bcbaf487146102bb578063d058fb8a146102ce578063dd62ed3e146102e1578063f3fef3a3146102f457600080fd5b806370a082311461021d57806395d89b41146102465780639d76ea581461024e578063a457c2d71461028d578063a9059cbb146102a057600080fd5b8063313ce567116100f4578063313ce567146101ac57806339509351146101bb5780634807b6cf146101ce5780634b3fd148146101f75780636e553f651461020a57600080fd5b806306fdde0314610131578063095ea7b31461014f57806318160ddd1461017257806322867d781461018457806323b872dd14610199575b600080fd5b610139610307565b6040516101469190611604565b60405180910390f35b61016261015d36600461166e565b610399565b6040519015158152602001610146565b6002545b604051908152602001610146565b61019761019236600461166e565b6103b3565b005b6101626101a7366004611698565b61058c565b60405160128152602001610146565b6101626101c936600461166e565b6105b0565b6101766101dc3660046116d4565b6001600160a01b03166000908152600e602052604090205490565b6101976102053660046116f6565b6105d2565b6101976102183660046116f6565b6107f5565b61017661022b3660046116d4565b6001600160a01b031660009081526020819052604090205490565b61013961094f565b6102757f000000000000000000000000000000000000000000000000000000000000000081565b6040516001600160a01b039091168152602001610146565b61016261029b36600461166e565b61095e565b6101626102ae36600461166e565b6109de565b600854610176565b6101976102c936600461166e565b6109ec565b6101766102dc3660046116d4565b610bea565b6101766102ef366004611722565b610c79565b61019761030236600461166e565b610ca4565b6060600380546103169061174c565b80601f01602080910402602001604051908101604052809291908181526020018280546103429061174c565b801561038f5780601f106103645761010080835404028352916020019161038f565b820191906000526020600020905b81548152906001019060200180831161037257829003601f168201915b5050505050905090565b6000336103a7818585610e73565b60019150505b92915050565b6001600160a01b0382166000908152600d602052604090205460ff166103ec57604051630d2a32b360e11b815260040160405180910390fd5b60006103f88383610f98565b90508060000361041b57604051633a9c46bf60e11b815260040160405180910390fd5b6040516323b872dd60e01b81526001600160a01b038481166004830152306024830152604482018390527f000000000000000000000000000000000000000000000000000000000000000016906323b872dd906064016020604051808303816000875af1158015610490573d6000803e3d6000fd5b505050506040513d601f19601f820116820180604052508101906104b49190611786565b506001600160a01b0383166000908152600e6020526040812080548492906104dd9084906117be565b90915550506001600160a01b0383166000908152600e60205260408120549003610522576001600160a01b0383166000908152600d60205260409020805460ff191690555b816005600082825461053491906117d1565b9091555061054390508361104a565b50826001600160a01b03167f5c16de4f8b59bd9caf0f49a545f25819a895ed223294290b408242e72a5942318360405161057f91815260200190565b60405180910390a2505050565b60003361059a8582856110c7565b6105a5858585611141565b506001949350505050565b6000336103a78185856105c38383610c79565b6105cd91906117d1565b610e73565b816000036105f357604051633a9c46bf60e11b815260040160405180910390fd5b600a60055461060291906117e4565b8211156106225760405163de71bbd360e01b815260040160405180910390fd5b6001600160a01b0381166000908152600e6020526040812083815542600190910155600580548492906106569084906117be565b909155505060405163a9059cbb60e01b81526001600160a01b038281166004830152602482018490527f0000000000000000000000000000000000000000000000000000000000000000169063a9059cbb906044016020604051808303816000875af11580156106ca573d6000803e3d6000fd5b505050506040513d601f19601f820116820180604052508101906106ee9190611786565b5060405163095ea7b360e01b8152306004820152602481018390527f00000000000000000000000000000000000000000000000000000000000000006001600160a01b03169063095ea7b3906044016020604051808303816000875af115801561075c573d6000803e3d6000fd5b505050506040513d601f19601f820116820180604052508101906107809190611786565b506001600160a01b0381166000908152600d60205260409020805460ff191660011790556107ad8161104a565b50806001600160a01b03167fcbc04eca7e9da35cb1393a6135a199ca52e450d5e9251cbd99f7847d33a36750836040516107e991815260200190565b60405180910390a25050565b8160000361081657604051633a9c46bf60e11b815260040160405180910390fd5b6040516323b872dd60e01b81526001600160a01b038281166004830152306024830152604482018490527f000000000000000000000000000000000000000000000000000000000000000016906323b872dd906064016020604051808303816000875af115801561088b573d6000803e3d6000fd5b505050506040513d601f19601f820116820180604052508101906108af9190611786565b506001600160a01b0381166000908152600a6020908152604080832085815542600191820155600c909252909120805460ff191690911790556108f281836112e5565b816005600082825461090491906117d1565b909155506109139050816113a4565b50806001600160a01b03167fe1fffcc4923d04b559f4d29a8bfc6cda04eb5b0d3c460751c2402c5c5cc9109c836040516107e991815260200190565b6060600480546103169061174c565b6000338161096c8286610c79565b9050838110156109d15760405162461bcd60e51b815260206004820152602560248201527f45524332303a2064656372656173656420616c6c6f77616e63652062656c6f77604482015264207a65726f60d81b60648201526084015b60405180910390fd5b6105a58286868403610e73565b6000336103a7818585611141565b6001600160a01b0382166000908152600d602052604090205460ff16610a2557604051630d2a32b360e11b815260040160405180910390fd5b6001600160a01b0382166000908152600e60205260409020548110610a5d57604051633a9c46bf60e11b815260040160405180910390fd5b6040516323b872dd60e01b81526001600160a01b038381166004830152306024830152604482018390527f000000000000000000000000000000000000000000000000000000000000000016906323b872dd906064016020604051808303816000875af1158015610ad2573d6000803e3d6000fd5b505050506040513d601f19601f82011682018060405250810190610af69190611786565b5060006064610b06836003611806565b610b1091906117e4565b9050610b1b8361104a565b5060405163a9059cbb60e01b8152336004820152602481018290527f00000000000000000000000000000000000000000000000000000000000000006001600160a01b03169063a9059cbb906044016020604051808303816000875af1158015610b89573d6000803e3d6000fd5b505050506040513d601f19601f82011682018060405250810190610bad9190611786565b50610bb881836117d1565b6001600160a01b0384166000908152600e602052604081208054909190610be09084906117be565b9091555050505050565b6040516370a0823160e01b81526001600160a01b0382811660048301526000917f0000000000000000000000000000000000000000000000000000000000000000909116906370a0823190602401602060405180830381865afa158015610c55573d6000803e3d6000fd5b505050506040513d601f19601f820116820180604052508101906103ad919061181d565b6001600160a01b03918216600090815260016020908152604080832093909416825291909152205490565b6001600160a01b0382166000908152600c602052604090205460ff16610cdd57604051630d2a32b360e11b815260040160405180910390fd5b6000610ce98383611421565b905080600003610d0c57604051633a9c46bf60e11b815260040160405180910390fd5b6001600160a01b0383166000908152600a602052604081208054839290610d349084906117be565b90915550506001600160a01b0383166000908152600a60205260408120549003610d79576001600160a01b0383166000908152600c60205260409020805460ff191690555b610d8383826114da565b8160056000828254610d9591906117be565b909155505060405163a9059cbb60e01b81526001600160a01b038481166004830152602482018490527f0000000000000000000000000000000000000000000000000000000000000000169063a9059cbb906044016020604051808303816000875af1158015610e09573d6000803e3d6000fd5b505050506040513d601f19601f82011682018060405250810190610e2d9190611786565b50610e37836113a4565b50826001600160a01b03167f884edad9ce6fa2440d8a54cc123490eb96d2768479d49ff9c7366125a94243648360405161057f91815260200190565b6001600160a01b038316610ed55760405162461bcd60e51b8152602060048201526024808201527f45524332303a20617070726f76652066726f6d20746865207a65726f206164646044820152637265737360e01b60648201526084016109c8565b6001600160a01b038216610f365760405162461bcd60e51b815260206004820152602260248201527f45524332303a20617070726f766520746f20746865207a65726f206164647265604482015261737360f01b60648201526084016109c8565b6001600160a01b0383811660008181526001602090815260408083209487168084529482529182902085905590518481527f8c5be1e5ebec7d5bd14f71427d1e84f3dd0314c0f7b2291e5b200ac8c7c3b92591015b60405180910390a3505050565b6001600160a01b0382166000908152600e602052604081208054831115610ff25760405162461bcd60e51b815260206004820152600e60248201526d125b9d985b1a5908185b5bdd5b9d60921b60448201526064016109c8565b600060055460065460085484600101544261100d91906117be565b6110179190611806565b61102191906117e4565b61102b9086611806565b61103591906117e4565b905061104181856117d1565b95945050505050565b6001600160a01b0381166000908152600e60205260408120600554600654600854600184015461107a90426117be565b6110849190611806565b61108e9190611806565b825461109a9190611806565b6110a491906117e4565b6001600160a01b039093166000908152600f602052604090208390555090919050565b60006110d38484610c79565b9050600019811461113b578181101561112e5760405162461bcd60e51b815260206004820152601d60248201527f45524332303a20696e73756666696369656e7420616c6c6f77616e636500000060448201526064016109c8565b61113b8484848403610e73565b50505050565b6001600160a01b0383166111a55760405162461bcd60e51b815260206004820152602560248201527f45524332303a207472616e736665722066726f6d20746865207a65726f206164604482015264647265737360d81b60648201526084016109c8565b6001600160a01b0382166112075760405162461bcd60e51b815260206004820152602360248201527f45524332303a207472616e7366657220746f20746865207a65726f206164647260448201526265737360e81b60648201526084016109c8565b6001600160a01b0383166000908152602081905260409020548181101561127f5760405162461bcd60e51b815260206004820152602660248201527f45524332303a207472616e7366657220616d6f756e7420657863656564732062604482015265616c616e636560d01b60648201526084016109c8565b6001600160a01b03848116600081815260208181526040808320878703905593871680835291849020805487019055925185815290927fddf252ad1be2c89b69c2b068fc378daa952ba7f163c4a11628f55a4df523b3ef910160405180910390a361113b565b6001600160a01b03821661133b5760405162461bcd60e51b815260206004820152601f60248201527f45524332303a206d696e7420746f20746865207a65726f20616464726573730060448201526064016109c8565b806002600082825461134d91906117d1565b90915550506001600160a01b038216600081815260208181526040808320805486019055518481527fddf252ad1be2c89b69c2b068fc378daa952ba7f163c4a11628f55a4df523b3ef910160405180910390a35050565b6001600160a01b0381166000908152600a6020526040812060055460065460075460018401546113d490426117be565b6113de9190611806565b6113e89190611806565b82546113f49190611806565b6113fe91906117e4565b6001600160a01b039093166000908152600b602052604090208390555090919050565b6001600160a01b0382166000908152600a60205260408120805483111561147b5760405162461bcd60e51b815260206004820152600e60248201526d125b9d985b1a5908185b5bdd5b9d60921b60448201526064016109c8565b600081600101544261148d91906117be565b9050600060055460065460075484886114a69190611806565b6114b09190611806565b6114ba9190611806565b6114c491906117e4565b90506114d081866117d1565b9695505050505050565b6001600160a01b03821661153a5760405162461bcd60e51b815260206004820152602160248201527f45524332303a206275726e2066726f6d20746865207a65726f206164647265736044820152607360f81b60648201526084016109c8565b6001600160a01b038216600090815260208190526040902054818110156115ae5760405162461bcd60e51b815260206004820152602260248201527f45524332303a206275726e20616d6f756e7420657863656564732062616c616e604482015261636560f01b60648201526084016109c8565b6001600160a01b0383166000818152602081815260408083208686039055600280548790039055518581529192917fddf252ad1be2c89b69c2b068fc378daa952ba7f163c4a11628f55a4df523b3ef9101610f8b565b600060208083528351808285015260005b8181101561163157858101830151858201604001528201611615565b506000604082860101526040601f19601f8301168501019250505092915050565b80356001600160a01b038116811461166957600080fd5b919050565b6000806040838503121561168157600080fd5b61168a83611652565b946020939093013593505050565b6000806000606084860312156116ad57600080fd5b6116b684611652565b92506116c460208501611652565b9150604084013590509250925092565b6000602082840312156116e657600080fd5b6116ef82611652565b9392505050565b6000806040838503121561170957600080fd5b8235915061171960208401611652565b90509250929050565b6000806040838503121561173557600080fd5b61173e83611652565b915061171960208401611652565b600181811c9082168061176057607f821691505b60208210810361178057634e487b7160e01b600052602260045260246000fd5b50919050565b60006020828403121561179857600080fd5b815180151581146116ef57600080fd5b634e487b7160e01b600052601160045260246000fd5b818103818111156103ad576103ad6117a8565b808201808211156103ad576103ad6117a8565b60008261180157634e487b7160e01b600052601260045260246000fd5b500490565b80820281158282048414176103ad576103ad6117a8565b60006020828403121561182f57600080fd5b505191905056fea26469706673582212207c43d8b3544a7ae2b34a60955c22f63dca6ed73084d74e0eb7a62648c44ae36a64736f6c63430008130033",
  "devdoc": {
    "events": {
      "Approval(address,address,uint256)": {
        "details": "Emitted when the allowance of a `spender` for an `owner` is set by a call to {approve}. `value` is the new allowance."
      },
      "Transfer(address,address,uint256)": {
        "details": "Emitted when `value` tokens are moved from one account (`from`) to another (`to`). Note that `value` may be zero."
      }
    },
    "kind": "dev",
    "methods": {
      "allowance(address,address)": {
        "details": "See {IERC20-allowance}."
      },
      "approve(address,uint256)": {
        "details": "See {IERC20-approve}. NOTE: If `amount` is the maximum `uint256`, the allowance is not updated on `transferFrom`. This is semantically equivalent to an infinite approval. Requirements: - `spender` cannot be the zero address."
      },
      "balanceOf(address)": {
        "details": "See {IERC20-balanceOf}."
      },
      "borrow(uint256,address)": {
        "details": "- to borrow the amount",
        "params": {
          "_amount": "- borrowed amount"
        }
      },
      "decimals()": {
        "details": "Returns the number of decimals used to get its user representation. For example, if `decimals` equals `2`, a balance of `505` tokens should be displayed to a user as `5.05` (`505 / 10 ** 2`). Tokens usually opt for a value of 18, imitating the relationship between Ether and Wei. This is the default value returned by this function, unless it's overridden. NOTE: This information is only used for _display_ purposes: it in no way affects any of the arithmetic of the contract, including {IERC20-balanceOf} and {IERC20-transfer}."
      },
      "decreaseAllowance(address,uint256)": {
        "details": "Atomically decreases the allowance granted to `spender` by the caller. This is an alternative to {approve} that can be used as a mitigation for problems described in {IERC20-approve}. Emits an {Approval} event indicating the updated allowance. Requirements: - `spender` cannot be the zero address. - `spender` must have allowance for the caller of at least `subtractedValue`."
      },
      "deposit(uint256,address)": {
        "details": "- to lend the amount by adding liquidity",
        "params": {
          "_amount": "- deposited amount"
        }
      },
      "increaseAllowance(address,uint256)": {
        "details": "Atomically increases the allowance granted to `spender` by the caller. This is an alternative to {approve} that can be used as a mitigation for problems described in {IERC20-approve}. Emits an {Approval} event indicating the updated allowance. Requirements: - `spender` cannot be the zero address."
      },
      "liquidate(address,uint256)": {
        "details": "- to liquidate the amount",
        "params": {
          "_liquidateAmount": "- amount to be liquidated"
        }
      },
      "name()": {
        "details": "Returns the name of the token."
      },
      "repay(address,uint256)": {
        "details": "- to repay the amount",
        "params": {
          "_repayAmount": "- amount to be repaid"
        }
      },
      "symbol()": {
        "details": "Returns the symbol of the token, usually a shorter version of the name."
      },
      "totalSupply()": {
        "details": "See {IERC20-totalSupply}."
      },
      "transfer(address,uint256)": {
        "details": "See {IERC20-transfer}. Requirements: - `to` cannot be the zero address. - the caller must have a balance of at least `amount`."
      },
      "transferFrom(address,address,uint256)": {
        "details": "See {IERC20-transferFrom}. Emits an {Approval} event indicating the updated allowance. This is not required by the EIP. See the note at the beginning of {ERC20}. NOTE: Does not update the allowance if the current allowance is the maximum `uint256`. Requirements: - `from` and `to` cannot be the zero address. - `from` must have a balance of at least `amount`. - the caller must have allowance for ``from``'s tokens of at least `amount`."
      },
      "withdraw(address,uint256)": {
        "details": "- to withdraw the amount",
        "params": {
          "_withdrawAmount": "- amount to be withdrawn"
        }
      }
    },
    "version": 1
  },
  "userdoc": {
    "kind": "user",
    "methods": {},
    "version": 1
  },
  "storageLayout": {
    "storage": [
      {
        "astId": 15,
        "contract": "contracts/core/LendingPool.sol:LendingPool",
        "label": "_balances",
        "offset": 0,
        "slot": "0",
        "type": "t_mapping(t_address,t_uint256)"
      },
      {
        "astId": 21,
        "contract": "contracts/core/LendingPool.sol:LendingPool",
        "label": "_allowances",
        "offset": 0,
        "slot": "1",
        "type": "t_mapping(t_address,t_mapping(t_address,t_uint256))"
      },
      {
        "astId": 23,
        "contract": "contracts/core/LendingPool.sol:LendingPool",
        "label": "_totalSupply",
        "offset": 0,
        "slot": "2",
        "type": "t_uint256"
      },
      {
        "astId": 25,
        "contract": "contracts/core/LendingPool.sol:LendingPool",
        "label": "_name",
        "offset": 0,
        "slot": "3",
        "type": "t_string_storage"
      },
      {
        "astId": 27,
        "contract": "contracts/core/LendingPool.sol:LendingPool",
        "label": "_symbol",
        "offset": 0,
        "slot": "4",
        "type": "t_string_storage"
      },
      {
        "astId": 730,
        "contract": "contracts/core/LendingPool.sol:LendingPool",
        "label": "totalPoolSupply",
        "offset": 0,
        "slot": "5",
        "type": "t_uint256"
      },
      {
        "astId": 732,
        "contract": "contracts/core/LendingPool.sol:LendingPool",
        "label": "interestFactor",
        "offset": 0,
        "slot": "6",
        "type": "t_uint256"
      },
      {
        "astId": 735,
        "contract": "contracts/core/LendingPool.sol:LendingPool",
        "label": "lendRate",
        "offset": 0,
        "slot": "7",
        "type": "t_uint256"
      },
      {
        "astId": 738,
        "contract": "contracts/core/LendingPool.sol:LendingPool",
        "label": "borrowRate",
        "offset": 0,
        "slot": "8",
        "type": "t_uint256"
      },
      {
        "astId": 740,
        "contract": "contracts/core/LendingPool.sol:LendingPool",
        "label": "periodBorrowed",
        "offset": 0,
        "slot": "9",
        "type": "t_uint256"
      },
      {
        "astId": 750,
        "contract": "contracts/core/LendingPool.sol:LendingPool",
        "label": "lendAmount",
        "offset": 0,
        "slot": "10",
        "type": "t_mapping(t_address,t_struct(Amount)745_storage)"
      },
      {
        "astId": 754,
        "contract": "contracts/core/LendingPool.sol:LendingPool",
        "label": "earnedInterest",
        "offset": 0,
        "slot": "11",
        "type": "t_mapping(t_address,t_uint256)"
      },
      {
        "astId": 758,
        "contract": "contracts/core/LendingPool.sol:LendingPool",
        "label": "lenders",
        "offset": 0,
        "slot": "12",
        "type": "t_mapping(t_address,t_bool)"
      },
      {
        "astId": 762,
        "contract": "contracts/core/LendingPool.sol:LendingPool",
        "label": "borrowers",
        "offset": 0,
        "slot": "13",
        "type": "t_mapping(t_address,t_bool)"
      },
      {
        "astId": 767,
        "contract": "contracts/core/LendingPool.sol:LendingPool",
        "label": "borrowAmount",
        "offset": 0,
        "slot": "14",
        "type": "t_mapping(t_address,t_struct(Amount)745_storage)"
      },
      {
        "astId": 771,
        "contract": "contracts/core/LendingPool.sol:LendingPool",
        "label": "paidInterest",
        "offset": 0,
        "slot": "15",
        "type": "t_mapping(t_address,t_uint256)"
      }
    ],
    "types": {
      "t_address": {
        "encoding": "inplace",
        "label": "address",
        "numberOfBytes": "20"
      },
      "t_bool": {
        "encoding": "inplace",
        "label": "bool",
        "numberOfBytes": "1"
      },
      "t_mapping(t_address,t_bool)": {
        "encoding": "mapping",
        "key": "t_address",
        "label": "mapping(address => bool)",
        "numberOfBytes": "32",
        "value": "t_bool"
      },
      "t_mapping(t_address,t_mapping(t_address,t_uint256))": {
        "encoding": "mapping",
        "key": "t_address",
        "label": "mapping(address => mapping(address => uint256))",
        "numberOfBytes": "32",
        "value": "t_mapping(t_address,t_uint256)"
      },
      "t_mapping(t_address,t_struct(Amount)745_storage)": {
        "encoding": "mapping",
        "key": "t_address",
        "label": "mapping(address => struct LendingPool.Amount)",
        "numberOfBytes": "32",
        "value": "t_struct(Amount)745_storage"
      },
      "t_mapping(t_address,t_uint256)": {
        "encoding": "mapping",
        "key": "t_address",
        "label": "mapping(address => uint256)",
        "numberOfBytes": "32",
        "value": "t_uint256"
      },
      "t_string_storage": {
        "encoding": "bytes",
        "label": "string",
        "numberOfBytes": "32"
      },
      "t_struct(Amount)745_storage": {
        "encoding": "inplace",
        "label": "struct LendingPool.Amount",
        "members": [
          {
            "astId": 742,
            "contract": "contracts/core/LendingPool.sol:LendingPool",
            "label": "amount",
            "offset": 0,
            "slot": "0",
            "type": "t_uint256"
          },
          {
            "astId": 744,
            "contract": "contracts/core/LendingPool.sol:LendingPool",
            "label": "start",
            "offset": 0,
            "slot": "1",
            "type": "t_uint256"
          }
        ],
        "numberOfBytes": "64"
      },
      "t_uint256": {
        "encoding": "inplace",
        "label": "uint256",
        "numberOfBytes": "32"
      }
    }
  }
}