{
  "address": "0x9A676e781A523b5d0C0e43731313A708CB607508",
  "abi": [
    {
      "inputs": [
        {
          "internalType": "address",
          "name": "_feeToSetter",
          "type": "address"
        }
      ],
      "stateMutability": "nonpayable",
      "type": "constructor"
    },
    {
      "anonymous": false,
      "inputs": [
        {
          "indexed": true,
          "internalType": "address",
          "name": "token",
          "type": "address"
        },
        {
          "indexed": false,
          "internalType": "address",
          "name": "pool",
          "type": "address"
        },
        {
          "indexed": false,
          "internalType": "uint256",
          "name": "timestamp",
          "type": "uint256"
        }
      ],
      "name": "PoolCreated",
      "type": "event"
    },
    {
      "inputs": [
        {
          "internalType": "uint256",
          "name": "",
          "type": "uint256"
        }
      ],
      "name": "allPools",
      "outputs": [
        {
          "internalType": "address",
          "name": "",
          "type": "address"
        }
      ],
      "stateMutability": "view",
      "type": "function"
    },
    {
      "inputs": [],
      "name": "allPoolsLength",
      "outputs": [
        {
          "internalType": "uint256",
          "name": "",
          "type": "uint256"
        }
      ],
      "stateMutability": "view",
      "type": "function"
    },
    {
      "inputs": [
        {
          "internalType": "address",
          "name": "_stakingToken",
          "type": "address"
        },
        {
          "internalType": "address",
          "name": "_rewardToken",
          "type": "address"
        }
      ],
      "name": "createPool",
      "outputs": [
        {
          "internalType": "address",
          "name": "pool",
          "type": "address"
        }
      ],
      "stateMutability": "nonpayable",
      "type": "function"
    },
    {
      "inputs": [],
      "name": "feeTo",
      "outputs": [
        {
          "internalType": "address",
          "name": "",
          "type": "address"
        }
      ],
      "stateMutability": "view",
      "type": "function"
    },
    {
      "inputs": [],
      "name": "feeToSetter",
      "outputs": [
        {
          "internalType": "address",
          "name": "",
          "type": "address"
        }
      ],
      "stateMutability": "view",
      "type": "function"
    },
    {
      "inputs": [
        {
          "internalType": "address",
          "name": "",
          "type": "address"
        },
        {
          "internalType": "address",
          "name": "",
          "type": "address"
        }
      ],
      "name": "getPool",
      "outputs": [
        {
          "internalType": "address",
          "name": "",
          "type": "address"
        }
      ],
      "stateMutability": "view",
      "type": "function"
    },
    {
      "inputs": [
        {
          "internalType": "address",
          "name": "_feeTo",
          "type": "address"
        }
      ],
      "name": "setFeeTo",
      "outputs": [],
      "stateMutability": "nonpayable",
      "type": "function"
    },
    {
      "inputs": [
        {
          "internalType": "address",
          "name": "_feeToSetter",
          "type": "address"
        }
      ],
      "name": "setFeeToSetter",
      "outputs": [],
      "stateMutability": "nonpayable",
      "type": "function"
    }
  ],
  "transactionHash": "0x822018c5e3b37a3ec931a5663642b5e44e16ba44a3bf05fed5d03f32b020c948",
  "args": [
    "0xf39Fd6e51aad88F6F4ce6aB8827279cffFb92266"
  ],
  "numDeployments": 1,
  "solcInputHash": "ff3f472e5438dd7d355c924648416203",
  "bytecode": "0x608060405234801561001057600080fd5b50604051610eca380380610eca83398101604081905261002f91610054565b600180546001600160a01b0319166001600160a01b0392909216919091179055610084565b60006020828403121561006657600080fd5b81516001600160a01b038116811461007d57600080fd5b9392505050565b610e37806100936000396000f3fe608060405234801561001057600080fd5b50600436106100885760003560e01c8063a2e74af61161005b578063a2e74af614610117578063e34336151461012c578063efde4e641461013f578063f46901ed1461015057600080fd5b8063017e7e581461008d578063094b7415146100bd57806341d1de97146100d0578063531aa03e146100e3575b600080fd5b6000546100a0906001600160a01b031681565b6040516001600160a01b0390911681526020015b60405180910390f35b6001546100a0906001600160a01b031681565b6100a06100de3660046104c3565b610163565b6100a06100f13660046104f8565b60036020908152600092835260408084209091529082529020546001600160a01b031681565b61012a61012536600461052b565b61018d565b005b6100a061013a3660046104f8565b610224565b6002546040519081526020016100b4565b61012a61015e36600461052b565b61042a565b6002818154811061017357600080fd5b6000918252602090912001546001600160a01b0316905081565b6001546001600160a01b031633146102025760405162461bcd60e51b815260206004820152602d60248201527f5374616b696e67506f6f6c466163746f72793a3a736574466565546f5365747460448201526c32b91d102327a92124a22222a760991b60648201526084015b60405180910390fd5b600180546001600160a01b0319166001600160a01b0392909216919091179055565b6001600160a01b0382811660009081526003602090815260408083208585168452909152812054909116156102b75760405162461bcd60e51b815260206004820152603360248201527f5374616b696e67506f6f6c466163746f72793a3a637265617465506f6f6c3a20604482015272506f6f6c20616c72656164792065786973747360681b60648201526084016101f9565b6000604051806020016102c9906104b6565b601f1982820381018352601f9091011660408190526bffffffffffffffffffffffff19606087811b8216602084015286901b166034820152909150600090604801604051602081830303815290604052805190602001209050808251602084016000f592506000858560405161033e906104b6565b6001600160a01b03928316815291166020820152604001604051809103906000f080158015610371573d6000803e3d6000fd5b506001600160a01b0387811660008181526003602090815260408083208b86168452825280832080549587166001600160a01b031996871681179091556002805460018101825594527f405787fa12a823e0f2b7631cc41b3ba8828b3321ca811111fa75cd3aa3bb5ace9093018054909516831790945583519182524290820152929350917ff8a0462f666b427ea753848be7e91f9ce413975906f6f39950be296ca9a4d524910160405180910390a295945050505050565b6001546001600160a01b031633146104945760405162461bcd60e51b815260206004820152602760248201527f5374616b696e67506f6f6c466163746f72793a3a736574466565546f3a20464f604482015266292124a22222a760c91b60648201526084016101f9565b600080546001600160a01b0319166001600160a01b0392909216919091179055565b6108b48061054e83390190565b6000602082840312156104d557600080fd5b5035919050565b80356001600160a01b03811681146104f357600080fd5b919050565b6000806040838503121561050b57600080fd5b610514836104dc565b9150610522602084016104dc565b90509250929050565b60006020828403121561053d57600080fd5b610546826104dc565b939250505056fe60806040523480156200001157600080fd5b50604051620008b4380380620008b4833981016040819052620000349162000100565b600180546001600160a01b038085166001600160a01b0319928316179092556000805492841692909116821781556040805163313ce56760e01b8152905191929163313ce567916004808201926020929091908290030181865afa158015620000a1573d6000803e3d6000fd5b505050506040513d601f19601f82011682018060405250810190620000c7919062000138565b9050620000d681600a62000267565b600655506200027c915050565b80516001600160a01b0381168114620000fb57600080fd5b919050565b600080604083850312156200011457600080fd5b6200011f83620000e3565b91506200012f60208401620000e3565b90509250929050565b6000602082840312156200014b57600080fd5b5051919050565b634e487b7160e01b600052601160045260246000fd5b600181815b80851115620001a95781600019048211156200018d576200018d62000152565b808516156200019b57918102915b93841c93908002906200016d565b509250929050565b600082620001c25750600162000261565b81620001d15750600062000261565b8160018114620001ea5760028114620001f55762000215565b600191505062000261565b60ff84111562000209576200020962000152565b50506001821b62000261565b5060208310610133831016604e8410600b84101617156200023a575081810a62000261565b62000246838362000168565b80600019048211156200025d576200025d62000152565b0290505b92915050565b6000620002758383620001b1565b9392505050565b610628806200028c6000396000f3fe608060405234801561001057600080fd5b50600436106100b45760003560e01c80639ee30600116100715780639ee3060014610169578063be4b17721461017e578063c8f33c9114610191578063cd3daf9d1461019a578063df136d65146101a2578063f7c618c1146101ab57600080fd5b80630700037d146100b95780636d6a6a4d146100ec57806372f702f3146100f55780637b0a47ee146101205780638b8763471461012957806398807d8414610149575b600080fd5b6100d96100c736600461050d565b60076020526000908152604090205481565b6040519081526020015b60405180910390f35b6100d960065481565b600154610108906001600160a01b031681565b6040516001600160a01b0390911681526020016100e3565b6100d960035481565b6100d961013736600461050d565b60086020526000908152604090205481565b6100d961015736600461050d565b60096020526000908152604090205481565b61017c61017736600461052f565b6101be565b005b61017c61018c36600461052f565b610312565b6100d960045481565b6100d961041e565b6100d960055481565b600054610108906001600160a01b031681565b806101c761041e565b600555426004556101d781610477565b6001600160a01b0382166000908152600760209081526040808320939093556005546008909152919020558261024c5760405162461bcd60e51b815260206004820152601560248201527443616e6e6f74207374616b65203020746f6b656e7360581b60448201526064015b60405180910390fd5b826002600082825461025e9190610571565b90915550506001600160a01b0382166000908152600960205260408120805485929061028b908490610571565b90915550506001546040516323b872dd60e01b8152336004820152306024820152604481018590526001600160a01b03909116906323b872dd906064015b6020604051808303816000875af11580156102e8573d6000803e3d6000fd5b505050506040513d601f19601f8201168201806040525081019061030c9190610584565b50505050565b8061031b61041e565b6005554260045561032b81610477565b6001600160a01b038216600090815260076020908152604080832093909355600554600890915291902055826103a35760405162461bcd60e51b815260206004820152601860248201527f43616e6e6f74207769746864726177203020746f6b656e7300000000000000006044820152606401610243565b82600260008282546103b591906105a6565b90915550506001600160a01b038216600090815260096020526040812080548592906103e29084906105a6565b909155505060015460405163a9059cbb60e01b8152336004820152602481018590526001600160a01b039091169063a9059cbb906044016102c9565b6000600254600003610431575060055490565b60025460065460035460045461044790426105a6565b61045191906105b9565b61045b91906105b9565b61046591906105d0565b6005546104729190610571565b905090565b6001600160a01b0381166000908152600760209081526040808320546006546008909352908320549091906104aa61041e565b6104b491906105a6565b6001600160a01b0385166000908152600960205260409020546104d791906105b9565b6104e191906105d0565b6104eb9190610571565b92915050565b80356001600160a01b038116811461050857600080fd5b919050565b60006020828403121561051f57600080fd5b610528826104f1565b9392505050565b6000806040838503121561054257600080fd5b82359150610552602084016104f1565b90509250929050565b634e487b7160e01b600052601160045260246000fd5b808201808211156104eb576104eb61055b565b60006020828403121561059657600080fd5b8151801515811461052857600080fd5b818103818111156104eb576104eb61055b565b80820281158282048414176104eb576104eb61055b565b6000826105ed57634e487b7160e01b600052601260045260246000fd5b50049056fea2646970667358221220d85a8f1ca1eb64c9a530987e6eeba7bb5d95abacc22f26f415c2d6647b804c0f64736f6c63430008130033a26469706673582212201d85d0d4b42f5d19c6abe55f2c5ab9294eb1bea740779a695b72110de662705464736f6c63430008130033",
  "devdoc": {
    "kind": "dev",
    "methods": {
      "createPool(address,address)": {
        "details": "- Creates a new pool for the given token pair- assembly is used to create the pool contract with the CREATE2 opcode",
        "params": {
          "_rewardToken": "- the token that will be rewarded",
          "_stakingToken": "- the token that will be staked"
        },
        "returns": {
          "pool": "- the address of the pool that was created"
        }
      }
    },
    "version": 1
  },
  "userdoc": {
    "kind": "user",
    "methods": {},
    "version": 1
  },
  "storageLayout": {
    "storage": [
      {
        "astId": 3941,
        "contract": "contracts/factory/StakingPoolFactory.sol:StakingPoolFactory",
        "label": "feeTo",
        "offset": 0,
        "slot": "0",
        "type": "t_address"
      },
      {
        "astId": 3943,
        "contract": "contracts/factory/StakingPoolFactory.sol:StakingPoolFactory",
        "label": "feeToSetter",
        "offset": 0,
        "slot": "1",
        "type": "t_address"
      },
      {
        "astId": 3946,
        "contract": "contracts/factory/StakingPoolFactory.sol:StakingPoolFactory",
        "label": "allPools",
        "offset": 0,
        "slot": "2",
        "type": "t_array(t_address)dyn_storage"
      },
      {
        "astId": 3952,
        "contract": "contracts/factory/StakingPoolFactory.sol:StakingPoolFactory",
        "label": "getPool",
        "offset": 0,
        "slot": "3",
        "type": "t_mapping(t_address,t_mapping(t_address,t_address))"
      }
    ],
    "types": {
      "t_address": {
        "encoding": "inplace",
        "label": "address",
        "numberOfBytes": "20"
      },
      "t_array(t_address)dyn_storage": {
        "base": "t_address",
        "encoding": "dynamic_array",
        "label": "address[]",
        "numberOfBytes": "32"
      },
      "t_mapping(t_address,t_address)": {
        "encoding": "mapping",
        "key": "t_address",
        "label": "mapping(address => address)",
        "numberOfBytes": "32",
        "value": "t_address"
      },
      "t_mapping(t_address,t_mapping(t_address,t_address))": {
        "encoding": "mapping",
        "key": "t_address",
        "label": "mapping(address => mapping(address => address))",
        "numberOfBytes": "32",
        "value": "t_mapping(t_address,t_address)"
      }
    }
  }
}