{
  "address": "0x9A676e781A523b5d0C0e43731313A708CB607508",
  "abi": [
    {
      "inputs": [
        {
          "internalType": "address",
          "name": "_feeToSetter",
          "type": "address"
        }
      ],
      "stateMutability": "nonpayable",
      "type": "constructor"
    },
    {
      "anonymous": false,
      "inputs": [
        {
          "indexed": true,
          "internalType": "address",
          "name": "token",
          "type": "address"
        },
        {
          "indexed": false,
          "internalType": "address",
          "name": "pool",
          "type": "address"
        },
        {
          "indexed": false,
          "internalType": "uint256",
          "name": "timestamp",
          "type": "uint256"
        }
      ],
      "name": "PoolCreated",
      "type": "event"
    },
    {
      "inputs": [
        {
          "internalType": "uint256",
          "name": "",
          "type": "uint256"
        }
      ],
      "name": "allPools",
      "outputs": [
        {
          "internalType": "address",
          "name": "",
          "type": "address"
        }
      ],
      "stateMutability": "view",
      "type": "function"
    },
    {
      "inputs": [],
      "name": "allPoolsLength",
      "outputs": [
        {
          "internalType": "uint256",
          "name": "",
          "type": "uint256"
        }
      ],
      "stateMutability": "view",
      "type": "function"
    },
    {
      "inputs": [
        {
          "internalType": "address",
          "name": "_stakingToken",
          "type": "address"
        },
        {
          "internalType": "address",
          "name": "_rewardToken",
          "type": "address"
        }
      ],
      "name": "createPool",
      "outputs": [
        {
          "internalType": "address",
          "name": "pool",
          "type": "address"
        }
      ],
      "stateMutability": "nonpayable",
      "type": "function"
    },
    {
      "inputs": [],
      "name": "feeTo",
      "outputs": [
        {
          "internalType": "address",
          "name": "",
          "type": "address"
        }
      ],
      "stateMutability": "view",
      "type": "function"
    },
    {
      "inputs": [],
      "name": "feeToSetter",
      "outputs": [
        {
          "internalType": "address",
          "name": "",
          "type": "address"
        }
      ],
      "stateMutability": "view",
      "type": "function"
    },
    {
      "inputs": [
        {
          "internalType": "address",
          "name": "",
          "type": "address"
        }
      ],
      "name": "getPool",
      "outputs": [
        {
          "internalType": "address",
          "name": "",
          "type": "address"
        }
      ],
      "stateMutability": "view",
      "type": "function"
    },
    {
      "inputs": [
        {
          "internalType": "address",
          "name": "_feeTo",
          "type": "address"
        }
      ],
      "name": "setFeeTo",
      "outputs": [],
      "stateMutability": "nonpayable",
      "type": "function"
    },
    {
      "inputs": [
        {
          "internalType": "address",
          "name": "_feeToSetter",
          "type": "address"
        }
      ],
      "name": "setFeeToSetter",
      "outputs": [],
      "stateMutability": "nonpayable",
      "type": "function"
    }
  ],
  "transactionHash": "0x784a7e44a4709bc77f3fdee5bfb3487544de4f60ea49e2564c48160be9e5fb56",
  "args": [
    "0xf39Fd6e51aad88F6F4ce6aB8827279cffFb92266"
  ],
  "numDeployments": 1,
  "solcInputHash": "d69c6ac0f99bb1bff14599dec79fcd19",
  "bytecode": "0x608060405234801561001057600080fd5b50604051610fdc380380610fdc83398101604081905261002f91610054565b600180546001600160a01b0319166001600160a01b0392909216919091179055610084565b60006020828403121561006657600080fd5b81516001600160a01b038116811461007d57600080fd5b9392505050565b610f49806100936000396000f3fe608060405234801561001057600080fd5b50600436106100885760003560e01c8063bbe4f6db1161005b578063bbe4f6db146100f8578063e343361514610121578063efde4e6414610134578063f46901ed1461014557600080fd5b8063017e7e581461008d578063094b7415146100bd57806341d1de97146100d0578063a2e74af6146100e3575b600080fd5b6000546100a0906001600160a01b031681565b6040516001600160a01b0390911681526020015b60405180910390f35b6001546100a0906001600160a01b031681565b6100a06100de36600461049c565b610158565b6100f66100f13660046104d1565b610182565b005b6100a06101063660046104d1565b6003602052600090815260409020546001600160a01b031681565b6100a061012f3660046104f3565b610219565b6002546040519081526020016100b4565b6100f66101533660046104d1565b610403565b6002818154811061016857600080fd5b6000918252602090912001546001600160a01b0316905081565b6001546001600160a01b031633146101f75760405162461bcd60e51b815260206004820152602d60248201527f5374616b696e67506f6f6c466163746f72793a3a736574466565546f5365747460448201526c32b91d102327a92124a22222a760991b60648201526084015b60405180910390fd5b600180546001600160a01b0319166001600160a01b0392909216919091179055565b6001600160a01b038281166000908152600360205260408120549091161561029f5760405162461bcd60e51b815260206004820152603360248201527f5374616b696e67506f6f6c466163746f72793a3a637265617465506f6f6c3a20604482015272506f6f6c20616c72656164792065786973747360681b60648201526084016101ee565b6001600160a01b0383166103135760405162461bcd60e51b815260206004820152603560248201527f5374616b696e67506f6f6c466163746f72793a3a637265617465506f6f6c3a2060448201527424b73b30b634b21039ba30b5b4b733903a37b5b2b760591b60648201526084016101ee565b600083836040516103239061048f565b6001600160a01b03928316815291166020820152604001604051809103906000f080158015610356573d6000803e3d6000fd5b506001600160a01b03858116600081815260036020908152604080832080549587166001600160a01b031996871681179091556002805460018101825594527f405787fa12a823e0f2b7631cc41b3ba8828b3321ca811111fa75cd3aa3bb5ace9093018054909516831790945583519182524290820152929350917ff8a0462f666b427ea753848be7e91f9ce413975906f6f39950be296ca9a4d524910160405180910390a29392505050565b6001546001600160a01b0316331461046d5760405162461bcd60e51b815260206004820152602760248201527f5374616b696e67506f6f6c466163746f72793a3a736574466565546f3a20464f604482015266292124a22222a760c91b60648201526084016101ee565b600080546001600160a01b0319166001600160a01b0392909216919091179055565b6109ed8061052783390190565b6000602082840312156104ae57600080fd5b5035919050565b80356001600160a01b03811681146104cc57600080fd5b919050565b6000602082840312156104e357600080fd5b6104ec826104b5565b9392505050565b6000806040838503121561050657600080fd5b61050f836104b5565b915061051d602084016104b5565b9050925092905056fe60806040523480156200001157600080fd5b50604051620009ed380380620009ed833981016040819052620000349162000100565b600180546001600160a01b038085166001600160a01b0319928316179092556000805492841692909116821781556040805163313ce56760e01b8152905191929163313ce567916004808201926020929091908290030181865afa158015620000a1573d6000803e3d6000fd5b505050506040513d601f19601f82011682018060405250810190620000c7919062000138565b9050620000d681600a62000267565b600655506200027c915050565b80516001600160a01b0381168114620000fb57600080fd5b919050565b600080604083850312156200011457600080fd5b6200011f83620000e3565b91506200012f60208401620000e3565b90509250929050565b6000602082840312156200014b57600080fd5b5051919050565b634e487b7160e01b600052601160045260246000fd5b600181815b80851115620001a95781600019048211156200018d576200018d62000152565b808516156200019b57918102915b93841c93908002906200016d565b509250929050565b600082620001c25750600162000261565b81620001d15750600062000261565b8160018114620001ea5760028114620001f55762000215565b600191505062000261565b60ff84111562000209576200020962000152565b50506001821b62000261565b5060208310610133831016604e8410600b84101617156200023a575081810a62000261565b62000246838362000168565b80600019048211156200025d576200025d62000152565b0290505b92915050565b6000620002758383620001b1565b9392505050565b610761806200028c6000396000f3fe608060405234801561001057600080fd5b50600436106100f55760003560e01c806398807d8411610097578063cd3daf9d11610066578063cd3daf9d14610217578063d279c1911461021f578063df136d6514610232578063f7c618c11461023b57600080fd5b806398807d84146101c65780639ee30600146101e6578063be4b1772146101fb578063c8f33c911461020e57600080fd5b80636d6a6a4d116100d35780636d6a6a4d1461016957806372f702f3146101725780637b0a47ee1461019d5780638b876347146101a657600080fd5b80630700037d146100fa57806316ba6bf31461012d5780634da6a55614610140575b600080fd5b61011a610108366004610646565b60076020526000908152604090205481565b6040519081526020015b60405180910390f35b61011a61013b366004610646565b61024e565b61011a61014e366004610646565b6001600160a01b031660009081526009602052604090205490565b61011a60065481565b600154610185906001600160a01b031681565b6040516001600160a01b039091168152602001610124565b61011a60035481565b61011a6101b4366004610646565b60086020526000908152604090205481565b61011a6101d4366004610646565b60096020526000908152604090205481565b6101f96101f4366004610668565b6102c8565b005b6101f9610209366004610668565b61041e565b61011a60045481565b61011a61052c565b6101f961022d366004610646565b610585565b61011a60055481565b600054610185906001600160a01b031681565b6001600160a01b03811660009081526007602090815260408083205460065460089093529083205490919061028161052c565b61028b91906106aa565b6001600160a01b0385166000908152600960205260409020546102ae91906106bd565b6102b891906106d4565b6102c291906106f6565b92915050565b806102d161052c565b600555426004556102e18161024e565b6001600160a01b038216600090815260076020908152604080832093909355600554600890915291902055826103565760405162461bcd60e51b815260206004820152601560248201527443616e6e6f74207374616b65203020746f6b656e7360581b60448201526064015b60405180910390fd5b826002600082825461036891906106f6565b90915550506001600160a01b038216600090815260096020526040812080548592906103959084906106f6565b90915550506001546040516323b872dd60e01b81526001600160a01b03848116600483015230602483015260448201869052909116906323b872dd906064015b6020604051808303816000875af11580156103f4573d6000803e3d6000fd5b505050506040513d601f19601f820116820180604052508101906104189190610709565b50505050565b8061042761052c565b600555426004556104378161024e565b6001600160a01b038216600090815260076020908152604080832093909355600554600890915291902055826104af5760405162461bcd60e51b815260206004820152601860248201527f43616e6e6f74207769746864726177203020746f6b656e730000000000000000604482015260640161034d565b82600260008282546104c191906106aa565b90915550506001600160a01b038216600090815260096020526040812080548592906104ee9084906106aa565b909155505060015460405163a9059cbb60e01b81526001600160a01b038481166004830152602482018690529091169063a9059cbb906044016103d5565b600060025460000361053f575060055490565b60025460065460035460045461055590426106aa565b61055f91906106bd565b61056991906106bd565b61057391906106d4565b60055461058091906106f6565b905090565b3361058e61052c565b6005554260045561059e8161024e565b6001600160a01b038083166000908152600760208181526040808420959095556005546008825285842055928616825290915220548015610625576001600160a01b038381166000818152600760205260408082208290559054905163a9059cbb60e01b81526004810192909252602482018490529091169063a9059cbb906044016103d5565b505050565b80356001600160a01b038116811461064157600080fd5b919050565b60006020828403121561065857600080fd5b6106618261062a565b9392505050565b6000806040838503121561067b57600080fd5b8235915061068b6020840161062a565b90509250929050565b634e487b7160e01b600052601160045260246000fd5b818103818111156102c2576102c2610694565b80820281158282048414176102c2576102c2610694565b6000826106f157634e487b7160e01b600052601260045260246000fd5b500490565b808201808211156102c2576102c2610694565b60006020828403121561071b57600080fd5b8151801515811461066157600080fdfea2646970667358221220be74323752d517573124a8557f2d33b6f28ea9a5886ee68b391dae01e5c25c3864736f6c63430008130033a26469706673582212200975d2dd97b737a50fba2c54020a941d4cbc8ed907bfc058c2c960c06a0e68c964736f6c63430008130033",
  "devdoc": {
    "kind": "dev",
    "methods": {
      "createPool(address,address)": {
        "details": "- Creates a new pool for the given token pair- assembly is used to create the pool contract with the CREATE2 opcode",
        "params": {
          "_rewardToken": "- the token that will be rewarded",
          "_stakingToken": "- the token that will be staked"
        },
        "returns": {
          "pool": "- the address of the pool that was created"
        }
      }
    },
    "version": 1
  },
  "userdoc": {
    "kind": "user",
    "methods": {},
    "version": 1
  },
  "storageLayout": {
    "storage": [
      {
        "astId": 280,
        "contract": "contracts/factory/StakingPoolFactory.sol:StakingPoolFactory",
        "label": "feeTo",
        "offset": 0,
        "slot": "0",
        "type": "t_address"
      },
      {
        "astId": 282,
        "contract": "contracts/factory/StakingPoolFactory.sol:StakingPoolFactory",
        "label": "feeToSetter",
        "offset": 0,
        "slot": "1",
        "type": "t_address"
      },
      {
        "astId": 285,
        "contract": "contracts/factory/StakingPoolFactory.sol:StakingPoolFactory",
        "label": "allPools",
        "offset": 0,
        "slot": "2",
        "type": "t_array(t_address)dyn_storage"
      },
      {
        "astId": 289,
        "contract": "contracts/factory/StakingPoolFactory.sol:StakingPoolFactory",
        "label": "getPool",
        "offset": 0,
        "slot": "3",
        "type": "t_mapping(t_address,t_address)"
      }
    ],
    "types": {
      "t_address": {
        "encoding": "inplace",
        "label": "address",
        "numberOfBytes": "20"
      },
      "t_array(t_address)dyn_storage": {
        "base": "t_address",
        "encoding": "dynamic_array",
        "label": "address[]",
        "numberOfBytes": "32"
      },
      "t_mapping(t_address,t_address)": {
        "encoding": "mapping",
        "key": "t_address",
        "label": "mapping(address => address)",
        "numberOfBytes": "32",
        "value": "t_address"
      }
    }
  }
}