{
  "address": "0x0DCd1Bf9A1b36cE34237eEaFef220932846BCD82",
  "abi": [
    {
      "inputs": [
        {
          "internalType": "address",
          "name": "_stakingToken",
          "type": "address"
        },
        {
          "internalType": "address",
          "name": "_rewardToken",
          "type": "address"
        }
      ],
      "stateMutability": "nonpayable",
      "type": "constructor"
    },
    {
      "inputs": [
        {
          "internalType": "address",
          "name": "_user",
          "type": "address"
        }
      ],
      "name": "claimReward",
      "outputs": [],
      "stateMutability": "nonpayable",
      "type": "function"
    },
    {
      "inputs": [],
      "name": "decimalFactor",
      "outputs": [
        {
          "internalType": "uint256",
          "name": "",
          "type": "uint256"
        }
      ],
      "stateMutability": "view",
      "type": "function"
    },
    {
      "inputs": [
        {
          "internalType": "address",
          "name": "_user",
          "type": "address"
        }
      ],
      "name": "getStakedAmount",
      "outputs": [
        {
          "internalType": "uint256",
          "name": "",
          "type": "uint256"
        }
      ],
      "stateMutability": "view",
      "type": "function"
    },
    {
      "inputs": [],
      "name": "lastUpdateTime",
      "outputs": [
        {
          "internalType": "uint256",
          "name": "",
          "type": "uint256"
        }
      ],
      "stateMutability": "view",
      "type": "function"
    },
    {
      "inputs": [
        {
          "internalType": "address",
          "name": "_account",
          "type": "address"
        }
      ],
      "name": "rewardEarned",
      "outputs": [
        {
          "internalType": "uint256",
          "name": "",
          "type": "uint256"
        }
      ],
      "stateMutability": "view",
      "type": "function"
    },
    {
      "inputs": [],
      "name": "rewardPerToken",
      "outputs": [
        {
          "internalType": "uint256",
          "name": "",
          "type": "uint256"
        }
      ],
      "stateMutability": "view",
      "type": "function"
    },
    {
      "inputs": [],
      "name": "rewardPerTokenStored",
      "outputs": [
        {
          "internalType": "uint256",
          "name": "",
          "type": "uint256"
        }
      ],
      "stateMutability": "view",
      "type": "function"
    },
    {
      "inputs": [],
      "name": "rewardRate",
      "outputs": [
        {
          "internalType": "uint256",
          "name": "",
          "type": "uint256"
        }
      ],
      "stateMutability": "view",
      "type": "function"
    },
    {
      "inputs": [],
      "name": "rewardToken",
      "outputs": [
        {
          "internalType": "contract IERC20",
          "name": "",
          "type": "address"
        }
      ],
      "stateMutability": "view",
      "type": "function"
    },
    {
      "inputs": [
        {
          "internalType": "address",
          "name": "",
          "type": "address"
        }
      ],
      "name": "rewards",
      "outputs": [
        {
          "internalType": "uint256",
          "name": "",
          "type": "uint256"
        }
      ],
      "stateMutability": "view",
      "type": "function"
    },
    {
      "inputs": [
        {
          "internalType": "uint256",
          "name": "_amount",
          "type": "uint256"
        },
        {
          "internalType": "address",
          "name": "_user",
          "type": "address"
        }
      ],
      "name": "stakeToken",
      "outputs": [],
      "stateMutability": "nonpayable",
      "type": "function"
    },
    {
      "inputs": [
        {
          "internalType": "address",
          "name": "",
          "type": "address"
        }
      ],
      "name": "staked",
      "outputs": [
        {
          "internalType": "uint256",
          "name": "",
          "type": "uint256"
        }
      ],
      "stateMutability": "view",
      "type": "function"
    },
    {
      "inputs": [],
      "name": "stakingToken",
      "outputs": [
        {
          "internalType": "contract IERC20",
          "name": "",
          "type": "address"
        }
      ],
      "stateMutability": "view",
      "type": "function"
    },
    {
      "inputs": [
        {
          "internalType": "address",
          "name": "",
          "type": "address"
        }
      ],
      "name": "userRewardPerTokenPaid",
      "outputs": [
        {
          "internalType": "uint256",
          "name": "",
          "type": "uint256"
        }
      ],
      "stateMutability": "view",
      "type": "function"
    },
    {
      "inputs": [
        {
          "internalType": "uint256",
          "name": "_amount",
          "type": "uint256"
        },
        {
          "internalType": "address",
          "name": "_user",
          "type": "address"
        }
      ],
      "name": "withdrawToken",
      "outputs": [],
      "stateMutability": "nonpayable",
      "type": "function"
    }
  ],
  "transactionHash": "0x9d86a77c284e4d9a7c879e1e1b112a0d086a806d1886fcd7ea06fb0dd08bf498",
  "args": [
    "0x9fE46736679d2D9a65F0992F2272dE9f3c7fa6e0",
    "0x0165878A594ca255338adfa4d48449f69242Eb8F"
  ],
  "numDeployments": 1,
  "solcInputHash": "73ca2917f2885c96c9f5ea35dd119d39",
  "bytecode": "0x60806040523480156200001157600080fd5b50604051620009ed380380620009ed833981016040819052620000349162000100565b600180546001600160a01b038085166001600160a01b0319928316179092556000805492841692909116821781556040805163313ce56760e01b8152905191929163313ce567916004808201926020929091908290030181865afa158015620000a1573d6000803e3d6000fd5b505050506040513d601f19601f82011682018060405250810190620000c7919062000138565b9050620000d681600a62000267565b600655506200027c915050565b80516001600160a01b0381168114620000fb57600080fd5b919050565b600080604083850312156200011457600080fd5b6200011f83620000e3565b91506200012f60208401620000e3565b90509250929050565b6000602082840312156200014b57600080fd5b5051919050565b634e487b7160e01b600052601160045260246000fd5b600181815b80851115620001a95781600019048211156200018d576200018d62000152565b808516156200019b57918102915b93841c93908002906200016d565b509250929050565b600082620001c25750600162000261565b81620001d15750600062000261565b8160018114620001ea5760028114620001f55762000215565b600191505062000261565b60ff84111562000209576200020962000152565b50506001821b62000261565b5060208310610133831016604e8410600b84101617156200023a575081810a62000261565b62000246838362000168565b80600019048211156200025d576200025d62000152565b0290505b92915050565b6000620002758383620001b1565b9392505050565b610761806200028c6000396000f3fe608060405234801561001057600080fd5b50600436106100f55760003560e01c806398807d8411610097578063cd3daf9d11610066578063cd3daf9d14610217578063d279c1911461021f578063df136d6514610232578063f7c618c11461023b57600080fd5b806398807d84146101c65780639ee30600146101e6578063be4b1772146101fb578063c8f33c911461020e57600080fd5b80636d6a6a4d116100d35780636d6a6a4d1461016957806372f702f3146101725780637b0a47ee1461019d5780638b876347146101a657600080fd5b80630700037d146100fa57806316ba6bf31461012d5780634da6a55614610140575b600080fd5b61011a610108366004610646565b60076020526000908152604090205481565b6040519081526020015b60405180910390f35b61011a61013b366004610646565b61024e565b61011a61014e366004610646565b6001600160a01b031660009081526009602052604090205490565b61011a60065481565b600154610185906001600160a01b031681565b6040516001600160a01b039091168152602001610124565b61011a60035481565b61011a6101b4366004610646565b60086020526000908152604090205481565b61011a6101d4366004610646565b60096020526000908152604090205481565b6101f96101f4366004610668565b6102c8565b005b6101f9610209366004610668565b61041e565b61011a60045481565b61011a61052c565b6101f961022d366004610646565b610585565b61011a60055481565b600054610185906001600160a01b031681565b6001600160a01b03811660009081526007602090815260408083205460065460089093529083205490919061028161052c565b61028b91906106aa565b6001600160a01b0385166000908152600960205260409020546102ae91906106bd565b6102b891906106d4565b6102c291906106f6565b92915050565b806102d161052c565b600555426004556102e18161024e565b6001600160a01b038216600090815260076020908152604080832093909355600554600890915291902055826103565760405162461bcd60e51b815260206004820152601560248201527443616e6e6f74207374616b65203020746f6b656e7360581b60448201526064015b60405180910390fd5b826002600082825461036891906106f6565b90915550506001600160a01b038216600090815260096020526040812080548592906103959084906106f6565b90915550506001546040516323b872dd60e01b81526001600160a01b03848116600483015230602483015260448201869052909116906323b872dd906064015b6020604051808303816000875af11580156103f4573d6000803e3d6000fd5b505050506040513d601f19601f820116820180604052508101906104189190610709565b50505050565b8061042761052c565b600555426004556104378161024e565b6001600160a01b038216600090815260076020908152604080832093909355600554600890915291902055826104af5760405162461bcd60e51b815260206004820152601860248201527f43616e6e6f74207769746864726177203020746f6b656e730000000000000000604482015260640161034d565b82600260008282546104c191906106aa565b90915550506001600160a01b038216600090815260096020526040812080548592906104ee9084906106aa565b909155505060015460405163a9059cbb60e01b81526001600160a01b038481166004830152602482018690529091169063a9059cbb906044016103d5565b600060025460000361053f575060055490565b60025460065460035460045461055590426106aa565b61055f91906106bd565b61056991906106bd565b61057391906106d4565b60055461058091906106f6565b905090565b3361058e61052c565b6005554260045561059e8161024e565b6001600160a01b038083166000908152600760208181526040808420959095556005546008825285842055928616825290915220548015610625576001600160a01b038381166000818152600760205260408082208290559054905163a9059cbb60e01b81526004810192909252602482018490529091169063a9059cbb906044016103d5565b505050565b80356001600160a01b038116811461064157600080fd5b919050565b60006020828403121561065857600080fd5b6106618261062a565b9392505050565b6000806040838503121561067b57600080fd5b8235915061068b6020840161062a565b90509250929050565b634e487b7160e01b600052601160045260246000fd5b818103818111156102c2576102c2610694565b80820281158282048414176102c2576102c2610694565b6000826106f157634e487b7160e01b600052601260045260246000fd5b500490565b808201808211156102c2576102c2610694565b60006020828403121561071b57600080fd5b8151801515811461066157600080fdfea2646970667358221220be74323752d517573124a8557f2d33b6f28ea9a5886ee68b391dae01e5c25c3864736f6c63430008130033",
  "devdoc": {
    "kind": "dev",
    "methods": {
      "rewardEarned(address)": {
        "details": "- to calculate the earned rewards for a user based on the amount of tokens staked",
        "params": {
          "_account": "- the address of the user"
        },
        "returns": {
          "_0": "uint256 - the amount of rewards earned"
        }
      },
      "rewardPerToken()": {
        "details": "- To calculuate the amount of rewards per token staked",
        "returns": {
          "_0": "uint256 - The amount of rewards per token staked"
        }
      },
      "stakeToken(uint256,address)": {
        "details": "- to stake tokens into the pool",
        "params": {
          "_amount": "- the amount of tokens to stake"
        }
      },
      "withdrawToken(uint256,address)": {
        "details": "- to withdraw tokens from the pool",
        "params": {
          "_amount": "- the amount of tokens to withdraw"
        }
      }
    },
    "version": 1
  },
  "userdoc": {
    "kind": "user",
    "methods": {},
    "version": 1
  },
  "storageLayout": {
    "storage": [
      {
        "astId": 5,
        "contract": "contracts/core/StakingPool.sol:StakingPool",
        "label": "rewardToken",
        "offset": 0,
        "slot": "0",
        "type": "t_contract(IERC20)527"
      },
      {
        "astId": 8,
        "contract": "contracts/core/StakingPool.sol:StakingPool",
        "label": "stakingToken",
        "offset": 0,
        "slot": "1",
        "type": "t_contract(IERC20)527"
      },
      {
        "astId": 10,
        "contract": "contracts/core/StakingPool.sol:StakingPool",
        "label": "_totalSupply",
        "offset": 0,
        "slot": "2",
        "type": "t_uint256"
      },
      {
        "astId": 12,
        "contract": "contracts/core/StakingPool.sol:StakingPool",
        "label": "rewardRate",
        "offset": 0,
        "slot": "3",
        "type": "t_uint256"
      },
      {
        "astId": 14,
        "contract": "contracts/core/StakingPool.sol:StakingPool",
        "label": "lastUpdateTime",
        "offset": 0,
        "slot": "4",
        "type": "t_uint256"
      },
      {
        "astId": 16,
        "contract": "contracts/core/StakingPool.sol:StakingPool",
        "label": "rewardPerTokenStored",
        "offset": 0,
        "slot": "5",
        "type": "t_uint256"
      },
      {
        "astId": 18,
        "contract": "contracts/core/StakingPool.sol:StakingPool",
        "label": "decimalFactor",
        "offset": 0,
        "slot": "6",
        "type": "t_uint256"
      },
      {
        "astId": 22,
        "contract": "contracts/core/StakingPool.sol:StakingPool",
        "label": "rewards",
        "offset": 0,
        "slot": "7",
        "type": "t_mapping(t_address,t_uint256)"
      },
      {
        "astId": 26,
        "contract": "contracts/core/StakingPool.sol:StakingPool",
        "label": "userRewardPerTokenPaid",
        "offset": 0,
        "slot": "8",
        "type": "t_mapping(t_address,t_uint256)"
      },
      {
        "astId": 30,
        "contract": "contracts/core/StakingPool.sol:StakingPool",
        "label": "staked",
        "offset": 0,
        "slot": "9",
        "type": "t_mapping(t_address,t_uint256)"
      }
    ],
    "types": {
      "t_address": {
        "encoding": "inplace",
        "label": "address",
        "numberOfBytes": "20"
      },
      "t_contract(IERC20)527": {
        "encoding": "inplace",
        "label": "contract IERC20",
        "numberOfBytes": "20"
      },
      "t_mapping(t_address,t_uint256)": {
        "encoding": "mapping",
        "key": "t_address",
        "label": "mapping(address => uint256)",
        "numberOfBytes": "32",
        "value": "t_uint256"
      },
      "t_uint256": {
        "encoding": "inplace",
        "label": "uint256",
        "numberOfBytes": "32"
      }
    }
  }
}