{
  "address": "0x68B1D87F95878fE05B998F19b66F4baba5De1aed",
  "abi": [
    {
      "inputs": [
        {
          "internalType": "address",
          "name": "_factory",
          "type": "address"
        },
        {
          "internalType": "address",
          "name": "_WETH",
          "type": "address"
        }
      ],
      "stateMutability": "nonpayable",
      "type": "constructor"
    },
    {
      "inputs": [],
      "name": "WETH",
      "outputs": [
        {
          "internalType": "address",
          "name": "",
          "type": "address"
        }
      ],
      "stateMutability": "view",
      "type": "function"
    },
    {
      "inputs": [],
      "name": "factory",
      "outputs": [
        {
          "internalType": "address",
          "name": "",
          "type": "address"
        }
      ],
      "stateMutability": "view",
      "type": "function"
    },
    {
      "inputs": [
        {
          "internalType": "address",
          "name": "_tokenA",
          "type": "address"
        },
        {
          "internalType": "address",
          "name": "_tokenB",
          "type": "address"
        }
      ],
      "name": "getPriceA",
      "outputs": [
        {
          "internalType": "uint256",
          "name": "priceA",
          "type": "uint256"
        }
      ],
      "stateMutability": "view",
      "type": "function"
    },
    {
      "inputs": [
        {
          "internalType": "address",
          "name": "_tokenA",
          "type": "address"
        },
        {
          "internalType": "address",
          "name": "_tokenB",
          "type": "address"
        }
      ],
      "name": "getPriceB",
      "outputs": [
        {
          "internalType": "uint256",
          "name": "priceB",
          "type": "uint256"
        }
      ],
      "stateMutability": "view",
      "type": "function"
    }
  ],
  "transactionHash": "0xf45a0e21805461d6ddf51677f43ed7fafa4965ea69983d03c25dddc3b5403f71",
  "args": [
    "0x2279B7A0a67DB372996a5FaB50D91eAA73d2eBe6",
    "0xa513E6E4b8f2a923D98304ec87F64353C4D5C853"
  ],
  "numDeployments": 1,
  "solcInputHash": "16aecfdc98be1463c9a88d7a0b2dc0f1",
  "bytecode": "0x60c060405234801561001057600080fd5b506040516105fb3803806105fb83398101604081905261002f91610062565b6001600160a01b039182166080521660a052610095565b80516001600160a01b038116811461005d57600080fd5b919050565b6000806040838503121561007557600080fd5b61007e83610046565b915061008c60208401610046565b90509250929050565b60805160a0516105366100c56000396000608f01526000818160ce0152818160f801526101c401526105366000f3fe608060405234801561001057600080fd5b506004361061004c5760003560e01c80634a611dd2146100515780638c10192214610077578063ad5c46481461008a578063c45a0155146100c9575b600080fd5b61006461005f366004610415565b6100f0565b6040519081526020015b60405180910390f35b610064610085366004610415565b6101bc565b6100b17f000000000000000000000000000000000000000000000000000000000000000081565b6040516001600160a01b03909116815260200161006e565b6100b17f000000000000000000000000000000000000000000000000000000000000000081565b60008061011e7f0000000000000000000000000000000000000000000000000000000000000000858561027d565b90506000806000836001600160a01b0316630902f1ac6040518163ffffffff1660e01b8152600401606060405180830381865afa158015610163573d6000803e3d6000fd5b505050506040513d601f19601f82011682018060405250810190610187919061046a565b63ffffffff1692506001600160701b031692506001600160701b0316925081836101b191906104ba565b979650505050505050565b6000806101ea7f0000000000000000000000000000000000000000000000000000000000000000858561027d565b90506000806000836001600160a01b0316630902f1ac6040518163ffffffff1660e01b8152600401606060405180830381865afa15801561022f573d6000803e3d6000fd5b505050506040513d601f19601f82011682018060405250810190610253919061046a565b63ffffffff1692506001600160701b031692506001600160701b0316925082826101b191906104ba565b600080600061028c858561030f565b60405163e6a4390560e01b81526001600160a01b03808416600483015280831660248301529294509092509087169063e6a4390590604401602060405180830381865afa1580156102e1573d6000803e3d6000fd5b505050506040513d601f19601f8201168201806040525081019061030591906104dc565b9695505050505050565b600080826001600160a01b0316846001600160a01b0316036103785760405162461bcd60e51b815260206004820181905260248201527f537761704c6962726172793a204944454e544943414c5f41444452455353455360448201526064015b60405180910390fd5b826001600160a01b0316846001600160a01b03161061039857828461039b565b83835b90925090506001600160a01b0382166103f65760405162461bcd60e51b815260206004820152601960248201527f537761704c6962726172793a205a45524f5f4144445245535300000000000000604482015260640161036f565b9250929050565b6001600160a01b038116811461041257600080fd5b50565b6000806040838503121561042857600080fd5b8235610433816103fd565b91506020830135610443816103fd565b809150509250929050565b80516001600160701b038116811461046557600080fd5b919050565b60008060006060848603121561047f57600080fd5b6104888461044e565b92506104966020850161044e565b9150604084015163ffffffff811681146104af57600080fd5b809150509250925092565b6000826104d757634e487b7160e01b600052601260045260246000fd5b500490565b6000602082840312156104ee57600080fd5b81516104f9816103fd565b939250505056fea26469706673582212207e281f534ea79b32f7635c37427ed285182ed09595e4201b1d1350ce132e185f64736f6c63430008130033",
  "devdoc": {
    "kind": "dev",
    "methods": {},
    "version": 1
  },
  "userdoc": {
    "kind": "user",
    "methods": {},
    "version": 1
  },
  "storageLayout": {
    "storage": [],
    "types": null
  }
}